:020000040800F2
:1000000078100020D1010008B501000800000000B0
:10001000B5010008B5010008B5010008B5010008E8
:10002000B5010008B5010008B501000851690008D4
:10003000B5010008B50100081D690008F93700087E
:10004000B5010008B5010008B5010008B5010008B8
:10005000B5010008B5010008FD360008B50100082B
:10006000B5010008B5010008B5010008B501000898
:10007000B5010008B5010008B5010008B501000888
:10008000B5010008B5010008B5010008B501000878
:10009000B5010008B5010008B5010008B501000868
:1000A000B5010008B5010008B5010008B501000858
:1000B000B5010008B5010008B5010008B501000848
:1000C000B5010008B5010008B5010008B501000838
:1000D000B5010008B5010008B5010008B501000828
:1000E000B5010008B5010008B5010008B501000818
:1000F000B5010008B5010008B5010008B501000808
:10010000B5010008B5010008B5010008B5010008F7
:10011000B5010008B5010008B5010008B5010008E7
:10012000B5010008B5010008B5010008B5010008D7
:10013000B5010008B501000800000000B501000885
:10014000B5010008B5010008B5010008B5010008B7
:04015000B5010008ED
:0801540000680000010000003A
:1001600010B5054C237833B9044B13B10448AFF3F1
:1001700000800123237010BD440000200000000017
:100180005401000808B5064B1BB106480649AFF3F9
:1001900000800648036813B1054B03B1984708BDBA
:1001A0000000000054010008480000204400002026
:1001B00000000000684620F007018D4601B50348A5
:1001C00040F2511103F026F9FEE700BF9C800008C1
:1001D000684620F007018D4601B51C4B1C4A9A4227
:1001E00011D248F2CC12C0F6000240F20003C2F273
:1001F000000340F24400C2F2000052F8041B43F82E
:10020000041B8342F9D3134B134A9A420DD240F296
:100210004403C2F200034FF0000140F67842C2F2FC
:10022000000243F8041B9342FBD306F0E3FA02F00A
:10023000D5F948F29C00C0F600004FF4A67103F017
:10024000E9F8BDE801408546704700BF4400002042
:1002500000000020780C00204400002082B04FF401
:100260008053C4F202031A6842F001021A6059680E
:100270004FF00002CFF2FF0201EA02025A601A6850
:1002800022F0847222F480321A601A6822F48022EA
:100290001A605A6822F4FE025A601A6822F0A052CC
:1002A0001A604FF47F029A60A2F57F02DA6201922F
:1002B00000921A6842F480321A604FF48053C4F2FC
:1002C00002031A6802F400320092019A02F101025C
:1002D0000192009A1AB9019AB2F5A06FF1D14FF4C8
:1002E0008053C4F202031B6813F4003F19BF0123BB
:1002F000009300230093009B012B63D14FF4005324
:10030000C4F202031A6842F010021A601A6822F05E
:1003100003021A601A6842F002021A604FF4805316
:10032000C4F202035A685A605A685A605A6842F422
:1003300080625A60D96A4FF47042CFF6FE7201EAC9
:100340000202DA62DA6A42F4823242F41172DA624A
:100350001A6842F080621A604FF48053C4F20203BC
:100360001A6812F0006FFBD04FF48053C4F20203FE
:100370005A6822F47C125A605A6842F4E8125A60B1
:100380001A6842F080721A604FF48053C4F202037C
:100390001A6812F0007FFBD04FF48053C4F20203BE
:1003A0005A6822F003025A605A6842F002025A6008
:1003B0004FF48053C4F202035A6802F00C02082A78
:1003C000FAD100E0FEE702B0704700BF30B583B05D
:1003D000054646F67814C0F6000454F820004FF0A5
:1003E000010101F0FFFB04EB4504248AADF8044051
:1003F0004FF010038DF807304FF003038DF80630EF
:1004000040F20403C2F2000353F8250001A901F0F1
:10041000D9F803B030BD00BF40F20402C2F20002BE
:1004200052F8202046F67813C0F6000303EB400391
:100430001B8A1361704700BF40F20402C2F200023F
:1004400052F8202046F67813C0F6000303EB400371
:100450001B8A5361704700BF40F20402C2F20002DF
:1004600052F82020D16846F67813C0F6000303EB5B
:1004700040031B8A83EA0103D3607047F0B585B05F
:1004800005460F4646F67814C0F600044FEA80068B
:1004900004EB0603986940F001004FF0010101F000
:1004A000A1FB04EB4504A48CADF80C404FF0040311
:1004B0008DF80F3040F20403C2F200031E4430698D
:1004C00003A901F07FF8012F37D146F67814C0F662
:1004D000000404EB450494F82C0094F8341001F067
:1004E00059F9A38F01934FF000038DF8083025B11F
:1004F0004FF00C038DF8093003E04FF008038DF83E
:1005000009304FF001048DF80A4001A800F03EFFC9
:1005100046F67813C0F6000303EB4505B5F8443002
:100520008DF800304FF00F038DF801308DF8023058
:100530008DF80340684600F09FFE05B0F0BD00BF97
:1005400008B540F20402C2F2000202EB8002126916
:1005500046F67813C0F6000303EB4003998C10466F
:1005600001F09EF808BD00BFF0B583B004460F4609
:1005700046F67813C0F6000303EB8003D86C40F016
:1005800001004FF0010101F02DFB84B94FF008008C
:100590004FF0010101F0C2F846F67813C0F60003EF
:1005A00003EB8403186D4FF0010101F02FFB46F6B9
:1005B0007815C0F6000505EB4405B5F85430ADF8E4
:1005C00004304FF018038DF807304FF003038DF817
:1005D000063040F20403C2F2000303EB8404E06936
:1005E00001AE314600F0EEFFB5F85850ADF80450BA
:1005F0004FF004038DF80730E069314600F0E2FF68
:10060000206A394601F024FE206A4FF0010101F012
:10061000A9FE03B0F0BD00BF84B001904FF000030D
:100620000393019A48F2A063C0F2010303FB02F3B3
:100630000393039B33B1039B03F1FF330393039BAA
:10064000002BF8D104B0704782B0ADF80600BDF8B9
:10065000062092B240F26003C2F200031A8002B098
:10066000704700BF82B0ADF80600BDF8062092B218
:1006700040F22803C2F200031A8002B0704700BFA4
:1006800070B506464FF47050C4F200004FEA1621D0
:1006900001F0E2FC4FF47054C4F200044FF0800506
:1006A0002046294601F042FD0028F9D14FF4705050
:1006B000C4F20000F1B201F0CFFC4FF47054C4F268
:1006C00000044FF080052046294601F02FFD002848
:1006D000F9D170BD00B583B04FF008004FF00101B3
:1006E00001F080FA4FF00403ADF804304FF003033B
:1006F0008DF806304FF010038DF807304FF440604E
:10070000C4F2010001A900F05DFF03B000BD00BF0D
:1007100008B500F0DDFF08BD38B504464FF4406071
:10072000C4F201004FF004014FF00002FFF7F0FFA8
:100730004FF47050C4F20000214601F08DFC4FF4DC
:100740007054C4F200044FF080052046294601F0A1
:10075000EDFC0028F9D138BD70B506464FF07000A9
:10076000FFF7DAFF4FF47050C4F200004FF00001C1
:1007700001F072FC4FF47054C4F200044FF0800595
:100780002046294601F0D2FC0028F9D14FF47050E0
:10079000C4F20000314601F05FFC4FF47054C4F223
:1007A00000044FF080052046294601F0BFFC0028D8
:1007B000F9D14FF44060C4F201004FF004014FF052
:1007C0000102FFF7A5FF70BD08B54FF02200FFF74B
:1007D000C3FF4FF07200FFF79FFF08BD70B50E46D4
:1007E000FFF7BAFF4FF07200FFF796FF4FF470501B
:1007F000C4F200004FEA162101F02EFC4FF47054B1
:10080000C4F200044FF080052046294601F08EFC1A
:100810000028F9D14FF47050C4F20000F1B201F099
:100820001BFC4FF47054C4F200044FF080052046C6
:10083000294601F07BFC0028F9D14FF44060C4F256
:1008400001004FF004014FF00102FFF761FF70BD9E
:1008500008B54FF007004FF00001FFF7BFFF08BDDC
:1008600008B54FF0070040F27311FFF7B7FF08BD5E
:1008700008B54FF010004FF00001FFF7AFFF4FF049
:1008800011004FF00001FFF7A9FF4FF012004FF0E9
:100890000001FFF7A3FF4FF013004FF00001FFF737
:1008A0009DFF4FF01400FFF7B7FE4FF0100041F22C
:1008B000B071FFF793FF4FF0110040F23711FFF7CF
:1008C0008DFF4FF00500FFF7A7FE4FF0120040F23A
:1008D0003911FFF783FF4FF00500FFF79DFE4FF042
:1008E00013004FF4E851FFF779FF4FF029004FF064
:1008F0001301FFF773FF4FF00500FFF78DFE4FF078
:10090000070040F27311FFF769FF08BD10B50346F9
:100910000C464FF020001946FFF760FF4FF0210012
:100920002146FFF75BFF10BD70B504460D461E461D
:10093000904209D300F10101C2EB010291B24FF0E4
:100940005000FFF74BFF05E04FF050004FF0000163
:10095000FFF744FF4FF051002146FFF73FFFB5423C
:1009600009D305F10101C6EB0106B1B24FF0520007
:10097000FFF734FF05E04FF052004FF00001FFF7A2
:100980002DFF4FF053002946FFF728FF2046294648
:10099000FFF7BCFF70BD00BF08B54FF0EF0040F29D
:1009A0003F114FF0F0024FF4A073FFF7BDFF4FF07F
:1009B000030041F21801FFF711FF08BD10B504460E
:1009C000FFF702FF2046FFF75BFE4FF44060C4F2E2
:1009D00001004FF004014FF00102FFF799FE10BD36
:1009E0002DE9F04F85B0029003914FEA4203C3F125
:1009F0000303019315460E460F46804682464FF08C
:100A0000000940F26004C2F200041FFA85FB039A59
:100A10000BEB02039BB2009350461946FFF776FF9B
:100A2000208880B2FFF7CAFF039BCBEB030B1FFAB2
:100A30008BFB50465946FFF769FF208880B2FFF7CD
:100A4000BDFF40460099FFF761FF208880B2FFF7A5
:100A5000B5FF40465946FFF759FF208880B2FFF79F
:100A6000ADFFEAB20092029B02EB030B5FFA8BFB35
:100A700058463946FFF74AFF208880B2FFF79EFFAD
:100A800058463146FFF742FF208880B2FFF796FFB5
:100A9000029A009BC3EB020B5FFA8BFB5846394668
:100AA000FFF734FF208880B2FFF788FF58463146B1
:100AB000FFF72CFF208880B2FFF780FF019A002A01
:100AC000BDBF02EB890306330193019AA1BF02F176
:100AD0000A03C5EB090203EB82020192A8BF05F1EC
:100AE000FF3509F101090AF1010A5FFA8AFA08F1F2
:100AF000FF385FFA88F807F10107BFB206F1FF3649
:100B0000B6B24D4581D205B0BDE8F08F2DE9F04178
:100B10004FF47053C4F200031A8822F038024FEAEF
:100B200002424FEA12421A801A8892B242F0080238
:100B30001A80FFF711FE4FF07300FFF7EDFD4FF045
:100B400000074FF47054C4F200044FF0FF084FF058
:100B500080054FF001062046414601F07DFA20460F
:100B6000294601F0E3FA0028F9D12046314601F088
:100B7000DDFA0028F9D0204601F070FA07F10107EC
:100B8000FFB2052FE7D14FF47050C4F200004FF0D0
:100B9000FF0101F061FA4FF47054C4F200044FF009
:100BA00080052046294601F0C1FA0028F9D14FF40A
:100BB0007054C4F200044FF001052046294601F0AC
:100BC000B5FA0028F9D04FF47054C4F2000420465E
:100BD00001F044FA064620464FF0FF0101F03CFACE
:100BE0004FF47054C4F200044FF0800520462946AB
:100BF00001F09CFA0028F9D14FF47054C4F20004BB
:100C00004FF001052046294601F090FA0028F9D05E
:100C10004FF47054C4F20004204601F01FFA40EA79
:100C20000626B6B24FF44060C4F201004FF0040152
:100C30004FF00102FFF76CFD238823F038034FEAE1
:100C400003434FEA13432380B0B2BDE8F08100BFF5
:100C50002DE9F04706464FF0000040F23F11FFF744
:100C600055FEFFF7B1FD4FF00005A9464FF0010713
:100C7000DFF85480DFF854A018E007FA04F2735943
:100C80001A4205D1BAF8000080B2FFF7F9FC04E07F
:100C9000B8F8000080B2FFF7F3FC04F10104202C47
:100CA000EBD105F10405B5F5165F01D04C46E4E73C
:100CB0004FF44060C4F201004FF004014FF0010214
:100CC000FFF726FDBDE8F087600000202800002027
:100CD0002DE9F04104460E4690461D46FFF716FEEC
:100CE00025B14746B8F1000F1FD134E0FFF76CFD86
:100CF0004546B8F1000F0DD04FF0000440F26006F9
:100D0000C2F20006308880B2FFF7BAFC04F1010499
:100D1000AC42F7D34FF44060C4F201004FF004013D
:100D20004FF00102FFF7F4FC15E04FF0000540F230
:100D30006008C2F20008B8F8000080B2FFF73EFE7B
:100D400004F10104E4B220463146FFF7DFFD05F16E
:100D50000105BD42EFD3BDE8F08100BFF8B5044600
:100D60000D4617461E461A464FF00003FFF7B0FF28
:100D700007EB0400C0B2294632464FF00003FFF7EC
:100D8000A7FF204629463A464FF00103FFF7A0FF90
:100D900005F10105C6EB0506B1B220463A464FF013
:100DA0000103FFF795FFF8BD2DE9F84F82468B460A
:100DB0001646FFF7ABFD4FF0000540F26007C2F2A8
:100DC000000740F22808C2F200084FF44069C4F25C
:100DD0000109FFF7F9FC4FF00004735B43FA04F3D9
:100DE00013F0010F05D1B8F8000080B2FFF748FCFE
:100DF00003E0388880B2FFF743FC04F10104102CB3
:100E0000EBD148464FF004014FF00102FFF780FCA0
:100E10000AF1010A5FFA8AFA50465946FFF776FD51
:100E200005F10205302DD4D1BDE8F88F08B5C1F524
:100E30009E7101F1030189B246F6D413C0F6000396
:100E4000A2F12002D2B202EB420203EB0212FFF740
:100E5000ABFF08BDF8B506460C4615461278B1F54D
:100E6000A07F2CBF00230123002A0CBF002303F026
:100E70000103ABB140F23F1730462146FFF7D6FFE2
:100E800004F11004A4B215F8012FBC428CBF00235A
:100E90000123002A0CBF002303F00103002BEBD138
:100EA000F8BD00BF08B548F2B402C0F600024FF02A
:100EB0000001FFF7CFFF08BD38B505464FF0000031
:100EC00040F23F11FFF722FDFFF77EFC4FF00004D8
:100ED0002846FFF7D5FB04F10104B4F5963FF7D19E
:100EE0004FF44060C4F201004FF004014FF00102E2
:100EF000FFF70EFC38BD00BF30B587B04FF01100D2
:100F00004FF0010100F06EFE4FF48050C0F220005F
:100F10004FF0010100F002FC4FF400404FF00101DE
:100F200000F074FE4FF4E052ADF800204FF00303E0
:100F30008DF802304FF018038DF803304FF48050D5
:100F4000C4F20100694600F03DFB4FF47054C4F256
:100F50000004204600F016FF4FF00003ADF8043007
:100F60004FF48272ADF80620ADF808304FF002025F
:100F7000ADF80A204FF00105ADF80C504FF40072A7
:100F8000ADF80E20ADF81030ADF81230204601A9B2
:100F900000F032FF2046294601F01CF807B030BDB2
:100FA00008B5FFF797FBFFF7A7FF4FF00500FFF726
:100FB00033FB4FF0E5004FF40041FFF70FFC4FF01B
:100FC00000004FF00101FFF709FC4FF001004FF462
:100FD0008071FFF703FC4FF002004FF4E061FFF770
:100FE000FDFB4FF0030041F23001FFF7F7FB4FF03C
:100FF00004004FF00001FFF7F1FB4FF0080040F252
:101000000221FFF7EBFB4FF009004FF00001FFF763
:10101000E5FB4FF00A004FF00001FFF7DFFB4FF058
:101020000C004FF00001FFF7D9FB4FF00D004FF01F
:101030000001FFF7D3FB4FF00F004FF00001FFF767
:10104000CDFB4FF010004FF00001FFF7C7FB4FF052
:1010500011004FF00001FFF7C1FB4FF012004FF0FD
:101060000001FFF7BBFB4FF013004FF00001FFF74B
:10107000B5FB4FF01400FFF7CFFA4FF0100041F22C
:10108000B071FFF7ABFB4FF0110040F23711FFF7E3
:10109000A5FB4FF00500FFF7BFFA4FF0120040F23A
:1010A0003911FFF79BFB4FF00500FFF7B5FA4FF042
:1010B00013004FF4E851FFF791FB4FF029004FF078
:1010C0001301FFF78BFB4FF00500FFF7A5FA4FF078
:1010D00020004FF00001FFF781FB4FF021004FF09F
:1010E0000001FFF77BFB4FF030004FF00601FFF7E8
:1010F00075FB4FF0310040F20111FFF76FFB4FF02D
:1011000032004FF00301FFF769FB4FF035004FF459
:101110008371FFF763FB4FF0360040F60231FFF7B3
:101120005DFB4FF0370040F20231FFF757FB4FF005
:10113000380040F20771FFF751FB4FF039004FF0D4
:101140000701FFF74BFB4FF03C004FF4C061FFF786
:1011500045FB4FF03D0040F20B21FFF73FFB4FF006
:1011600050004FF00001FFF739FB4FF051004FF0F6
:10117000EF01FFF733FB4FF052004FF00001FFF794
:101180002DFB4FF0530040F23F11FFF727FB4FF0CC
:1011900060004FF41C51FFF721FB4FF061004FF04E
:1011A0000101FFF71BFB4FF06A004FF00001FFF752
:1011B00015FB4FF080004FF00001FFF70FFB4FF0E1
:1011C00081004FF00001FFF709FB4FF082004FF064
:1011D0000001FFF703FB4FF083004FF00001FFF722
:1011E000FDFA4FF084004FF00001FFF7F7FA4FF0DF
:1011F00085004FF00001FFF7F1FA4FF090004FF03B
:101200001001FFF7EBFA4FF092004FF00001FFF7EB
:10121000E5FA4FF093004FF00301FFF7DFFA4FF0CC
:1012200095004FF48871FFF7D9FA4FF097004FF00F
:101230000001FFF7D3FA4FF098004FF00001FFF7DD
:10124000CDFA4FF0030041F21801FFF7C7FA4FF053
:10125000070040F27311FFF7C1FA08BD08B5FFF7A8
:101260009FFE08BD40F0BE6040F420204FF46D4367
:10127000CEF20003D8607047C37873B34FF46D4368
:10128000CEF20003DB686FEA0303C3F30223C3F16A
:101290000402417801FA02F24FF00F0121FA03F142
:1012A00090F802C001EA0C0141EA020102784FEA1B
:1012B0000111C9B24FF46143CEF200031A4482F81F
:1012C000001302784FEA521102F01F024FF00100A2
:1012D00000FA02F243F8212010E003784FEA53129B
:1012E00003F01F034FF0010101FA03F14FF46143D2
:1012F000CEF2000302F1200243F82210704700BF33
:1013000021F0604121F07F0141EA00004FF46D437C
:10131000CEF200039860704741B14FF46D43CEF2B6
:1013200000031A6940EA0200186107E04FF46D43B8
:10133000CEF200031A6922EA00001861704700BF6C
:10134000042801BF4EF21003CEF200031A6842F0E7
:1013500004020FBF1A604EF21003CEF200031A68A7
:101360001CBF22F004021A60704700BF4FF4806374
:10137000C4F201034FF000021A605A609A60DA600A
:101380004FF6FF72C0F20F025A6170478379002B4B
:101390003ED04FF48063C4F201031A68016822EA68
:1013A00001021A605A68016822EA01025A60027951
:1013B00002F1804202F58232D2F800C001684CEAA4
:1013C000010111609A68016822EA01029A60DA68F4
:1013D000016822EA0102DA604379102B0ED14FF442
:1013E0008063C4F201039968026841EA02029A60CC
:1013F000D968026841EA0202DA6013E003F180432F
:1014000003F582331968026841EA02021A6009E0B2
:10141000037903F1804303F582331A68016822EAF5
:1014200001021A60704700BF4FF0000303600371B0
:101430004FF00C0242718371704700BF4FF480631C
:10144000C4F201031A6940EA02001861704700BF44
:101450004FF48063C4F201035B6918420CBF0020A3
:10146000012070474FF48063C4F201035861704754
:101470004FF48063C4F201031A685B69184208BF25
:10148000002003D010420CBF00200120704700BF95
:101490004FF48063C4F201035861704708B54FF4FC
:1014A0000063C4F2010398420CD14FF004004FF0E6
:1014B000010100F0D3FB4FF004004FF0000100F0F9
:1014C000CDFB70E04FF44063C4F2010398420CD1AD
:1014D0004FF008004FF0010100F0C0FB4FF0080092
:1014E0004FF0000100F0BAFB5DE04FF48053C4F20E
:1014F000010398420CD14FF010004FF0010100F0B1
:10150000ADFB4FF010004FF0000100F0A7FB4AE0E8
:101510004FF4A053C4F2010398420CD14FF02000C5
:101520004FF0010100F09AFB4FF020004FF0000156
:1015300000F094FB37E04FF4C053C4F2010398422B
:101540000CD14FF040004FF0010100F087FB4FF04D
:1015500040004FF0000100F081FB24E04FF4E05325
:10156000C4F2010398420CD14FF080004FF001010A
:1015700000F074FB4FF080004FF0000100F06EFBB4
:1015800011E04FF40053C4F2010398420BD14FF421
:1015900080704FF0010100F061FB4FF480704FF05C
:1015A000000100F05BFB08BD08B54FF001000146EB
:1015B00000F054FB4FF001004FF0000100F04EFB33
:1015C00008BD00BF2DE9F005CB7803F00F0413F040
:1015D000100F1CBF8B781C430B7833B307684FF098
:1015E00000034FF001054FF00F0805FA03F2B1F8C0
:1015F00000C002EA0C0C944512D14FEA830608FAA7
:1016000006FA27EA0A0704FA06F647EA0607CE783A
:10161000282E08BFC0F814C002D0482E08BF0261AF
:1016200003F10103082BE0D107600B88FF2B2AD9B7
:1016300047684FF000034FF001054FF00F0803F12A
:10164000080205FA02F2B1F800C002EA0C0C944557
:1016500014D14FEA830608FA06FA27EA0A0704FAC1
:1016600006F647EA0607CE78282E08BFC0F814C051
:1016700091F803C0BCF1480F08BF026103F10103F8
:10168000082BDCD14760BDE8F00570474FF0FF3311
:1016900003804FF0020383704FF00403C370704760
:1016A000836819420CBF002001207047806880B217
:1016B000704700BFC36819420CBF0020012070476B
:1016C000C06880B2704700BF0161704741617047D8
:1016D0000AB1016100E04161704700BFC16070471D
:1016E00041F48033836181618361836983697047D9
:1016F0004FF00003C4F20103D3F800C04FF680722C
:101700000CEA020241EA001040EA02021A60704745
:101710004FF01C03C4F220231860704710B44FF040
:101720000003C4F201035B681FFA80FC00F440125E
:10173000B2F5401F0AD123F070634FF00002C4F2EB
:101740000102546824F07064546013E010F4801FA8
:101750001FBFC0F30342032404FA02F2934311BFF4
:1017600043F07063420D12010CFA02F204BF93437E
:1017700043F0706339B14FEA50504FEA00100CFA51
:1017800000FC43EA0C034FF00002C4F20102536074
:1017900010BC704710B401F003024FEA82024FEA16
:1017A00091014FF00003C4F2010301F1020153F86B
:1017B00021404FF00F0C0CFA02FC24EA0C0C43F809
:1017C00021C053F821C000FA02F242EA0C0243F8A9
:1017D000212010BC704700BF4FF0DC03C4F220236F
:1017E000186070474FF48053C4F202031A6842F045
:1017F00001021A6059684FF00002CFF2FF0201EABD
:1018000002025A601A6822F0847222F480321A604E
:101810001A6822F480221A605A6822F4FE025A6082
:101820001A6822F0A0521A604FF47F029A604FF0BB
:101830000002DA62704700BF4FF48053C4F2020323
:101840001A6822F480321A601A6822F480221A6020
:10185000B0F5803F03D0B0F5802F11D108E04FF4F0
:101860008053C4F202031A6842F480321A6007E01F
:101870004FF48053C4F202031A6842F4A0221A60A3
:10188000704700BF4FF48053C4F202031A6822F07D
:10189000F80242EAC0001860704700BF4FF0000332
:1018A000C4F24223186070474FF48053C4F202031D
:1018B0005A6822F4741240EA020040EA01005860BB
:1018C000704700BF4FF06003C4F2422318607047B6
:1018D0004FF48053C4F20203DA6A22F4803222F019
:1018E0000F0240EA020040EA0100D862704700BFE0
:1018F0004FF48053C4F20203DA6A22F0F00240EAA5
:101900000200D862704700BF4FF48053C4F2020354
:10191000DA6A22F4706240EA0200D862704700BFBF
:101920004FF06803C4F24223186070474FF48053AD
:10193000C4F20203DA6A22F4704240EA0200D8627A
:10194000704700BF4FF07003C4F242231860704725
:101950004FF48053C4F202035A6822F0030240EAB3
:1019600002005860704700BF4FF48053C4F2020376
:10197000586800F00C0070474FF48053C4F2020323
:101980005A6822F0F00240EA02005860704700BF37
:101990004FF48053C4F202035A6822F4E06240EA32
:1019A00002005860704700BF4FF48053C4F2020336
:1019B0005A6822F4605242EAC0005860704700BF83
:1019C00041B141F20903C4F202031A7840EA02006D
:1019D000187007E041F20903C4F202031A7822EA00
:1019E00000001870704700BF4FF0D803C4F24223C4
:1019F000186070474FF48053C4F202035A6822F40F
:101A0000404240EA02005860704700BF40F2C453B1
:101A1000C4F24223186070474FF4B963C4F2422302
:101A2000186070474FF48153C4F202034FF0000274
:101A30001A701A70012802D004280FD107E04FF461
:101A40008153C4F202034FF001021A7006E04FF412
:101A50008153C4F202034FF005021A70704700BFB1
:101A60004FF49063C4F24223186070474FF48053E0
:101A7000C4F202031A6A40EA02001862704700BF0B
:101A800040F23C43C4F242231860704710B44FF454
:101A90008053C4F202035B6803F00C03042B02BF03
:101AA00047F64003C0F27D13036059D0082B07D0DE
:101AB000002B50D14FF49053C0F27A0303604FE0F3
:101AC0004FF48053C4F2020359685A6802F480321A
:101AD000C1F383430D2B14BF023306233AB94FF4ED
:101AE0001062C0F23D0202FB03F3036038E04FF4E2
:101AF0008052C4F20202D16AD26A02F00F0202F1ED
:101B0000010211F4803F09D147F64001C0F27D1176
:101B1000B1FBF2F202FB03F3036021E04FF48051CA
:101B2000C4F20201CC6AD1F82CC0C4F3031404F14E
:101B3000010447F64001C0F27D11B1FBF4F1CCF392
:101B4000032C0CF1020C0CFB01F1B1FBF2F202FBD5
:101B500003F3036004E04FF49053C0F27A03036090
:101B60004FF48052C4F202025168C1F3031140F2F3
:101B70002C03C2F20003595CD0F800C02CFA01F12A
:101B80004160D2F804C0CCF3022C13F80CC021FA47
:101B90000CFCC0F808C0D2F804C0CCF3C22C13F877
:101BA0000CC021FA0CF1C1605268C2F381321344B7
:101BB0001B7CB1FBF3F1016110BC704741B14FF4E4
:101BC0008053C4F202035A6940EA0200586107E0F8
:101BD0004FF48053C4F202035A6922EA00005861AC
:101BE000704700BF41B14FF48053C4F202039A69B9
:101BF00040EA0200986107E04FF48053C4F2020308
:101C00009A6922EA00009861704700BF41B14FF421
:101C10008053C4F20203DA6940EA0200D86107E0A7
:101C20004FF48053C4F20203DA6922EA0000D8615B
:101C3000704700BF41B14FF48053C4F202039A6A67
:101C400040EA0200986207E04FF48053C4F20203B6
:101C50009A6A22EA00009862704700BF41B14FF4CF
:101C60008053C4F20203DA6840EA0200D86007E059
:101C70004FF48053C4F20203DA6822EA0000D8600D
:101C8000704700BF41B14FF48053C4F202031A6998
:101C900040EA0200186107E04FF48053C4F20203E7
:101CA0001A6922EA00001861704700BF4FF4886388
:101CB000C4F24223186070474FF04C03C4F2422331
:101CC0001860704741F20703C4F2020318707047AE
:101CD0004FEA5013012B05D14FF48053C4F2020395
:101CE0001A680CE0022B03BF4FF48053C4F20203C6
:101CF0001A6A4FF480531CBFC4F202035A6A00F000
:101D00001F004FF0010303FA00F002420CBF002055
:101D10000120704710B582B04FF0000301934FF0DF
:101D200031042046FFF7D4FF019B03F10103019327
:101D3000019BB3F5A06F01D00028F2D04FF0310025
:101D4000FFF7C6FF003818BF012002B010BD00BF6A
:101D50004FF48053C4F202035A6A42F080725A620E
:101D6000704700BF4FF48053C4F202039B681842CF
:101D70000CBF00200120704741F20A03C4F20203A5
:101D80001870704708B54FF44053C4F201039842ED
:101D90000CD14FF480504FF00101FFF75FFF4FF47B
:101DA00080504FF00001FFF759FF24E04FF46053DB
:101DB000C4F2000398420CD14FF480404FF001016F
:101DC000FFF760FF4FF480404FF00001FFF75AFF2C
:101DD00011E04FF47053C4F2000398420BD14FF45A
:101DE00000404FF00101FFF74DFF4FF400404FF06E
:101DF0000001FFF747FF08BD028802F44152B1F825
:101E000002C00B884CEA0303B1F804C043EA0C0398
:101E1000B1F806C043EA0C03B1F808C043EA0C036A
:101E2000B1F80AC043EA0C03B1F80CC043EA0C0352
:101E3000B1F80EC043EA0C0342EA03039BB20380ED
:101E4000838B23F400634FEA03434FEA13438383F6
:101E50000B8A0382704700BFF0B587B005460C4679
:101E6000838B23F47A6323F01F034FEA03434FEA83
:101E7000134383834FF002010184868BB6B223891A
:101E8000022B04BF0022022371D0A788002F14BFA9
:101E9000022701274FF46053C4F20003984214BF95
:101EA0004FF480214FF400314FF48053C4F2020309
:101EB000DA6A114223D04FF48053C4F20203DB6A82
:101EC000C3F30333A3F10602082A98BF023302D9F1
:101ED0000F2B08BF14234FF48052C4F20202D16AC0
:101EE000C1F3031101F1010147F64002C0F27D1276
:101EF000B2FBF1F24FEA420203FB02F303E001A856
:101F0000FFF7C4FD019BE188B1F5007F0CD14FEADA
:101F1000132303EB83034FEA43032289B3FBF2F35A
:101F200003F105039BB20DE04FEA4717B3FBF7F748
:101F300007EB87074FEA47032289B3FBF2F303F16C
:101F400005039BB24CF6CD42CCF6CC42A2FB031368
:101F50004FEAD30303F001024FEA5303A3F1020156
:101F600089B2FD2999BF120292B20022022343EAEC
:101F70000203E28843EA02032B84238846EA030330
:101F800043F40063628843EA0203A28843EA02033F
:101F9000628943EA02039BB2AB8307B0F0BD00BF86
:101FA0004FF00003038043808380C380038143811B
:101FB0008381C3814FF00703038270474FF0000312
:101FC000038043808380C3804FF0020202814381FB
:101FD000704700BF29B103889BB243F040030380E0
:101FE00007E0038823F040034FEA03434FEA13431B
:101FF0000380704729B1838B9BB243F48063838352
:1020000007E0838B23F480634FEA03434FEA1343D3
:10201000838370474FEA11114FF0010303FA01F176
:1020200089B22AB183889BB241EA0301818004E02E
:1020300083889BB223EA0101818070472AB183889B
:102040009BB241EA0301818004E083889BB223EACA
:1020500001018180704700BF81817047808980B213
:10206000704700BF4FF6FF6399421FBF03889BB2C2
:1020700043F48073038001BF038823F480731B043F
:102080001B0C08BF0380704729B183889BB243F0C3
:102090000403838007E0838823F004034FEA0343AB
:1020A0004FEA134383807047038823F400634FEAA9
:1020B00003434FEA1343038003889BB241EA0301C1
:1020C0000180704703889BB243F4805303807047BC
:1020D00029B103889BB243F40053038007E00388CF
:1020E00023F400534FEA03434FEA1343038070473E
:1020F000012919BF008B80B2808A80B2704700BF6F
:10210000008A80B2704700BFB1F5804F01BF0388DD
:102110009BB243F4804303801FBF038823F48043B2
:102120001B041B0C18BF0380704700BF03891942B2
:102130000CBF0020012070476FEA010189B20181C4
:10214000704700BF83881FFA83FC028992B201F0B6
:102150000F034FF0010000FA03F31A4208BF0020FA
:1021600008D04FEA111100FA01F11CEA010F0CBF6F
:1021700000200120704700BF01F00F014FF0010364
:1021800003FA01F36FEA03039BB20381704700BFB8
:1021900008B54FF46053C4F2010398420CD14FF4D8
:1021A00080404FF00101FFF759FD4FF480404FF0A0
:1021B0000001FFF753FD4AE04FF48843C4F20003E7
:1021C00098420CD14FF400304FF00101FFF75AFD57
:1021D0004FF400304FF00001FFF754FD37E04FF4AB
:1021E0009043C4F2000398420CD14FF480204FF08A
:1021F0000101FFF747FD4FF480204FF00001FFF78A
:1022000041FD24E04FF49843C4F2000398420CD1FE
:102210004FF400204FF00101FFF734FD4FF4002090
:102220004FF00001FFF72EFD11E04FF4A043C4F280
:10223000000398420BD14FF480104FF00101FFF7DB
:1022400021FD4FF480104FF00001FFF71BFD08BD8A
:1022500030B587B004460D46038A23F440534FEA55
:1022600003434FEA1343CA8843EA02030382838984
:1022700023F4B05323F00C034FEA03434FEA134314
:102280000989AA8841EA0202698942EA010292B2F6
:1022900042EA03038381838A23F440734FEA0343B2
:1022A0004FEA1343AA8943EA0203838201A8FFF796
:1022B000EDFB4FF46053C4F201039C420CBF049940
:1022C000039901EB810101EB81012B684FEA830344
:1022D000B1FBF3F148F21F53C5F2EB13A3FB01026C
:1022E0004FEA52124FF0640002FB10114FEA011145
:1022F00001F13201A3FB0103C3F3431343EA0212CA
:1023000092B2228107B030BD4FF4165303604FF0F4
:1023100000038380C38003814FF00C0242818381DC
:10232000704700BF038A23F470634FEA03434FEA08
:102330001343B1F802C00A884CEA0202B1F804C0A3
:1023400042EA0C02C98842EA010292B242EA03035D
:10235000038270474FF00003038043808380C38073
:10236000704700BF29B183899BB243F40053838136
:1023700007E0838923F400534FEA03434FEA1343F2
:1023800083817047C1F3421301F01F014FF0010C2C
:102390000CFA01F1634508BF0C3003D0022B0CBFCF
:1023A0001030143022B1036843EA0101016003E0F8
:1023B000036823EA01010160704700BF2AB1838AE4
:1023C0009BB241EA0301818204E0838A9BB223EA43
:1023D00001018182704700BF038A23F00F034FEA97
:1023E00003434FEA13430382038A9BB241EA03018A
:1023F00001827047838923F400634FEA03434FEA65
:102400001343838183899BB241EA03018181704731
:1024100029B183899BB243F00203838107E083895A
:1024200023F002034FEA03434FEA134383817047CB
:10243000038A23F020034FEA03434FEA1343038246
:10244000038A9BB241EA03010182704729B1038AE2
:102450009BB243F48043038207E0038A23F4804362
:102460004FEA03434FEA1343038270474FEAC151D7
:102470004FEAD1518180704780884FEAC0504FEABF
:10248000D050704783899BB243F00103838170472A
:10249000038BDBB20383038B9BB243EA01210183ED
:1024A000704700BF038B03F47F430383038B9BB20E
:1024B00041EA03010183704729B1838A9BB243F04B
:1024C0002003838207E0838A23F020034FEA03433B
:1024D0004FEA13438382704729B1838A9BB243F04A
:1024E0001003838207E0838A23F010034FEA03433B
:1024F0004FEA13438382704729B1838A9BB243F02A
:102500000803838207E0838A23F008034FEA03432A
:102510004FEA134383827047838A23F004034FEA10
:1025200003434FEA13438382838A9BB241EA030148
:102530008182704729B1838A9BB243F00203838270
:1025400007E0838A23F002034FEA03434FEA134371
:1025500083827047038819420CBF00200120704716
:102560006FEA010189B20180704700BFC1F34213D5
:1025700001F01F024FF0010C0CFA02FC012B04D1F8
:10258000828992B20CEA02020AE0022B03BF028A9D
:1025900092B20CEA0202828A1CBF92B20CEA0202D8
:1025A0004FEA11214FF0010303FA01F103889BB2B6
:1025B00019420CBF00230123002A0CBF002003F0A6
:1025C000010070474FEA11214FF0010303FA01F3B4
:1025D0006FEA03039BB20380704700BF2DE9F0450B
:1025E00085B001F099F901F07BFA40F63043C2F270
:1025F0000003DB7913F0200F00F0A78072B64FF0D4
:102600003D0002F081FD40F26400C2F2000003F0E0
:10261000B9FC47F6A430C0F6000003F039FF02F021
:102620004BFE62B601F064F940F63043C2F200039B
:10263000DB7913F0200F00F0888072B64FF03D0078
:1026400002F062FD634803F09DFC634803F020FF45
:1026500002F032FE62B601F04BF940F63043C2F2AE
:102660000003DB7913F0200F6FD072B64FF03D00FE
:1026700002F04AFD594803F085FC594803F008FF71
:1026800002F01AFE62B601F033F940F63043C2F2AE
:102690000003DB7913F0200F57D072B64FF03D00E6
:1026A00002F032FD4F4803F06DFC4F4803F0F0FE9E
:1026B00002F002FE62B601F01BF940F63043C2F2AE
:1026C0000003DB7913F0200F3FD072B64FF03D00CE
:1026D00002F01AFD454803F055FC454803F0D8FECA
:1026E00002F0EAFD62B601F003F940F63043C2F2AF
:1026F0000003DB7913F0200F27D072B64FF03D00B6
:1027000002F002FD3B4803F03DFC3B4803F0C0FEF5
:1027100002F0D2FD62B601F0EBF840F63043C2F2AF
:102720000003DB7913F0200F0FD072B64FF03D009D
:1027300002F0EAFC314803F025FC314803F0A8FE22
:1027400002F0BAFD62B601F0D3F840F26404C2F2BE
:10275000000404F1C8004FF0070101F01DFE2046FF
:102760004FF050014FF0080201F0D2FD254F4FF01D
:1027700000042546DFF8648026464FF0050A05F17F
:102780000105EDB257F8040F04EB840208EB820256
:102790000096019602962946534601F0A9F904F1E4
:1027A0000104052DEBD147F69C43C0F600031868E1
:1027B0004FF000040094019402944FF00601054A82
:1027C0004FF0050301F094F901F0FEF9204605B041
:1027D000BDE8F085B4000020B47B0008C8000020EC
:1027E000C47B0008DC000020D87B0008F00000203B
:1027F000EC7B000804010020007C00081801002088
:10280000147C0008B87D0008F8B504460B88062B38
:1028100000F0FF80082B03D0052B40F0FF804EE036
:102820000D79042D03D800EB0503DB7F3BB147F6A0
:102830002840C0F600004FF05E0100F0E9FD48F2CC
:10284000F001C0F60001284600F01EFF05F101036B
:1028500046F26762C6F2666282FB03124FEA6202C8
:1028600002EB8202C2EB0303DBB204EB0302927EB3
:10287000F2B904EB0502927ED2B904EB05014FF0E8
:1028800001028A7623449A764FF006004FF0040145
:1028900001F0DCFC0571214601F086FD48F2FC01E7
:1028A000C0F60001284600F0EFFE4FF00000BCE04B
:1028B0002C444FF00103E3774FF00000B5E00D79B1
:1028C000042D03D800EB0503DB7F3BB147F628401E
:1028D000C0F600004FF0710100F09AFD48F20811B7
:1028E000C0F60001284600F0CFFE05F1010346F2D4
:1028F0006766C6F2666686FB03264FEA660606EB47
:102900008606C6EB0306F6B204EB05039B7E012B9D
:1029100004D104EB06039B7E012B07D047F6284029
:10292000C0F600004FF0760100F072FD04EB0502E6
:102930004FF00003937604EB0602937605F104034F
:1029400046F26767C6F2666787FB03174FEA6707B9
:1029500007EB8707C7EB0307FFB204EB0703DB7F37
:10296000F3B104EB07039B7ED3B904EB07034FF0ED
:1029700001029A762544AA764FF00002DA774FF0EA
:1029800006004FF0040101F061FC0771214601F0DF
:102990000BFD48F2FC01C0F60001384600F074FE61
:1029A00004EB0603DB7F4FF00000002B3DD006F167
:1029B000010346F26762C6F2666282FB03124FEAC7
:1029C000620202EB8202C2EB0303DBB204EB0302FE
:1029D000927E4FF0000042BB23444FF001029A76F2
:1029E00004EB06039A764FF00005DD774FF0060002
:1029F0004FF0040101F02AFC0671214601F0D4FCDD
:102A000048F2FC01C0F60001304600F03DFE2846C9
:102A10000BE001F069F84FF0000006E045F25D03BD
:102A2000C0F6000343604FF00300F8BD10B5044644
:102A300040F63043C2F20003DB7913F0200F12D0CE
:102A400072B64FF03D0002F05FFB40F26410C2F23C
:102A5000000003F097FA6F4803F01AFD02F02CFC17
:102A600062B600F045FF40F63043C2F20003DB7966
:102A700013F0400F48D072B64FF03E0002F044FB16
:102A800045F25D00C0F6000003F07CFA624803F0F6
:102A9000FFFC02F011FC62B600F02AFF40F6304362
:102AA000C2F20003DB7913F0400F2DD072B64FF065
:102AB0003E0002F029FB42F62D20C0F6000003F094
:102AC00061FA564803F0E4FC02F0F6FB62B600F04F
:102AD0000FFF40F63043C2F20003DB7913F0400FE2
:102AE00012D072B64FF03E0002F00EFB42F6090023
:102AF000C0F6000003F046FA494803F0C9FC02F0B2
:102B0000DBFB62B600F0F4FE40F63043C2F2000395
:102B1000DB7913F0100F6AD072B64FF03C0002F070
:102B2000F3FA4FF0050003F01FF94FF0000003F037
:102B300029FA3C4803F0ACFC02F0BEFB62B600F0A0
:102B4000D7FE40F63043C2F20003DB7913F0100FDA
:102B50004DD072B64FF03C0002F0D6FA4FF00400B0
:102B600003F002F94FF0000003F00CFA2E4803F0D6
:102B70008FFC02F0A1FB62B600F0BAFE40F63043D3
:102B8000C2F20003DB7913F0100F30D072B64FF0B1
:102B90003C0002F0B9FA4FF0060003F0E5F84FF000
:102BA000000003F0EFF9214803F072FC02F084FB0F
:102BB00062B600F09DFE40F63043C2F20003DB79BE
:102BC00013F0100F13D072B64FF03C0002F09CFAD5
:102BD0004FF0080003F0C8F8204603F0D3F914487A
:102BE00003F056FC02F068FB62B600F081FE20465E
:102BF0004FF0050101F0B4F920464FF0060101F055
:102C0000AFF942F60903C0F6000363604FF002001B
:102C100010BD00BF347C0008407C00084C7C0008DC
:102C20005C7C00086C7C0008787C0008807C0008D4
:102C3000907C000842F62D23C0F600034360094B48
:102C400003604FF000038376C377C37680F82030AB
:102C5000037780F82130437780F82230837780F83B
:102C600023307047D880000810B540F26414C2F2D7
:102C700000042046FFF7DEFF46F67D01C0F60001A6
:102C800040F20002C2F20002204603F063FE10BDD3
:102C900038B5064C40F28815C2F2000554F8303DB4
:102CA0001B6820469847AC42F8D138BD7802002016
:102CB00038B504460B8803F1FF33082B59D8DFE8F9
:102CC00003F0051158383858585830004FF00005B7
:102CD000C58500F11C0021464FF0140201F0ACFD47
:102CE00028464DE04FF006004FF0050101F0AEFA26
:102CF00040F28813C2F20003C3EB04034FEA23132C
:102D000003EB830202EB021202EB022202EB02420D
:102D100003EB42030371214601F046FB4FF0000034
:102D20002EE042F68553C0F6000343604FF00200E8
:102D300026E040F28813C2F20003C3EB00044FEA1E
:102D4000241404EB840303EB031304EB43040A7918
:102D500004F0FF04A24218BF002011D147F6A040A2
:102D6000C0F600004FF0A50100F052FB4FF000004C
:102D700006E045F25D03C0F6000343604FF0030038
:102D800038BD00BF10B503460A8802F1FF32082A99
:102D90003AD8DFE802F00539391919393939110003
:102DA0004FF00004DC8503F11C0019464FF032029D
:102DB00001F042FD20462EE042F61962C0F6000204
:102DC0005A604FF0020026E040F28812C2F2000280
:102DD000C2EB03034FEA231303EB830202EB02125D
:102DE00003EB4203097903F0FF03994218BF002067
:102DF00011D147F6A040C0F600004FF0750100F079
:102E000007FB4FF0000006E045F25D02C0F600024D
:102E10005A604FF0030010BD10B504460B88042B18
:102E200028D0052B41D0012B5FD14FF006004FF089
:102E3000080101F00BFA014640F28813C2F20003C8
:102E4000C3EB04034FEA231303EB830202EB0212EA
:102E500002EB022202EB024203EB4203037147F64C
:102E60009C43C0F600031868224600F033FF4FF081
:102E7000000041E040F28813C2F20003C3EB0003FC
:102E80004FEA231303EB830202EB021203EB42032C
:102E9000097903F0FF03994227D142F6B143C0F606
:102EA000000343604FF0020026E040F28813C2F2B4
:102EB0000003C3EB00044FEA241404EB840303EB88
:102EC000031304EB43040A7904F0FF04A24218BF81
:102ED000002011D147F6A040C0F600004FF08C0151
:102EE00000F096FA4FF0000006E045F25D03C0F6F0
:102EF000000363604FF0030010BD00BF10B504462F
:102F000040F28813C2F2000393F8F030002B40F037
:102F10006C8140F63043C2F20003DB7913F0200FDE
:102F200000F0EF8072B64FF03D0002F0EDF840F295
:102F30008810C2F2000003F025F8CE4803F0A8FA8A
:102F400002F0BAF962B600F0D3FC40F63043C2F2A8
:102F50000003DB7913F0200F00F0D38072B64FF03E
:102F60003D0002F0D1F8C44803F00CF8C34803F068
:102F70008FFA02F0A1F962B600F0BAFC40F63043D5
:102F8000C2F20003DB7913F0200F00F0BA8072B6B2
:102F90004FF03D0002F0B8F8B94802F0F3FFB9482D
:102FA00003F076FA02F088F962B600F0A1FC40F670
:102FB0003043C2F20003DB7913F0200F00F0A18050
:102FC00072B64FF03D0002F09FF8AF4802F0DAFF12
:102FD000AE4803F05DFA02F06FF962B600F088FCCB
:102FE00040F63043C2F20003DB7913F0200F00F00B
:102FF000888072B64FF03D0002F086F8A44802F0D7
:10300000C1FFA44803F044FA02F056F962B600F09A
:103010006FFC40F63043C2F20003DB7913F0200F5F
:103020006FD072B64FF03D0002F06EF89A4802F091
:10303000A9FF9A4803F02CFA02F03EF962B600F0BC
:1030400057FC40F63043C2F20003DB7913F0200F47
:1030500057D072B64FF03D0002F056F8904802F09B
:1030600091FF904803F014FA02F026F962B600F0DE
:103070003FFC40F63043C2F20003DB7913F0200F2F
:103080003FD072B64FF03D0002F03EF8864802F0A5
:1030900079FF864803F0FCF902F00EF962B600F001
:1030A00027FC40F63043C2F20003DB7913F0200F17
:1030B00027D072B64FF03D0002F026F87C4802F0AF
:1030C00061FF7C4803F0E4F902F0F6F862B600F024
:1030D0000FFC40F63043C2F20003DB7913F0200FFF
:1030E0000FD072B64FF03D0002F00EF8724802F0B9
:1030F00049FF724803F0CCF902F0DEF862B600F046
:10310000F7FB40F63043C2F20003DB7913F0400FC7
:1031100063D072B64FF03E0001F0F6FF42F6FD605C
:10312000C0F6000002F02EFF654803F0B1F902F08E
:10313000C3F862B600F0DCFB40F63043C2F2000395
:10314000DB7913F0400F48D072B64FF03E0001F02B
:10315000DBFF42F68550C0F6000002F013FF59482D
:1031600003F096F902F0A8F862B600F0C1FB40F651
:103170003043C2F20003DB7913F0400F2DD072B65A
:103180004FF03E0001F0C0FF42F61960C0F60000AB
:1031900002F0F8FE4C4803F07BF902F08DF862B6BD
:1031A00000F0A6FB40F63043C2F20003DB7913F0D7
:1031B000400F12D072B64FF03E0001F0A5FF42F66C
:1031C000B140C0F6000002F0DDFE404803F060F9B7
:1031D00002F072F862B600F08BFB40F28813C2F284
:1031E00000034FF0010283F8F02040F63043C2F2B2
:1031F0000003DB7913F0100F2FD072B64FF03C00B4
:1032000001F082FF4FF0080002F0AEFD204602F010
:10321000B9FE2F4803F03CF902F04EF862B600F018
:1032200067FB40F63043C2F20003DB7913F0100F66
:1032300013D072B64FF03C0001F066FF4FF009006A
:1032400002F092FD204602F09DFE224803F020F994
:1032500002F032F862B600F04BFB20464FF004015A
:1032600000F07EFE42F68553C0F6000363604FF027
:10327000020010BDAC7C0008A4010020B87C00084E
:10328000B8010020D07C0008D4010020DC7C0008BC
:10329000E8010020F47C000804020020007D000802
:1032A00018020020187D000834020020247D000848
:1032B000480200203C7D000864020020487D000890
:1032C000607D0008707D0008847D0008947D000802
:1032D000A47D0008B07D000810B5044642F6FD63E9
:1032E000C0F600034360044B40F81C3B4FF009015B
:1032F00001F088FA204610BD2081000838B540F260
:103300008814C2F2000404F1F0052046FFF7E4FF40
:1033100004F13004AC42F8D142F69141C0F600010C
:1033200040F20002C2F200024FF0000003F012FB74
:1033300038BD00BF10B582B046F66813C0F6000372
:103340001A6848F21F53C5F2EB13A3FB02134FEAAE
:103350005313B3F1807F16D223F07F4303F1FF3282
:103360004EF21003CEF200035A604FF46D42CEF2DB
:1033700000024FF0F00182F823104FF000029A6033
:103380004FF007021A604FF006038DF804304FF03B
:1033900000048DF805408DF806404FF001038DF8CC
:1033A000073001A8FDF768FF4FF46D43CEF200032C
:1033B0004FF0100283F823204FF46143CEF2000354
:1033C00083F8064302B010BD704700BF08B572B65F
:1033D0004FF00300FDF720F84FF00300FDF72CF845
:1033E00062B64FF48843C4F200031B8813F0800FC9
:1033F0000DD072B603F0ACF862B64FF6FF73984288
:103400001FBFC0B24FF48843C4F20003988008BDC8
:1034100072B6FEE708B5FFF7FBFF08BD82B04FF0BC
:1034200000030193019B03F1FF320192002BF9D1BC
:1034300002B070472DE9F04188B040F27C26C2F21C
:10344000000630464FF4006101F012FE4FF40030E8
:103450004FF00101FEF7DAFB4FF005004FF00101DC
:10346000FEF7C0FB4FF008004FF00101FEF756F9E0
:103470004FF02008ADF81C804FF003038DF81E308C
:103480004FF018078DF81F704FF4A054C4F20104D8
:1034900007AD20462946FEF795F84FF04003ADF8FA
:1034A0001C304FF004038DF81F3020462946FEF7EC
:1034B00089F84FF4E13301934FF00004ADF8084070
:1034C000ADF80A40ADF80C40ADF810404FF00801DF
:1034D000ADF80E104FF48845C4F20005284601A946
:1034E000FEF7B6FEADF81440ADF816404FF4007389
:1034F000ADF81830ADF81A40284605A9FEF712FFBE
:1035000028464FF00101FEF72DFF46F66813C0F67E
:1035100000031A6848F21F53C5F2EB13A3FB021312
:103520004FEA5313C6F80038C6F804384FF0FF00CE
:1035300001F0A6FD4FF00A0001F0C4FD4FF00B00B2
:1035400001F0C0FD4FF00C0001F0BCFD4FF00D008C
:1035500001F0B8FD4FF00E0001F0B4FD4FF00F0088
:1035600001F0B0FD4FF0100001F0ACFD4FF0110084
:1035700001F0A8FD4FF0120001F0A4FD4FF0130080
:1035800001F0A0FD4FF0140001F09CFD4FF015007C
:1035900001F098FD4FF0160001F094FD4FF0170078
:1035A00001F090FD384601F08DFD4FF0190001F05B
:1035B00089FD4FF01A0001F085FD4FF01C0001F06D
:1035C00081FD4FF01D0001F07DFD4FF01E0001F068
:1035D00079FD404601F076FD4FF0210001F072FDCB
:1035E0004FF0220001F06EFD4FF0230001F06AFD64
:1035F0004FF0240001F066FD4FF0250001F062FD60
:103600004FF0270001F05EFD4FF0280001F05AFD59
:103610004FF0290001F056FD4FF02A0001F052FD55
:103620004FF0340001F04EFD4FF0010008B0BDE84E
:10363000F08100BF704700BF4EF21003CEF20003CE
:103640001B6813F4803F0DD14EF21003CEF200033D
:103650009A6840F27C23C2F20003D3F80408C2EB5C
:1036600000000FE04EF21003CEF200039A6840F221
:103670007C23C2F20003D3F80008D3F804381844BE
:10368000C2EB0000704700BF38B504460D4600EBA2
:1036900040014FEA011101F150012A784FF0780002
:1036A000FDF7C4FB40F63043C2F200031B7A13F06F
:1036B000400F21D040F67043C2F200031A683AB1BD
:1036C00047F6BC53C0F6000353F824309A4213D196
:1036D00072B64FF0460001F017FDFFF7ADFF02F0A4
:1036E00051FC4FF01100214601F07CFE284602F00B
:1036F0005DFF01F0E1FD62B638BD00BF684620F015
:1037000007018D4619B572B640F69123C2F2000347
:103710001A7802F10102D2B21A7040F63043C2F2B6
:1037200000035B7913F0020F17D04FF0290001F06E
:10373000EBFCFFF781FF02F025FC40F69123C2F27B
:103740000003187802F08EFA40F24003C2F2000340
:10375000187802F087FA01F0AFFD62B64FF480638B
:10376000C4F201034FF001025A6147F69C43C0F6D0
:1037700000031C684FF004004FF0070100F066FDE5
:10378000014620464FF0000200F0A4FA72B640F65F
:103790003043C2F200035B7913F0040F17D04FF0EF
:1037A0002A0001F0B1FCFFF747FF02F0EBFB40F607
:1037B0009123C2F20003187802F054FA40F2400359
:1037C000C2F20003187802F04DFA01F075FD40F6E0
:1037D0009123C2F200031A7802F1FF32D2B21A70BA
:1037E0004EF60453CEF200034FF080521A6062B6D8
:1037F000BDE8194085467047684620F007018D46B0
:1038000001B572B640F69123C2F200031A7802F1B4
:103810000102D2B21A7040F63043C2F200035B7963
:1038200013F0020F17D04FF0290001F06DFCFFF7E5
:1038300003FF02F0A7FB40F69123C2F200031878C1
:1038400002F010FA40F24003C2F20003187802F0CE
:1038500009FA01F031FD62B64EF21003CEF2000318
:103860001B6840F27C20C2F20000D0F80028D0F89B
:1038700004381344C0F8043800F5006000F1080073
:1038800000F016FE72B640F63043C2F200035B79D8
:1038900013F0040F17D04FF02A0001F035FCFFF7AA
:1038A000CBFE02F06FFB40F69123C2F200031878C2
:1038B00002F0D8F940F24003C2F20003187802F097
:1038C000D1F901F0F9FC40F69123C2F200031A7815
:1038D00002F1FF32D2B21A704EF60453CEF2000358
:1038E0004FF080521A6062B6BDE8014085467047CD
:1038F00038B54FF6FF754FF48844C4F2000405E074
:10390000238813F0800FFBD0C0B2A08002F020FE0D
:10391000A842F5D138BD00BF10B582B0FCF79EFCBF
:103920004FF00000FCF752FD4FF00100FCF74EFD98
:103930004FF00200FCF74AFD4FF00300FCF746FD94
:103940004FF000048DF804404FF008038DF8053067
:103950004FF0010300938DF806306846FDF716FD21
:10396000FDF77CFC4FF6FF70FDF7A6FA4FF2DE7014
:10397000FCF778FE2046FCF767FE48F22812C0F6F6
:10398000000220462146FDF765FA48F24012C0F6D3
:1039900000024FF018002146FDF75CFA48F2581279
:1039A000C0F600024FF030002146FDF753FA00F058
:1039B00061FB02464FF030004FF0E001FDF74AFA9C
:1039C0004FF6FF70FCF74EFE48F27012C0F6000290
:1039D0004FF078002146FDF73DFA2046FCF742FE05
:1039E0004FF6E070FCF730FE48F27812C0F60002A5
:1039F0004FF0D8002146FDF72DFA4FF01F00FCF7DD
:103A000031FE4FF6FF70FCF71FFE48F29012C0F631
:103A100000024FF078004FF04001FDF71BFA2046FE
:103A2000FFF708FD38B947F6D050C0F600004FF058
:103A30007A01FFF7EDFC40F63043C2F20003DB7978
:103A400013F0200F0FD072B64FF03D0001F05CFB79
:103A5000064802F097FA064802F01AFD01F02CFC25
:103A600062B6FFF745FF02B010BD00BF840A002018
:103A7000D87D000808B547F6EC50C0F600004FF0BE
:103A80002401FFF7C5FC4FF0000008BD08B547F65C
:103A9000EC50C0F600004FF02901FFF7B9FC08BD5B
:103AA00008B547F6EC50C0F600004FF02D01FFF7C7
:103AB000AFFC4FF0000008BD08B5FFF7DBFF08BD05
:103AC00008B5FFF7E3FF08BD704700BF704700BFB0
:103AD000704700BF47F6F850C0F60000704700BFBF
:103AE00008B502F009FF08BD08B5FFF76DFC08BD79
:103AF000F8B504460D4617461E4601F1FF33DBB20A
:103B00003E2B04D913484FF07001FFF781FC04F1FC
:103B10000800F2B2394600F081FA2576204600F01E
:103B2000AFFA079BD3F1010338BF0023069A002A9E
:103B300014BF002303F0010323B906484FF07A01B4
:103B4000FFF766FC2046089900F0DAFEFFF7D0FE8A
:103B5000F8BD00BF007E000808B500F0D1FA08BD2E
:103B600040F68823C2F200031B78002B24D040F6D5
:103B70008822C2F20002117847F63463C0F60003CF
:103B8000585C00F1FF30C0B2024452789B5C03EBFA
:103B9000C000C0B240F24003C2F200031B7883426F
:103BA00028BF002007D240F69423C2F200031B78FE
:103BB000834228BF0020704740F24003C2F2000356
:103BC0001B784FF00000F6E708B572B64FF0000220
:103BD000064B1A70FFF7C4FF08B100F009F8FFF7B1
:103BE000A9FB62B6FFF7F2FBFCE700BF4000002034
:103BF0002DE9F04F83B0044640F24003C2F20003C7
:103C000093F800B05FFA8BF2009240F69827C2F268
:103C10000007984640F6304AC2F2000A40F6604378
:103C2000C2F20003019340F68826C2F2000647F66E
:103C30003469C0F6000957F8245088F800409AF813
:103C4000063013F0100F14D0019A13680BB19D4287
:103C50000FD14FF0340001F057FAFFF7EDFC02F0FE
:103C600091F9204601F0FEFF009801F0FBFF01F002
:103C700023FB62B6284600F0B7F8044628462146E2
:103C800000F0FCFE204600F07DFA72B63378BBB13E
:103C9000337819F8034004F1FF34E4B206EB04036F
:103CA0005B7819F8033003EBC404E4B2009BA34231
:103CB00006D240F69423C2F200031B78A342BAD383
:103CC00040F24003C2F2000383F800B003B0BDE845
:103CD000F08F00BF70B504460D46164672B640F62A
:103CE0003043C2F200035B7813F0400F26D040F659
:103CF0006043C2F200031B680BB183421ED14FF038
:103D00000E0001F001FAFFF797FC02F03BF9304694
:103D100002F038F9288802F027F8204602F032F93C
:103D2000A87801F09FFFE87801F09CFFE07C01F0AB
:103D300099FF207D01F096FF01F0BEFAAB781BB130
:103D4000EB7803F10103EB70A3685BBBA560217EF8
:103D500047F6D873C0F60003585C40F68823C2F2D9
:103D600000031C7847F65072C0F6000200F1010C07
:103D70005FFA8CFC12F80CC044EA0C0C83F800C00B
:103D800003445878525C40EA02025A7040F691238C
:103D9000C2F200031B7823BBFFF7E2FE08B3FFF774
:103DA00027FF1EE0E37C3BB947F60460C0F6000045
:103DB0004FF04B01FFF72CFB627CE36843F8225085
:103DC000637C0BB9237C6374637C03F1FF336374FE
:103DD000E37C03F1FF33DBB2E374227D9A4288BFB8
:103DE000237562B670BD00BF38B5044672B68368ED
:103DF0003BB947F60C60C0F600004FF03101FFF709
:103E000007FBA568E37C227C934237D0A17CE06865
:103E100050F82100A06001B9A274A27C02F1FF3227
:103E2000A27403F10103E37440F63043C2F20003CD
:103E30009B7813F0010F71D040F66043C2F200038B
:103E40001B680BB19C4269D14FF0100001F05CF986
:103E5000FFF7F2FB02F096F8288801F085FF204674
:103E600002F090F8A87801F0FDFEE87801F0FAFE83
:103E7000E07C01F0F7FE01F01FFA4FE04FF0000385
:103E8000A360217E47F6D873C0F60003585C40F665
:103E90008823C2F20003034493F801C047F69472EA
:103EA000C0F60002525C0CEA02025A705B787BB9E1
:103EB00040F68823C2F20003197847F69472C0F6E0
:103EC000000200F10100C0B2125C01EA02021A70A5
:103ED00040F63043C2F200039B7813F0020F1DD06E
:103EE00040F66043C2F200031B680BB19C4215D13F
:103EF0004FF0110001F008F9FFF79EFB02F042F8C5
:103F0000288801F031FF204602F03CF8A87801F043
:103F1000A9FEE87801F0A6FE01F0CEF962B62846C7
:103F200038BD00BF10B504463F2806D840F6982398
:103F3000C2F2000353F820303BB947F60C60C0F6DC
:103F400000004FF05A01FFF763FA72B662B640F60E
:103F50009823C2F2000353F82430187D10BD00BF2F
:103F6000F8B507460D46047E032917D940F61C43D1
:103F7000C2F200031A88231E18BF01238A4294BF8D
:103F8000002303F001034BB13F2C07D840F69823E0
:103F9000C2F2000353F82430834207D047F614607E
:103FA000C0F600004FF02F01FFF732FA47F6D87342
:103FB000C0F600031E5D72B640F63043C2F2000345
:103FC0005B7813F0100F17D040F66043C2F2000385
:103FD0001B680BB19F420FD14FF00C0001F094F819
:103FE000FFF72AFB01F0CEFF284601F0BDFE384660
:103FF00001F0C8FF01F060F940F61843C2F2000377
:104000001B6803EBC50547F65073C0F60003AA5DB5
:104010001B5D42EA0303AB5562B6F8BD38B50D46E9
:1040200014464FF0000303604160027243728372D2
:10403000C272027340F63043C2F200039B7813F061
:10404000040F15D040F66843C2F200031B680BB1A1
:1040500098420DD172B64FF0120001F055F8284683
:1040600001F090FF204601F0FDFD01F025F962B658
:1040700038BD00BF47F61C60C0F60000704700BFA7
:1040800038B50546047E04F1FF33DBB23E2B06D87B
:1040900040F69823C2F2000353F8243023B11748A6
:1040A0004FF04101FFF7B4F972B640F69823C2F21F
:1040B000000343F8245040F63043C2F200035B781B
:1040C00013F0040F17D040F66043C2F200031B68E0
:1040D0000BB19D420FD14FF00A0001F015F8FFF728
:1040E000ABFA01F04FFF284601F04CFF204601F0EB
:1040F000B9FD01F0E1F862B638BD00BF247E0008CA
:1041000038B50546047E04F1FF33DBB23E2B07D8F9
:1041100040F69823C2F2000353F82430834204D0BF
:1041200017484FF05501FFF773F972B640F6982320
:10413000C2F200034FF0000243F8242040F630435F
:10414000C2F200035B7813F0080F17D040F660430B
:10415000C2F200031B680BB19D420FD14FF00B0060
:1041600000F0D2FFFFF768FA01F00CFF284601F0DB
:1041700009FF204601F076FD01F09EF862B638BDD9
:10418000247E000838B504468578002D5CD072B6D0
:10419000C378012B1FD903F1FF33C37040F63043BE
:1041A000C2F20003DB7813F0200F12D04FF01D0095
:1041B00000F0AAFFFFF740FA01F0E4FE208801F0CA
:1041C000D3FDA07801F04EFDE07801F04BFD01F049
:1041D00073F862B638E005F1FF35EDB240F63043D2
:1041E000C2F20003DB7813F0400F12D04FF01E0034
:1041F00000F08AFFFFF720FA01F0C4FE208801F0EA
:10420000B3FDA07801F02EFDE07801F02BFD01F068
:1042100053F862B640F69C33C2F200031B78AB42FF
:1042200007D847F62C60C0F600004FF04701FFF7B3
:10423000EFF805EB850540F6A033C2F2000303EB6F
:104240008500214600F09EFA38BD00BF2DE9F84FE9
:1042500006468B464FF0000440F6A037C2F2000736
:1042600040F69C38C2F2000847F6347AC0F6000ADD
:104270004FF02F090AE004F10104E4B298F800308D
:10428000A34203D850464946FFF7C2F8254604EB3F
:10429000840307EB83039B89B342ECD340F630439E
:1042A000C2F20003DB7813F0100F11D072B64FF09A
:1042B0001C0000F029FFFFF7BFF901F063FE304654
:1042C00001F052FD584601F04FFD00F0F5FF62B6D7
:1042D00005EB850540F6A033C2F2000303EB850031
:1042E00000F076F9054638B947F63470C0F600009C
:1042F0004FF03B01FFF78CF8A5F800B004F1010482
:10430000AC704FF00003EB702846BDE8F88F00BF9B
:10431000F8B506460F46154640F69C33C2F2000338
:104320001B78052B07D947F63C70C0F600004FF00C
:104330003101FFF76DF840F69C33C2F200031B78A1
:10434000A3B140F69C32C2F2000203F1FF3303EB4B
:10435000830302EB8302138AAB4207D347F63C7018
:10436000C0F600004FF03401FFF752F840F69C34DD
:10437000C2F2000404F10402237803EB830302EB8E
:10438000830031463A462B4600F07AF9237803F150
:1043900001032370F8BD00BF40F61843C2F20003CA
:1043A00018609980704700BF2DE9F04F83B0074631
:1043B0008A4640F61C43C2F2000302881B889A42D8
:1043C00007D347F64470C0F600004FF03001FFF706
:1043D0001FF872B640F63043C2F20003DB7813F0E8
:1043E000040F15D04FF01A0000F08EFEFFF724F9ED
:1043F00001F0C8FD504601F0C5FD388801F0B4FC5D
:10440000B87801F02FFCF87801F02CFC00F054FF94
:10441000BB781BB1FB7803F10103FB7062B64FF070
:104420000802009247F63469C0F6000947F6947B0B
:10443000C0F6000B40F69826C2F20006009A02F180
:10444000FF33DBB200933A8840F61843C2F2000310
:104450001B6803EBC203009A9C5C04B34FEAC208DA
:104460005FFA88F847F64473C0F60003019319F821
:1044700004501BF8053004EA03044544EDB256F835
:10448000253023B901984FF05501FEF7C1FF56F8CA
:10449000250039465246FFF71DFC002CE7D1009B52
:1044A000002BCBD13846FFF76DFE03B0BDE8F08F8F
:1044B0002DE9F047804672B640F63043C2F2000361
:1044C00093F90330002B11DA4FF01F0000F01CFEAF
:1044D00040F67443C2F200031A6802F101021A6046
:1044E000186880B201F040FC00F0E6FE40F624437C
:1044F000C2F200031C68002C66D040F63045C2F2C0
:10450000000540F66C49C2F200091F464FF0000654
:1045100040F6204AC2F2000A238A03F1FF339BB21D
:104520002382002B49D1638A0BB1238222E03B68AE
:104530009C4202D1A3683B6006E0A3680BB16268AD
:104540005A606368A2689A6066602B7913F0020F64
:1045500010D0D9F800300BB19C420BD14FF02100A4
:1045600000F0D2FD204601F00DFDE06801F00AFDEB
:1045700000F0A2FE2B7913F0200F17D0D9F80030ED
:104580000BB19C4212D14FF0250000F0BDFDFFF7AA
:1045900053F801F0F7FC204601F0F4FC208801F00C
:1045A000E3FBE06801F0EEFC00F086FE62B6E06836
:1045B00021464246FFF78EFB02E062B68AF80060B1
:1045C00072B6A468002CA7D162B6BDE8F08700BF20
:1045D00038B5044672B6856855B12B688360038A86
:1045E00003F1FF339BB20382428A9A4288BF43821F
:1045F00040F63043C2F20003DB7813F0010F1BD00A
:1046000040F66443C2F200031B6813B12268934270
:1046100012D14FF0180000F077FDFFF70DF801F010
:10462000B1FC206801F0AEFC208A01F09DFB608A9D
:1046300001F09AFB00F040FE62B6284638BD00BF8C
:1046400010B5044630B140F69C33C2F200031B782B
:10465000834207D248F21C00C0F600004FF043012D
:10466000FEF7D6FE72B662B640F6A033C2F2000381
:1046700004F1FF3404EB840403EB8403588A10BD77
:104680002DE9F04104460F4690461E46032A94BF8A
:104690000023012300290CBF002303F0010323B1F1
:1046A00006F104039BB29E4207D348F22400C0F6F1
:1046B00000004FF03101FEF7ABFEA7604FF004039E
:1046C000A381042E9CBF042301250BD94FF00403C2
:1046D0004FF0010503F104039BB205F101059E4271
:1046E000F8D8A3811E46984507D248F22400C0F6A8
:1046F00000004FF03F01FEF78BFEC6EB08084FF0BD
:104700000103E381A26846459EBFAD007142C6EB3E
:10471000080801D90CE01A4602EB05031360E28990
:1047200002F10102E281884418EB060FF3D300E0A6
:1047300013464FF000021A60E289228262822760EB
:10474000636040F63043C2F2000393F90230002B5D
:1047500015DA40F66443C2F200031B680BB19F42B6
:104760000DD172B64FF0170000F0CEFC206801F0BA
:1047700009FCE08901F0F8FA00F09EFD62B6BDE8A0
:10478000F08100BF38B504460D4603688B4206D859
:104790004368994203D8028AC3899A4207D948F2EA
:1047A0003000C0F600004FF02D01FEF731FE72B66A
:1047B000A3682B60A560238A03F10103238240F6DE
:1047C0003043C2F20003DB7813F0020F18D040F63A
:1047D0006443C2F200031B6813B1226893420FD1F5
:1047E0004FF0190000F090FCFEF726FF01F0CAFB25
:1047F000206801F0C7FB208A01F0B6FA00F05CFDEA
:1048000062B638BD38B504460D464FF0000343602C
:104810008360C36003824382032907D848F23800CB
:10482000C0F600004FF03501FEF7F2FD25804FF095
:104830000003A370204638BD70B504460E461546E9
:1048400062B10388032B09D942680B1E18BF0123EC
:10485000002A14BF002303F001033BB948F24400CF
:10486000C0F600004FF03101FEF7D2FD25826460F2
:10487000E66072B640F63043C2F200031B7913F0D3
:10488000010F1DD040F66C43C2F200031B680BB150
:104890009C4215D14FF0200000F036FCFEF7CCFE14
:1048A00001F070FB204601F06DFB304601F06AFB21
:1048B000284601F059FA608A01F056FA00F0FCFC33
:1048C00040F62443C2F200031B68A36003B15C609E
:1048D00040F62443C2F200031C6062B670BD00BF04
:1048E000014B0360704700BF5880000810B50446B4
:1048F000FFF7F6FF2046FFF7E3F8204610BD00BFA4
:104900002DE9F04F87B0054643689847022804D048
:1049100057484FF03201FEF77BFD45F25D06C0F6C9
:10492000000640F6304AC2F2000A40F65C49C2F284
:10493000000948F28407C0F600079AF8003013F027
:10494000080F15D0D9F800300BB19D4210D172B6C6
:104950004FF0030000F0D8FB284601F013FB30466F
:1049600001F010FB686801F00DFB00F0A5FC62B6D9
:104970006B6800932846394698476B689E426FD013
:104980004FF0000404F10104E4B262B206A901EBA5
:10499000820242F8183C2846394698476B689E4286
:1049A000F0D1009B6B6063B2052B04DD30484FF003
:1049B0004901FEF72DFDDFF8BC804FF0010B63B21B
:1049C00006AA02EB830353F8186C28464146B04709
:1049D000B0B99AF8003013F0020F11D0D9F80030B6
:1049E0000BB19D420CD172B6584600F08DFB2846A3
:1049F00001F0C8FA304601F0C5FA00F05DFC62B67D
:104A000004F1FF34E4B214F0800FD8D0009E2846A1
:104A10001949B047022890D06E6040F63043C2F288
:104A200000031B7813F0100F1FD040F65C43C2F256
:104A300000031B680BB19D4217D172B64FF0040002
:104A400000F062FBFEF7F8FD01F09CFA284601F049
:104A500099FA686801F096FA00F02EFC62B604E05C
:104A6000009B6B604FF00004A5E707B0BDE8F08F36
:104A70006080000888800008908000082DE9F04FD1
:104A800089B005468B46466840F63043C2F20003C3
:104A90005B7813F0010F1DD040F65C43C2F20003B7
:104AA0001B680BB1984215D172B64FF0080000F0A8
:104AB0002BFBFEF7C1FD01F065FABBF8000001F029
:104AC00053F9284601F05EFA304601F05BFA00F037
:104AD000F3FB62B66C6828465946A0470328F9D014
:104AE000A246022840F051826B6802930396A642C8
:104AF0002ED0DFF84C4540F63047C2F2000748F2AE
:104B00008408C0F6000840F65C49C2F20009284655
:104B10002146B047C8B93B7813F0040F12D0D9F83A
:104B200000300BB19D420DD172B64FF0020000F083
:104B3000EBFA284601F026FA304601F023FA00F09D
:104B4000BBFB62B628464146B0476E68B245DED12F
:104B5000029CA24523D12846DFF8E414D047002860
:104B600040F06682DFF8DC341B7813F0040F00F0AD
:104B70005F82DFF8D4341B6813B19D4240F0588245
:104B800072B64FF0020000F0BFFA284601F0FAF9C1
:104B9000504601F0F7F900F08FFB62B648E248F2A8
:104BA0008401C0F600012846A0476E68B24500F0B7
:104BB0003F8248F28401C0F600012846D0476F6862
:104BC000B74223D12846DFF87814D047002840F0B8
:104BD0002F82DFF870341B7813F0040F00F0288266
:104BE000DFF864341B6813B19D4240F0218272B635
:104BF0004FF0020000F088FA284601F0C3F9504651
:104C000001F0C0F900F058FB62B611E2BC4228D1B5
:104C10002846DFF82C14D047002840F00081DFF848
:104C200024341B7813F0040F00F0F980DFF81834F7
:104C30001B6813B19D4240F0F28072B64FF0020043
:104C400000F062FA284601F09DF9504601F09AF909
:104C500000F032FB62B6E2E014F0800F00F0AC80AE
:104C6000DDE0039648F28401C0F600012846B04713
:104C7000032802BF012448F28408C0F6000801D0CE
:104C800027E0344604F10106F6B26B6872B208A957
:104C900001EB820242F8183C9A450BD176B2052E00
:104CA000DADD48F27000C0F600004FF07C01FEF73C
:104CB000AFFBD1E72846414698470328E1D0344668
:104CC00076B2052E07DDE1484FF08701FEF7A0FB25
:104CD00001E04FF001042846D949D047D0B940F649
:104CE0003043C2F200031B7813F0040F12D0D64BEE
:104CF0001B680BB19D420DD172B64FF0020000F05F
:104D000003FA284601F03EF9504601F03BF900F065
:104D1000D3FA62B623465AB208A901EB820252F8CE
:104D2000182C974203D103F1FF33DCB294E703F16F
:104D3000FF33DBB213F0800FEDD0C14EDFF80493E8
:104D4000A04628463146B847E8B999F8003013F034
:104D5000040F15D040F65C42C2F2000213680BB19A
:104D60009D420DD172B64FF0020000F0CDF92846F9
:104D700001F008F9384601F005F900F09DFA62B635
:104D80002846B349B8476F6843465AB208A901EBB1
:104D9000820252F8182CBA4203D103F1FF33DCB27D
:104DA0005AE703F1FF33DBB213F0800FEDD04FF081
:104DB0000102002AC5D14FE7A64F40F63048C2F2A3
:104DC000000840F65C49C2F200092E4663B208A909
:104DD00001EB830353F8185C30463946A847B8B94D
:104DE00098F8003013F0020F12D0D9F800300BB150
:104DF0009E420DD172B64FF0010000F085F93046A9
:104E000001F0C0F8284601F0BDF800F055FA62B68E
:104E100004F1FF34E4B214F0800FD7D03546029E7F
:104E20006E6040F63049C2F2000940F65C431C4611
:104E3000C2F20004DFF81C82CDF804A0A24672E0A2
:104E400099F8003013F0080F15D0DAF800300BB1E4
:104E50009D4210D172B64FF0030000F055F928467C
:104E600001F090F8304601F08DF8686801F08AF89A
:104E700000F022FA62B66B68029348F28401C0F631
:104E80000001284698476B689E4200F0D4804FF09E
:104E9000000448F28407C0F6000704F10104E4B2FC
:104EA00062B208A901EB820242F8183C2846394652
:104EB00098476B689E42F0D1029B6B6063B2052BF2
:104EC00007DD48F27000C0F600004FF0DB01FEF78E
:104ED0009FFA4FF0010763B208AA02EB830353F86D
:104EE000186C28464146B047B0B999F8003013F025
:104EF000020F11D0DAF800300BB19D420CD172B61E
:104F0000384600F001F9284601F03CF8304601F03F
:104F100039F800F0D1F962B604F1FF34E4B214F0CC
:104F2000800FD8D0029E28464B49B047022887D030
:104F3000DDF804A0344640F63043C2F200031B788B
:104F400013F0400F70D040F65C43C2F200031B68C0
:104F50000BB19D4268D172B64FF0060000F0D4F854
:104F6000FEF76AFB01F00EF8BBF8000000F0FCFE53
:104F7000284601F007F8504601F004F8204601F0F9
:104F800001F800F099F962B64EE0012826D140F60A
:104F90003043C2F2000393F90030002B44DA40F6AC
:104FA0005C43C2F200031B680BB19D423CD172B658
:104FB0004FF0070000F0A8F8FEF73EFB00F0E2FF1C
:104FC000BBF8000000F0D0FE284600F0DBFF3046C2
:104FD00000F0D8FF00F070F962B625E040F63043EB
:104FE000C2F200031B7813F0200F1DD040F65C4383
:104FF000C2F200031B680BB19D4215D172B64FF08F
:10500000050000F081F8FEF717FB00F0BBFFBBF8CE
:10501000000000F0A9FE284600F0B4FF504600F062
:10502000B1FF00F049F962B66E6009B0BDE8F08FDB
:105030004FF00004C0E6029B6B604FF0000448E7AD
:105040008C800008300C00205C0C00207080000870
:105050008480000888800008908000084FF00100DC
:10506000704700BF48F29400C0F60000704700BFD0
:1050700040F62843C2F2000318609980704700BFD1
:10508000FF280ED140F62841C2F2000101F10703CA
:1050900001F127014FF0FF0203F8012F8B42FBD1F2
:1050A0000FE040F62843C2F2000303EBE00300F0F8
:1050B00007004FF0010202FA00F01A7A40EA0200FB
:1050C00018727047FF280ED140F62841C2F2000145
:1050D00001F1070301F127014FF0000203F8012F4E
:1050E0008B42FBD10FE040F62843C2F2000303EBF2
:1050F000E00300F007004FF0010202FA00F01A7A14
:1051000022EA00001872704740F62843C2F20003FA
:1051100093F8282002F10102D2B283F8282083F804
:105120002920A2F17D03DBB2012B3ED840F62843B3
:10513000C2F200035A8D19684FF07D0C01F802C0CD
:105140005A8D02F1010292B25A859B88934201BFA7
:1051500040F62843C2F2000300225A8540F6284355
:10516000C2F200039A8D02F101029A855A8D1968E4
:1051700093F828C08CF0200C01F802C05A8D02F17F
:10518000010292B25A859B88934201BF40F62843A0
:10519000C2F2000300225A8540F62843C2F20003FF
:1051A0009A8D02F101029A851EE040F62843C2F270
:1051B0000003598DD3F800C00CF801205A8D02F17C
:1051C000010292B25A859B88934201BF40F6284360
:1051D000C2F2000300225A8540F62843C2F20003BF
:1051E0009A8D02F101029A8540F62843C2F200032B
:1051F00093F82920024483F82920A0F17D03DBB233
:10520000012B3BD840F62843C2F200035A8D19689F
:105210004FF07D0C01F802C05A8D02F1010292B2EA
:105220005A859B88934201BF40F62843C2F200038F
:1052300000225A8540F62843C2F200039A8D02F1FB
:1052400001029A855A8D196880F0200088545A8D81
:1052500002F1010292B25A859B88934201BF40F647
:105260002843C2F2000300225A8540F62843C2F2C6
:1052700000039A8D02F101029A851CE040F6284352
:10528000C2F200035A8D196888545A8D02F1010246
:1052900092B25A859B88934201BF40F62843C2F2DE
:1052A000000300225A8540F62843C2F200039A8D7B
:1052B00002F101029A85704740F62843C2F20003CA
:1052C00093F829206FEA0202D2B283F82920A2F1D2
:1052D0007D03DBB2012B3CD840F62843C2F2000329
:1052E0005A8D19684FF07D0088545A8D02F10102E1
:1052F00092B25A859B88934201BF40F62843C2F27E
:1053000000030021598540F62843C2F200039A8D1C
:1053100002F101029A855A8D196893F8290080F0EC
:10532000200088545A8D02F1010292B25A859B885E
:10533000934201BF40F62843C2F2000300225A857F
:1053400040F62843C2F200039A8D02F101029A85C9
:105350001CE040F62843C2F20003598D18684254FD
:105360005A8D02F1010292B25A859B88934201BF85
:1053700040F62843C2F200030021598540F6284335
:10538000C2F200039A8D02F101029A8540F6284389
:10539000C2F200035A8D19684FF07E008854598D6F
:1053A00001F1010189B259859A88914201BF40F605
:1053B0002843C2F200030021598540F62843C2F277
:1053C0000003998D01F1010189B299858A423FBF9D
:1053D00040F62843C2F20003598DD98538BF9A851B
:1053E000704700BF10B440F62843C2F2000393F8A0
:1053F0002920024483F82920A0F17D03DBB2012B90
:105400003ED840F62843C2F200035A8DD3F800C0BC
:105410004FF07D040CF802405A8D02F1010292B265
:105420005A859B88934201BF40F62843C2F200038D
:1054300000225A8540F62843C2F200039A8D02F1F9
:1054400001029A855A8DD3F800C080F020000CF834
:1054500002005A8D02F1010292B25A859B88934252
:1054600001BF40F62843C2F2000300225A8540F6ED
:105470002843C2F200039A8D02F101029A851EE0D0
:1054800040F62843C2F200035A8DD3F800C00CF84E
:1054900002005A8D02F1010292B25A859B88934212
:1054A00001BF40F62843C2F2000300225A8540F6AD
:1054B0002843C2F200039A8D02F101029A8540F658
:1054C0002843C2F2000393F829200A4483F82920D4
:1054D000A1F17D03DBB2012B3BD840F62843C2F299
:1054E00000035A8D18684FF07D0C00F802C05A8DE9
:1054F00002F1010292B25A859B88934201BF40F6A5
:105500002843C2F2000300225A8540F62843C2F223
:1055100000039A8D02F101029A855A8D186881F074
:10552000200181545A8D02F1010292B25A859B8862
:10553000934201BF40F62843C2F2000300225A857D
:1055400040F62843C2F200039A8D02F101029A85C7
:105550001CE040F62843C2F200035A8D18688154BB
:105560005A8D02F1010292B25A859B88934201BF83
:1055700040F62843C2F2000300225A8540F6284331
:10558000C2F200039A8D02F101029A8510BC7047A5
:1055900010B440F62843C2F2000393F829200244D5
:1055A00083F82920A0F17D03DBB2012B3ED840F621
:1055B0002843C2F200035A8DD3F800C04FF07D0497
:1055C0000CF802405A8D02F1010292B25A859B8872
:1055D000934201BF40F62843C2F2000300225A85DD
:1055E00040F62843C2F200039A8D02F101029A8527
:1055F0005A8DD3F800C080F020000CF802005A8DBC
:1056000002F1010292B25A859B88934201BF40F693
:105610002843C2F200030020588540F62843C2F216
:1056200000039A8D02F101029A851EE040F628439C
:10563000C2F200035A8DD3F800C00CF802005A8D54
:1056400002F1010292B25A859B88934201BF40F653
:105650002843C2F2000300225A8540F62843C2F2D2
:1056600000039A8D02F101029A85CAB240F62843DE
:10567000C2F2000393F82900104483F82900A2F134
:105680007D03DBB2012B3ED840F62843C2F2000373
:10569000588DD3F800C04FF07D040CF80040588DB1
:1056A00000F1010080B258859B88834201BF40F61B
:1056B0002843C2F200030020588540F62843C2F276
:1056C0000003988D00F101009885588DD3F800C033
:1056D00082F020020CF800205A8D02F1010292B2F1
:1056E0005A859B88934201BF40F62843C2F20003CB
:1056F00000225A8540F62843C2F200039A8D02F137
:1057000001029A851EE040F62843C2F20003588D3C
:10571000D3F800C00CF800205A8D02F1010292B2B9
:105720005A859B88934201BF40F62843C2F200038A
:105730000020588540F62843C2F200039A8D02F1FA
:1057400001029A854FEA1121CAB240F62843C2F2FB
:10575000000393F82900104483F82900A2F17D0387
:10576000DBB2012B3BD840F62843C2F20003598D2F
:1057700018684FF07D0C00F801C0598D01F101014E
:1057800089B259859B888B4201BF40F62843C2F2FB
:1057900000030021598540F62843C2F20003998D89
:1057A00001F101019985598D186882F02002425457
:1057B0005A8D02F1010292B25A859B88934201BF31
:1057C00040F62843C2F2000300225A8540F62843DF
:1057D000C2F200039A8D02F101029A851CE040F6A4
:1057E0002843C2F200035A8D186881545A8D02F181
:1057F000010292B25A859B88934201BF40F628432A
:10580000C2F200030020588540F62843C2F200038C
:105810009A8D02F101029A8510BC704710B440F6CF
:105820002843C2F2000393F82920024483F8292078
:10583000A0F17D03DBB2012B3ED840F62843C2F233
:1058400000035A8DD3F800C04FF07D040CF80240DD
:105850005A8D02F1010292B25A859B88934201BF90
:1058600040F62843C2F2000300225A8540F628433E
:10587000C2F200039A8D02F101029A855A8DD3F883
:1058800000C080F020000CF802005A8D02F10102E5
:1058900092B25A859B88934201BF40F62843C2F2D8
:1058A00000030020588540F62843C2F200039A8D79
:1058B00002F101029A851EE040F62843C2F200037D
:1058C0005A8DD3F800C00CF802005A8D02F1010283
:1058D00092B25A859B88934201BF40F62843C2F298
:1058E000000300225A8540F62843C2F200039A8D35
:1058F00002F101029A85CAB240F62843C2F20003BF
:1059000093F82900104483F82900A2F17D03DBB24B
:10591000012B3ED840F62843C2F20003588DD3F83D
:1059200000C04FF07D040CF80040588D00F10100DC
:1059300080B258859B88834201BF40F62843C2F25B
:1059400000030020588540F62843C2F20003988DDA
:1059500000F101009885588DD3F800C082F0200234
:105960000CF800205A8D02F1010292B25A859B88F0
:10597000934201BF40F62843C2F2000300225A8539
:1059800040F62843C2F200039A8D02F101029A8583
:105990001EE040F62843C2F20003588DD3F800C041
:1059A0000CF800205A8D02F1010292B25A859B88B0
:1059B000934201BF40F62843C2F2000300205885FD
:1059C00040F62843C2F200039A8D02F101029A8543
:1059D0004FEA1121CAB240F62843C2F2000393F8FD
:1059E0002900104483F82900A2F17D03DBB2012BCA
:1059F0003ED840F62843C2F20003588DD3F800C0C9
:105A00004FF07D040CF80040588D00F1010080B289
:105A100058859B88834201BF40F62843C2F20003A9
:105A20000020588540F62843C2F20003988D00F10B
:105A300001009885588DD3F800C082F020020CF840
:105A400000205A8D02F1010292B25A859B8893423E
:105A500001BF40F62843C2F2000300225A8540F6F7
:105A60002843C2F200039A8D02F101029A851EE0DA
:105A700040F62843C2F20003588DD3F800C00CF85A
:105A800000205A8D02F1010292B25A859B889342FE
:105A900001BF40F62843C2F200030020588540F6BB
:105AA0002843C2F200039A8D02F101029A854FEA5F
:105AB0001121CAB240F62843C2F2000393F829002C
:105AC000104483F82900A2F17D03DBB2012B3ED8FC
:105AD00040F62843C2F20003588DD3F800C04FF0BF
