:020000040800F2
:100000001C080020D1010008B50100080000000014
:10001000B5010008B5010008B5010008B5010008E8
:10002000B5010008B5010008B5010008E12F00087E
:10003000B5010008B5010008AD2F0008BD22000879
:10004000B5010008B5010008B5010008B5010008B8
:10005000B5010008B5010008FD220008B50100083F
:10006000B5010008B5010008B5010008B501000898
:10007000B5010008B5010008B5010008B501000888
:10008000B5010008B5010008B5010008B501000878
:10009000B5010008B5010008B5010008B501000868
:1000A000B5010008B5010008B5010008B501000858
:1000B000B5010008B5010008B5010008B501000848
:1000C000B5010008B5010008B5010008B501000838
:1000D000B5010008B5010008B5010008B501000828
:1000E000B5010008B5010008B5010008B501000818
:1000F000B5010008B5010008B5010008B501000808
:10010000B5010008B5010008B5010008B5010008F7
:10011000B5010008B5010008B5010008B5010008E7
:10012000B5010008B5010008B5010008B5010008D7
:10013000B5010008B501000800000000B501000885
:10014000B5010008B5010008B5010008B5010008B7
:04015000B5010008ED
:08015400002F00000100000073
:1001600010B5054C237833B9044B13B10448AFF3F1
:1001700000800123237010BD440000200000000017
:100180005401000808B5064B1BB106480649AFF3F9
:1001900000800648036813B1054B03B1984708BDBA
:1001A0000000000054010008480000204400002026
:1001B00000000000684620F007018D4601B540F2BE
:1001C0005111024802F076F9FEE700BF7C450008B5
:1001D000684620F007018D4601B50F4A0F4B1049C4
:1001E00003E052F8040B43F8040B8B42F9D30D4B98
:1001F0000D49002201E043F8042B8B42FBD302F0AF
:1002000037FE01F0F5FD09484FF4A67102F052F9EE
:10021000BDE80140854670478C460008000000207C
:1002200044000020440000201C0400207C450008FD
:10023000464B82B01A6842F001021A605968444A7B
:1002400001EA02025A601A6822F0847222F48032B3
:100250001A601A6822F480221A605A6822F4FE0298
:100260005A601A6822F0A0521A604FF47F029A6016
:10027000A2F57F02DA62019200921A6842F480329B
:100280001A601A6802F400320092019A0132019257
:10029000009A1AB9019AB2F5A06FF2D12B4B1B68E4
:1002A00013F4003318BF01230093009B012B49D1A5
:1002B000284B1A6842F010021A601A6822F00302F2
:1002C0001A601A6842F002021A60A3F580535A6855
:1002D0005A605A685A605A6842F480625A60D96A11
:1002E0001D4A01EA0202DA62DA6A42F4823242F418
:1002F0001172DA621A6842F080621A601968134A51
:1003000011F0006FFAD0536823F47C1353605368E4
:1003100043F4E8135360136843F08073136011686B
:100320000A4B11F0007FFAD05A6822F003025A609B
:100330005A6842F002025A605A6802F00C02082A17
:10034000FAD100E0FEE702B0704700BF00100240A3
:100350000000FFF00020024000F0FEFF37B50C4D1A
:100360000446012155F8200001F04CF910238DF8C6
:100370000730032305EB44058DF80630054B2D8A25
:1003800053F8240001A9ADF8045000F0BDFE3EBDB5
:100390007830000804000020044A054B53F8203050
:1003A00002EB4000028A1A61704700BF78300008F3
:1003B00004000020044A054B53F8203002EB4000B3
:1003C000028A5A61704700BF78300008040000209C
:1003D000054B064953F8203001EB4000DA68018AEA
:1003E00081EA0202DA6070470400002078300008D9
:1003F000F0B5234D8600AB1985B0044698690F46C9
:1004000040F00100012105EB440501F0FBF8AB8C45
:1004100003A9ADF80C3004238DF80F30194B9E1949
:10042000306900F071FE012F27D195F82C0095F866
:10043000341000F033FFAB8F009300238DF80430AD
:100440000CB10C3300E00823012568468DF8053017
:100450008DF8065000F082FD094B02A803EB44041E
:10046000B4F844308DF80B508DF808300F238DF818
:1004700009308DF80A3000F007FD05B0F0BD00BF6F
:10048000783000080400002008B5054A054B03EB4E
:10049000800302EB4000818C186900F096FE08BDD5
:1004A0007830000804000020F7B51E4D044605EB27
:1004B0008005E86C0E4640F00100012101F0A2F831
:1004C0003CB90820012100F0BBFE286D012101F09C
:1004D000A7F8144D01AF05EB4405B5F85430394683
:1004E000ADF8043018238DF8073003238DF806305B
:1004F0000D4B03EB8404E06900F006FEB5F858509C
:100500000423E06939468DF80730ADF8045000F057
:10051000FBFD206A314601F0FBFA206A012101F05F
:1005200066FBFEBD783000080400002084B0002384
:1005300001900393019B054A534301E0039B013B58
:100540000393039B002BF9D104B07047A0860100F0
:1005500082B0ADF80600BDF80620024B92B21A80B8
:1005600002B070476000002082B0ADF80600BDF810
:100570000620024B92B21A8002B070472800002079
:1005800010B5042104460022064800F034FE064857
:10059000214601F0F5F90448802101F049FA0028CC
:1005A000F9D110BD000C0140003C004010B50446DC
:1005B0007020FFF7E5FF0D48002101F0E1F90B483D
:1005C000802101F035FA0028F9D10848214601F0D0
:1005D000D7F90648802101F02BFA0028F9D1044808
:1005E0000421012200F007FE10BD00BF003C0040C6
:1005F000000C0140304A38B51388052423F0380335
:100600001B041B0C138013889BB243F00803138058
:10061000FFF7CCFF7320FFF7B3FF2748FF2101F05E
:10062000AFF92548802101F003FA0028F9D12248CA
:10063000012101F0FDF90028F9D0013C1E48E4B287
:1006400001F0A0F9002CE8D11B48FF2101F098F936
:100650001948802101F0ECF90028F9D11648012150
:1006600001F0E6F90028F9D0134801F08BF9FF21D9
:100670000546114801F084F90F48802101F0D8F9AE
:100680000028F9D10C4C0121204601F0D1F90028B5
:10069000F8D0204601F076F9042140EA0525012230
:1006A000064800F0A8FD2388ADB223F038031B04F0
:1006B0001B0C2380A8B238BD003C0040000C014058
:1006C000222008B5FFF772FF7220FFF759FF08BD1F
:1006D00010B50C46FFF76AFF7220FFF751FF210AA1
:1006E0000C4801F04DF90B48802101F0A1F90028D8
:1006F000F9D1E1B2074801F043F90648802101F041
:1007000097F90028F9D104480421012200F073FD73
:1007100010BD00BF003C0040000C0140034610B576
:1007200020200C461946FFF7D3FF21202146FFF772
:10073000CFFF10BD904270B504460D461E4604D34F
:10074000411C8A1A91B2502001E050200021FFF78D
:10075000BFFF51202146FFF7BBFFB54204D3691C00
:100760008E1BB1B2522001E052200021FFF7B0FFF2
:1007700053202946FFF7ACFF20462946FFF7CEFF5E
:1007800070BD08B5EF2040F23F11F0224FF4A07386
:10079000FFF7D0FF032041F21801FFF799FF08BDD2
:1007A00010B5010A04460A4801F0EAF80848802119
:1007B00001F03EF90028F9D1E1B2054801F0E0F876
:1007C0000348802101F034F90028F9D110BD00BFA1
:1007D000003C004010B50446FFF772FF2046FFF7CB
:1007E000DFFF03480421012200F005FD10BD00BF1A
:1007F000000C0140F0B5570089B0474C05900691B8
:10080000C7F1030716460491039003460025069896
:10081000B2B202EB000C1FFA8CFC61461846CDF810
:1008200008C001920093FFF779FF208880B2FFF79C
:10083000D1FF019A0699009B8A1A92B21846114676
:100840000192FFF76BFF208880B2FFF7C3FFDDF84E
:1008500008C003986146FFF761FF208880B2FFF768
:10086000B9FF019A03981146FFF758FF208880B21C
:10087000FFF7B0FF05985FFA86FC0CEB0002D2B2DE
:1008800010460499CDF808C00192FFF747FF208871
:1008900080B2FFF79FFF0698019A411B89B210466C
:1008A0000791FFF73BFF208880B2FFF793FFDDF849
:1008B00008C00599CCEB0102D2B21046049901920E
:1008C000FFF72CFF208880B2FFF784FF019A079979
:1008D0001046FFF723FF208880B2FFF77BFF002F31
:1008E000009B03DA07EB8507063704E0AA1B0A37EB
:1008F00007EB8207013E03980499421ED2B20135EC
:1009000003924A1C013392B2B542DBB204927FF6E5
:100910007EAF09B0F0BD00BF60000020F8B540F226
:100920003F1104460020FFF7F9FE0025FFF7C8FE3F
:100930000E4F12E0012313FA06F263591A4216BF52
:100940000B4B38881888013680B2FFF729FF202E1C
:10095000F0D10435B5F5165F01D00026EAE7054869
:100960000421012200F047FCF8BD00BF2800002050
:1009700060000020000C0140F7B51F4604460E46FB
:100980001546FFF7CBFE17B10027114B1DE0FFF70F
:1009900097FE0F4C04E02088013780B2FFF700FF7C
:1009A000AF42F8D30B480421012200F024FC0EE0F2
:1009B0001888013480B2E4B20193FFF70BFF2046A0
:1009C0003146FFF7ABFE019B0137AF42F0D3FEBDCE
:1009D00060000020000C0140F8B5054617461E4691
:1009E0001A4600230C46FFF7C7FF78192146324606
:1009F0000023C0B2FFF7C0FF2146013428463A4623
:100A00000123A61BFFF7B8FFB1B228463A460123DF
:100A1000FFF7B2FFF8BDF7B505460E460192FFF7A6
:100A20007DFE124F0024FFF74BFE002301990A5B65
:100A30001A4112F0010F0ABF0D4A3888108800933E
:100A400080B2FFF7ADFE009B0133102BEED10135D4
:100A5000042101220748EDB200F0CDFB0234284604
:100A60003146FFF75BFE302CDDD1FEBD600000207B
:100A700028000020000C014008B5203A064BC1F5C3
:100A80009E7103314FF0300CD2B289B20CFB0232AE
:100A9000FFF7C1FF08BD00BFD4300008F8B5064617
:100AA0000C46154640F23F1705E021463046FFF759
:100AB000E3FF1034A4B215F8012B131E18BF012355
:100AC000BC428CBF002303F00103002BEDD1F8BD25
:100AD00008B50021014AFFF7E1FF08BD9145000874
:100AE00038B540F23F1104460020FFF717FEFFF72C
:100AF000E7FD4FF496352046FFF752FE15F1FF351E
:100B0000F9D103480421012200F075FB38BD00BF74
:100B1000000C014008B510200021FFF7D9FD11207D
:100B20000021FFF7D5FD12200021FFF7D1FD0021A4
:100B30001320FFF7CDFD1420FFF7F8FC102041F241
:100B4000B071FFF7C5FD112040F23711FFF7C0FD6E
:100B50000520FFF7EBFC122040F23911FFF7B8FD3A
:100B60000520FFF7E3FC13204FF4E851FFF7B0FD39
:100B700013212920FFF7ACFD0520FFF7D7FC072044
:100B800040F27311FFF7A4FD08BD08B5072040F23D
:100B90007311FFF79DFD08BD08B507200021FFF781
:100BA00097FD08BD07B50820012100F02BFD0423A7
:100BB000ADF8043003238DF8063004480D3301A945
:100BC0008DF8073000F0A0FA0EBD00BF000C014008
:100BD00008B500F010FB08BD30B5112087B0012129
:100BE00000F010FD01211D4800F02AFB01214FF407
:100BF000004000F015FD1A4C03234FF4E05205A904
:100C00008DF8163017481533ADF814208DF81730CD
:100C100000F07AFA204600F093FD4FF48272ADF8AE
:100C2000022002220023ADF8062001254FF40072B5
:100C300020466946ADF80030ADF80430ADF80850F4
:100C4000ADF80A20ADF80C30ADF80E3000F0A6FD7E
:100C50002046294600F05FFE07B030BD001020009E
:100C6000003C00400010014008B5FFF79BFFFFF774
:100C7000B3FF0520FFF75AFCE5204FF40041FFF7D2
:100C800027FD00200121FFF723FD01204FF4807193
:100C9000FFF71EFD02204FF4E061FFF719FD03206E
:100CA00041F23001FFF714FD04200021FFF710FD91
:100CB000082040F20221FFF70BFD09200021FFF779
:100CC00007FD0A200021FFF703FD0C200021FFF79C
:100CD000FFFC0D200021FFF7FBFC0F200021FFF798
:100CE000F7FC10200021FFF7F3FC11200021FFF793
:100CF000EFFC12200021FFF7EBFC00211320FFF78F
:100D0000E7FC1420FFF712FC102041F2B071FFF74E
:100D1000DFFC112040F23711FFF7DAFC0520FFF766
:100D200005FC122040F23911FFF7D2FC0520FFF735
:100D3000FDFB13204FF4E851FFF7CAFC13212920D3
:100D4000FFF7C6FC0520FFF7F1FB20200021FFF78D
:100D5000BFFC21200021FFF7BBFC30200621FFF75C
:100D6000B7FC312040F20111FFF7B2FC3220032121
:100D7000FFF7AEFC35204FF48371FFF7A9FC362056
:100D800040F60231FFF7A4FC372040F20231FFF7B2
:100D90009FFC382040F20771FFF79AFC39200721A9
:100DA000FFF796FC3C204FF4C061FFF791FC3D201B
:100DB00040F20B21FFF78CFC50200021FFF788FC4C
:100DC0005120EF21FFF784FC52200021FFF780FC27
:100DD000532040F23F11FFF77BFC60204FF41C5181
:100DE000FFF776FC61200121FFF772FC6A200021E9
:100DF000FFF76EFC80200021FFF76AFC81200021B4
:100E0000FFF766FC82200021FFF762FC83200021AF
:100E1000FFF75EFC84200021FFF75AFC00218520AB
:100E2000FFF756FC90201021FFF752FC9220002182
:100E3000FFF74EFC93200321FFF74AFC95204FF467
:100E40008871FFF745FC97200021FFF741FC9820AF
:100E50000021FFF73DFC032041F21801FFF738FCA9
:100E6000072040F27311FFF733FC08BD08B5FFF708
:100E7000FBFE08BD40F0BE60024B40F42020D8606D
:100E8000704700BF00ED00E010B5C2780378F2B102
:100E9000144A90F801C0D2688478D243C2F3022287
:100EA000C2F104010CFA01FC0F21D140214041EABA
:100EB0000C010D4A09019A18C9B282F8001303788F
:100EC0000122590903F01F0312FA03F306E059093E
:100ED000012203F01F0312FA03F32031024A42F801
:100EE000213010BD00ED00E000E100E021F06041A4
:100EF00021F07F01024B41EA00009860704700BF7B
:100F000000ED00E019B1054B1A69104303E0034BF3
:100F10001A6922EA00001861704700BF00ED00E086
:100F200004280BBF054B054B1A681A680CBF42F02A
:100F3000040222F004021A60704700BF10E000E0D3
:100F4000044B00221A605A609A60DA60024A5A61C1
:100F5000704700BF00040140FFFF0F0010B5837908
:100F600002680179002B34D01E4B6FEA020C1C681A
:100F700001F180410CEA04041C605C6801F58231D7
:100F80000CEA040CC3F804C0D1F800C04CEA020219
:100F90000A600268D3F808C0D14301EA0C0CC3F818
:100FA00008C0D3F80CC001EA0C01D96041791029BE
:100FB00007D1996811439960D96841EA0202DA6061
:100FC0000FE001F1804303F58233196841EA020220
:100FD00006E001F1804303F58233196821EA020239
:100FE0001A6010BD0004014000230C22036003714D
:100FF000427183717047024B1A6910431861704740
:1010000000040140034B5B6918420CBF0020012023
:10101000704700BF00040140014B5861704700BF9A
:1010200000040140054B1A685B69034008BF18467D
:1010300003D010420CBF0020012070470004014083
:10104000014B5861704700BF0004014008B5224BB6
:10105000984205D10420012100F0FEFA042036E078
:101060001E4B984205D10820012100F0F5FA082016
:101070002DE01B4B984205D11020012100F0ECFA25
:10108000102024E0174B984205D12020012100F0C8
:10109000E3FA20201BE0144B984205D140200121A7
:1010A00000F0DAFA402012E0104B984205D180207F
:1010B000012100F0D1FA802009E00D4B984209D1BE
:1010C0004FF48070012100F0C7FA4FF480700021C6
:1010D00000F0C2FA08BD00BF00080140000C01404A
:1010E000001001400014014000180140001C0140A4
:1010F000002001400120014608B500F0ADFA0120B2
:10110000002100F0A9FA08BDF7B5CB780F8813F0DD
:10111000100F03F00F021CBF8B781A4317F0FF0F5C
:1011200022D0D0F800C000230197012414FA03F55F
:10113000019E05EA0604AC4211D19E000F2717FA62
:1011400006F512FA06F62CEA050CCD784CEA060CE8
:10115000282D08BF446102D0482D08BF0461013327
:10116000082BE2D1C0F800C00F88FF2F24D9D0F897
:1011700004C000230192012203F1080512FA05F5CB
:1011800005EA0704AC4212D19E000E3212FA06F5AF
:10119000019A2CEA050C12FA06F6CD784CEA060CF8
:1011A000282D08BF446102D0482D08BF04610133D7
:1011B000082BE0D1C0F804C0FEBD4FF0FF33038020
:1011C00002238370DB18C3707047836819420CBF19
:1011D000002001207047806880B27047C3681942C0
:1011E0000CBF002001207047C06880B270470161C9
:1011F0007047416170470AB1016100E04161704789
:10120000C160704741F48033836181618361836988
:1012100083697047064A4FF68073D2F800C041EAEE
:1012200000100CEA030340EA03031360704700BF99
:1012300000000140014B1860704700BF1C002042B5
:1012400010B5154A00F44014B4F5401F53681FFA56
:1012500080FC06D1546823F0706324F070645460FD
:1012600010E010F4801F05D0C0F30342032414FAE9
:1012700002F203E0420D12010CFA02F223EA020329
:1012800043F0706329B1400D00010CFA00FC43EA01
:101290000C03014A536010BD0000014001F003023D
:1012A00092004FF00F0C0CFA02FC10FA02F2084BFD
:1012B0008908023110B553F8214024EA0C0C43F898
:1012C00021C053F821C042EA0C0243F8212010BD8E
:1012D00000000140014B1860704700BFDC00204255
:1012E000114B1A6842F001021A6059680F4A01EA6C
:1012F00002025A601A6822F0847222F480321A6064
:101300001A6822F480221A605A6822F4FE025A6097
:101310001A6822F0A0521A604FF47F029A60A2F578
:101320007F02DA62704700BF001002400000FFF049
:101330000C4BB0F5803F1A6822F480321A601A68AC
:1013400022F480221A6003D0B0F5802F08D103E088
:101350001A6842F4803202E01A6842F4A0221A604D
:10136000704700BF00100240034B1A6822F0F802D9
:1013700042EAC0001860704700100240014B18603C
:10138000704700BF00004242034B5A6822F47412B7
:10139000104308435860704700100240014B18602A
:1013A000704700BF60004242044BDA6A22F4803288
:1013B00022F00F0210430843D86270470010024029
:1013C000034BDA6A22F0F0021043D862704700BF84
:1013D00000100240034BDA6A22F470621043D862B4
:1013E000704700BF00100240014B1860704700BFFB
:1013F00068004242034BDA6A22F470421043D8621A
:10140000704700BF00100240014B1860704700BFDA
:1014100070004242034B5A6822F0030210435860A6
:10142000704700BF00100240024B586800F00C00EB
:10143000704700BF00100240034B5A6822F0F002D0
:1014400010435860704700BF00100240034B5A68B9
:1014500022F4E06210435860704700BF0010024061
:10146000034B5A6822F4605242EAC0005860704749
:101470000010024019B1054B1A78104303E0034BEA
:101480001A7822EA00001870704700BF0910024065
:10149000014B1860704700BFD8004242034B5A68A6
:1014A00022F4404210435860704700BF00100240D1
:1014B000014B1860704700BFC4054242014B1860E1
:1014C000704700BFC8054242064B002201281A702F
:1014D0001A7008BF187003D0042801D105221A70B1
:1014E000704700BF20100240014B1860704700BFDA
:1014F00080044242024B1A6A10431862704700BFD0
:1015000000100240014B1860704700BF3C0442428B
:10151000304A10B5536803F00C03042B08BF2E4B60
:1015200030D0082B2DD153685268C3F383430D2B61
:1015300002F4803201D0023300E0062312B9274AB8
:1015400053431FE0234AD2F82CC0D16A01F00F01A7
:1015500001311CF4803F08BF1F4A0ED0D2F82CC0C6
:10156000D26ACCF3031C1C4C0CF1010CC2F3032215
:10157000B4FBFCFC023202FB0CF2B2FBF1F14B4378
:1015800000E0174B134A03605168164BC1F3031177
:10159000595CD0F800C02CFA01F14160D2F804C0C7
:1015A000CCF3022C13F80CC021FA0CFCC0F808C0D4
:1015B000D2F804C0CCF3C22C13F80CC021FA0CF101
:1015C000C1605268C2F381329B181B7CB1FBF3F1FE
:1015D000016110BD0010024040787D0100093D000E
:1015E00000127A002C00002019B1054B5A691043F3
:1015F00003E0034B5A6922EA00005861704700BFBC
:101600000010024019B1054B9A69104303E0034BE7
:101610009A6922EA00009861704700BF00100240FA
:1016200019B1054BDA69104303E0034BDA6922EA8A
:101630000000D861704700BF0010024019B1054B8F
:101640009A6A104303E0034B9A6A22EA0000986208
:10165000704700BF0010024019B1054BDA68104313
:1016600003E0034BDA6822EA0000D860704700BF4D
:101670000010024019B1054B1A69104303E0034BF7
:101680001A6922EA00001861704700BF001002408A
:10169000014B1860704700BF40044242014B186084
:1016A000704700BF4C004242014B1870704700BFAA
:1016B000071002404309012B04BF094B1B6805D0EA
:1016C000022B0BBF064B064B1B6A5B6A012200F024
:1016D0001F0012FA00F003420CBF002001207047E7
:1016E0000010024007B5002301933120FFF7E2FF0D
:1016F000019B01330193019BB3F5A06F01D000283A
:10170000F3D03120FFF7D6FF003818BF01200EBDFF
:10171000024B5A6A42F080725A62704700100240CF
:10172000034B9B6818420CBF00200120704700BF8C
:1017300000100240014B1870704700BF0A100240B1
:1017400008B5134B98420AD101214FF48050FFF79E
:1017500083FF4FF480500021FFF77EFF17E00D4B11
:10176000984207D14FF480400121FFF783FF4FF4E7
:10177000804009E0084B984209D14FF40040012114
:10178000FFF778FF4FF400400021FFF773FF08BD1B
:101790000030014000380040003C0040B1F802C079
:1017A0000B8802884CEA0303B1F804C002F44152EA
:1017B00043EA0C03B1F806C043EA0C03B1F808C0D1
:1017C00043EA0C03B1F80AC043EA0C03B1F80CC0B9
:1017D00043EA0C03B1F80EC043EA0C0342EA0303E8
:1017E0009BB20380838B23F400631B041B0C838355
:1017F0000B8A03827047F0B587B0838B044623F4CD
:101800007A6323F01F031B041B0C838302230384CE
:101810000B89868B022B0D46B6B245D0304B8F8894
:101820003049DA6A884214BF4FF480214FF4003106
:10183000002F14BF02270127114215D0DB6AC3F322
:1018400003339A1F082A01D8023302E00F2B08BF86
:101850001423234A2449D26AC2F303120132B1FB92
:10186000F2F25200534303E001A8FFF751FE019B3F
:10187000EA88B2F5007F2A8903D11B0A0A214B436B
:1018800004E07F01B3FBF7F30A277B43B3FBF2F3DA
:1018900005330A229BB2B3FBF2F303F001021202FA
:1018A000C3F34F0392B200E00022991E89B2FE29D1
:1018B00028BF002228BF0223E98813430B439BB2B1
:1018C00023842B886A8846EA030343F400631343A6
:1018D000AA8813436A8913439BB2A38307B0F0BD60
:1018E000001002400038004040787D010023038052
:1018F00043808380C380038143818381C381072325
:101900000382704700230222038043808380C380C8
:1019100002814381704721B103889BB243F04003A9
:1019200004E0038823F040031B041B0C0380704772
:1019300021B1838B9BB243F4806304E0838B23F457
:1019400080631B041B0C838370470909012313FA6E
:1019500001F189B21AB183889BB2194303E08388ED
:101960009BB223EA0101818070471AB183889BB240
:10197000194303E083889BB223EA01018180704709
:1019800081817047808980B270474FF6FF6399422A
:101990001EBF03889BB243F4807304D1038823F4F1
:1019A00080731B041B0C0380704721B183889BB29A
:1019B00043F0040304E0838823F004031B041B0C9E
:1019C00083807047038823F400631B041B0C03808F
:1019D00003889BB219430180704703889BB243F48C
:1019E00080530380704721B103889BB243F40053B6
:1019F00004E0038823F400531B041B0C038070478E
:101A0000012914BF008B808A80B27047008A80B29F
:101A10007047B1F5804F02BF03889BB243F4804307
:101A200004D0038823F480431B041B0C03807047FD
:101A3000038919420CBF002001207047C94389B2B5
:101A400001817047012301F00F0213FA02F2B0F88E
:101A500004C000891FFA8CFC80B2104006D009092E
:101A60008B401CEA030F0CBF00200120704701F0DF
:101A70000F0101238B40DB439BB20381704700BF02
:101A800008B51E4B98420AD101214FF48040FFF760
:101A9000E3FD4FF480400021FFF7DEFD2DE0184B01
:101AA000984207D14FF400300121FFF7E3FD4FF4D6
:101AB00000301FE0134B984207D14FF480200121E2
:101AC000FFF7D8FD4FF4802014E00F4B984207D168
:101AD0004FF400200121FFF7CDFD4FF4002009E075
:101AE0000A4B984209D14FF480100121FFF7C2FD43
:101AF0004FF480100021FFF7BDFD08BD0038014004
:101B00000044004000480040004C004000500040AD
:101B100030B587B0038ACA8823F440531B041B0CDA
:101B2000134303820D4683890989AA8823F4B0539D
:101B300041EA0202698923F00C030A431B041B0CCF
:101B400092B242EA03038381838AAA8923F4407311
:101B50001B041B0C13430446838201A8FFF7D8FC27
:101B60000E4B2A689C420CBF049B039B19214B43DC
:101B70009200B3FBF2F16423B1FBF3F212011009FE
:101B800003FB101109013231B1FBF3F303F00F0332
:101B900043EA020292B2228107B030BD0038014010
:101BA0004FF4165303600C22A3F516538380C380B1
:101BB0000381428183817047B1F802C00A88038A99
:101BC0004CEA0202B1F804C0C98823F4706342EA07
:101BD0000C021B040A431B0C92B242EA0303038269
:101BE00070470023038043808380C380704721B106
:101BF00083899BB243F4005304E0838923F40053A8
:101C00001B041B0C83817047C1F342134FF0010C7E
:101C100001F01F0163450CFA01F101D10C3004E021
:101C2000022B01D1103000E014301AB1036843EAEE
:101C3000010102E0036823EA0101016070471AB163
:101C4000838A9BB2194303E0838A9BB223EA010192
:101C500081827047038A23F00F031B041B0C03824D
:101C6000038A9BB2194301827047838923F400637E
:101C70001B041B0C838183899BB2194381817047AC
:101C800021B183899BB243F0020304E0838923F0EE
:101C900002031B041B0C83817047038A23F020037B
:101CA0001B041B0C0382038A9BB2194301827047F9
:101CB00021B1038A9BB243F4804304E0038A23F4F6
:101CC00080431B041B0C03827047C905C90D81802A
:101CD00070478088C005C00D704783899BB243F070
:101CE000010383817047038BDBB20383038B9BB2B9
:101CF00043EA012101837047038B03F47F4303838D
:101D0000038B9BB219430183704721B1838A9BB235
:101D100043F0200304E0838A23F020031B041B0C00
:101D20008382704721B1838A9BB243F0100304E0A1
:101D3000838A23F010031B041B0C8382704721B19C
:101D4000838A9BB243F0080304E0838A23F00803EC
:101D50001B041B0C83827047838A23F004031B043B
:101D60001B0C8382838A9BB219438182704721B105
:101D7000838A9BB243F0020304E0838A23F00203C8
:101D80001B041B0C83827047038819420CBF002080
:101D900001207047C94389B20180704701F01F03D9
:101DA0000122C1F3421C9A40BCF1010F08BF838994
:101DB00004D0BCF1020F0CBF038A838A9BB202EAF3
:101DC0000303090A012212FA01F1028892B21142B8
:101DD0000CBF00200120002B0CBF002000F00100F0
:101DE0007047090A01238B40DB439BB20380704795
:101DF000F0B587B000F0B2FA00F0A0FB1948072157
:101E000000F0A8FD184850210822002500F074FDBC
:101E1000164FDFF85CC02E462C4601361423F6B26E
:101E200003FB05C257F8040F05233146CDF814C053
:101E3000009401940294013500F088FB052EDDF832
:101E400014C0EAD10B4B062118680B4A33460094A4
:101E50000194029400F07AFB00F0C0FB204607B02A
:101E6000F0BD00BF640000209C000020BC420008C0
:101E7000EC000020B04200085001002070B50B8833
:101E80000446062B00F09480082B03D0052B40F06D
:101E900092802EE00D79042D02D84319DB7F1BB10F
:101EA00048485E2100F008FB4749284600F006FB41
:101EB00005226B1C93FBF2F102FB1133DBB2E3183A
:101EC0009A7E92B96219967E7EB90121917606209A
:101ED0009976033100F0E2FC057100F041FD2846DF
:101EE0003A4900F0EBFA30466AE064190123E377DF
:101EF00065E00D79042D02D84319DB7F1BB1314811
:101F0000712100F0D9FA2846314900F0D7FA0523AB
:101F10006A1C92FBF3F603FB162663199B7EF6B24E
:101F2000012B03D1A3199B7E012B03D025487621D9
:101F300000F0C2FA00236119A2198B76043593765A
:101F4000053395FBF3F203FB1255EDB26319DA7F0B
:101F500082B19A7E72B901209876DA778876042168
:101F6000053000F09BFC057100F0FAFC284617498B
:101F700000F0A4FAA319D87F10B3711C052291FBBD
:101F8000F2F002FB1012D2B2A418A57EBDB9012254
:101F9000A276DD779A760421062000F07FFC067198
:101FA00000F0DEFC3046094900F088FA284607E0D8
:101FB00000F0C8FA03E0074B4360032000E0002074
:101FC00070BD00BFA4420008C8450008D145000804
:101FD000DA4500086D2E000810B50521044600F012
:101FE000BFFB2046062100F0BBFB024B02206360D2
:101FF00010BD00BF7D1E0008094B4360094B036004
:1020000000238376C377C37680F82030037780F887
:102010002130437780F82230837780F8233070476F
:10202000D91F0008B045000808B50C480C4B0D49F5
:1020300043600D4B0D4A036000238376C377C3765C
:1020400080F82030037780F82130437780F8223001
:10205000837780F8233000F0FDFF08BD6401002085
:10206000D91F0008F92E0008B04500080000002024
:1020700038B5054C054D54F8303D1B68204698474F
:10208000AC42F8D138BD00BF7802002088010020A2
:1020900010B50B880446013B082B2ED8DFE803F06F
:1020A000050E2D1F1F2D2D2D1B000023C38521463E
:1020B00000F11C00142200F079FD22E00620052129
:1020C00000F0ECFB104BE41A104B24115C4304713C
:1020D00000F046FC15E00E4B4360022012E00A4B74
:1020E000C41A0A4B24115C430B79E4B2A34208D111
:1020F0000848A52100F0E0F903E0074B4360032006
:1021000000E0002010BD00BF88010020ABAAAAAAF1
:102110001D210008B44200086D2E000808B50A8889
:102120000346013A082A21D8DFE802F005202012F0
:10213000122020200E000022DA8503F11C0019462F
:10214000322200F033FD15E00B4A02205A6012E003
:102150000A4A9B1A0A4A1B1153430A79DBB29A4274
:1021600008D10848752100F0A7F903E0064A0320CA
:102170005A6000E0002008BD8D2100088801002081
:10218000ABAAAAAAB44200086D2E000810B50B88AD
:102190000446042B13D0052B1ED0012B2AD1082175
:1021A000062000F07BFB164B0146E41A154B241168
:1021B0005C43154B0471186800F058FA1EE0104B90
:1021C000104AC31A1B1153430A79DBB29A4211D148
:1021D0000E4B4360022012E0094BC41A094B241134
:1021E0005C430B79E4B2A34208D109488C2100F08A
:1021F00063F903E0074B0320636000E0002010BD9B
:1022000088010020ABAAAAAAB042000891200008C9
:10221000B44200086D2E0008084B10B593F8F0206A
:10222000044612B9013283F8F0202046042100F060
:1022300097FA034B0220636010BD00BF88010020A5
:102240001D210008054B10B54360054B04460921CC
:1022500040F81C3B00F094FC204610BD19220008F9
:10226000F045000838B5074C04F1F005204630343D
:10227000FFF7E8FFAC42F9D100200349034A00F020
:10228000E9FE38BD88010020712000080000002010
:1022900000284FEA011106DA064B00F00F00C9B220
:1022A000C318197604E0044BC9B2C31883F80013AD
:1022B000704700BFFCEC00E000E100E0684620F061
:1022C00007018D4619B572B60A4C23780133DBB28B
:1022D000237062B600F092FB72B623784FF0805202
:1022E000013BDBB22370044B1A6062B6BDE81940B3
:1022F000854670478502002004ED00E0684620F026
:1023000007018D4631B572B6104C23780133DBB22C
:10231000237062B60E4B01225A610E4B0721042036
:102320001D6800F0BBFA0146284600F09FF972B61E
:1023300023784FF08052013BDBB22370064B1A60CA
:1023400062B6BDE831408546704700BF8502002077
:1023500000040140B042000804ED00E037B5FDF78D
:1023600067FF0020FDF7FAFF0120FDF7F7FF0220CD
:10237000FDF7F4FF0320FDF7F1FF08230024684672
:102380004FF6FF758DF80530012300938DF8063068
:102390008DF80440FEF7E2FDFEF768FD2846FEF7E3
:1023A0009FFB4FF2DE70FEF7DFF82046FEF7D0F815
:1023B00020462146194AFEF771FB18202146184A8B
:1023C000FEF76CFB21463020164AFEF767FB00F053
:1023D00007FAE02102463020FEF760FB2846FEF7B0
:1023E000C3F82146104A7820FEF758FB2046FEF736
:1023F000BBF84FF6E070FEF7ABF821460B4AD82049
:10240000FEF74CFB1F20FEF7AFF82846FEF7A0F8BA
:1024100078204021064AFEF741FB3EBDF845000802
:102420000D46000822460008374600083C460008D2
:1024300051460008174A73B512686423B2FBF3F3E0
:10244000B3F1807F0DD2144C23F07F43013B6360D6
:102450004FF0FF300F21FFF71BFF0023A36007336E
:10246000236000240625012601A88DF804508DF86C
:1024700005408DF806408DF80760FEF705FD3146F2
:102480004FF0FF30FFF704FF28462146FFF700FF1B
:102490007CBD00BF6830000810E000E0704708B560
:1024A00072B60320FDF778FF0320FDF783FF62B6C5
:1024B00030BF08BD72B6FEE772B6FEE708B50B4640
:1024C000302141431A7850317820FEF7D5FA08BD03
:1024D00082B000230193019B5A1E0192002BFAD176
:1024E00002B0704708B503482421FFF7E5FF00203C
:1024F00008BD00BFD442000808B502482921FFF7F3
:10250000DBFF08BDD442000808B503482D21FFF7C2
:10251000D3FF002008BD00BFD442000808B5FFF774
:10252000E1FF08BD08B5FFF7E7FF08BD704770473A
:102530007047000000487047E042000808B500F00E
:1025400023FD08BD08B5FFF7A9FF08BDF8B51F4674
:102550004B1EDBB23E2B04460D46164603D91148EE
:102560007021FFF7A9FFFAB204F10800314600F02C
:102570002DF92576204600F037F9069B079AD3F10E
:10258000010338BF0023002A14BF002303F0010316
:102590001BB904487A21FFF78FFF2046089900F005
:1025A0003DFBF8BDE842000808B500F037F908BD6A
:1025B00008B5074800F0D6FC064B1B78984205D9B1
:1025C000054B1B78984298BF002000E0002008BD12
:1025D0007C020020400000208802002008B572B66E
:1025E000064B00221A70FFF7E3FF08B100F008F86D
:1025F000FFF720FF62B6FFF752FFFCE74000002024
:10260000F0B5164B85B01C78154EDFF858C0E7B210
:10261000187056F8202062B610460293CDF804C018
:10262000039200F05DF8039A05462946104600F033
:102630003FFB284600F00CF972B60B4800F092FC04
:10264000B842029BDDF804C003D99CF800209042F8
:10265000DED8024B1C7005B0F0BD00BF400000206A
:102660008C020020880200207C02002038B504463D
:102670000D4672B68B7813B1CB780133CB70A3685B
:102680006BB9A560217E134800F0ACFC124B1B789F
:10269000F3B9FFF78DFFD8B1FFF7B2FF18E0E37C85
:1026A0001BB90E484B21FFF707FFE368627C43F834
:1026B0002250637C0BB9237C6374637C227D013BD5
:1026C0006374E37C013BDBB29A42E37488BF2375F9
:1026D00062B638BD7C02002085020020EC42000872
:1026E00038B5044672B683681BB90F483121FFF72D
:1026F000E3FEE37C227CA56893420CD0A17CE068D9
:1027000050F82100A06001B9A274A27C0133013A03
:10271000A274E37405E00023A360217E034800F067
:102720007BFC62B6284638BDF44200087C020020DB
:102730003F2810B5044603D8074B53F820301BB987
:1027400006485A21FFF7B8FE72B662B6024B53F83C
:102750002430187D10BD00BF8C020020F442000818
:10276000032938B50D46047E11D9124B1A88231E51
:1027700018BF01238A4294BF002303F0010333B141
:102780003F2C04D80C4B53F82430834203D00B4821
:102790002F21FFF791FE72B6094B0A4A1B68125DA2
:1027A00003EBC505084B1B5DE95C41EA0202EA54F4
:1027B00062B638BD100400208C020020FC420008E4
:1027C0000C04002038440008C044000800230360C3
:1027D0004160027243728372C272027370470000DA
:1027E000004870470443000838B5047E0546631E60
:1027F000DBB23E2B03D8074B53F824301BB10648FD
:102800004121FFF759FE72B6024B43F8245062B6DD
:1028100038BD00BF8C0200200C43000810B5047EB8
:10282000631EDBB23E2B04D8074B53F8243083429F
:1028300003D006485521FFF73FFE72B6024B002237
:1028400043F8242062B610BD8C0200200C4300081F
:1028500038B585780446CDB172B6C378012B03D95B
:10286000013BC37062B611E0013DEDB262B6084BA8
:102870001B78AB4203D807484721FFF71DFE064BE4
:10288000142000FB0530214600F05EF938BD00BF82
:10289000900300201443000894030020F7B5134B65
:1028A000074601910024124E14250AE001341A78DB
:1028B000E4B2A24205D80F482F210093FFF7FCFD98
:1028C000009B05FB04608289BA42EFD300F0C4F894
:1028D000054618B907483B21FFF7EEFD019B01347F
:1028E0002B800023AC70EB702846FEBD90030020C7
:1028F000940300201C440008F8B5144B07461B78CD
:102900000E46052B154603D911483121FFF7D4FD9A
:102910000E4B1A7832B1013A142101FB02331B8AA3
:10292000AB420ED2094C14202278231D00FB02304A
:1029300039462B46324600F0B9F82378013323702C
:10294000F8BD03483421FFF7B7FDEBE79003002003
:1029500024440008014B1860998070470C04002043
:10296000204BF7B502881B8804469A4203D31E48C1
:102970003021FFF7A1FD72B6A37813B1E3780133DC
:10298000E37062B60825194922880B68013DEDB253
:1029900003EBC2035E5DEB00DBB201932F46144BE9
:1029A00017E0144A1449955D4A5D1640019AAD1826
:1029B000EDB253F825202AB90B4855210093FFF7B3
:1029C0007BFD009B53F8250021460093FFF74EFE48
:1029D000009B002EE5D13D46002FD4D12046FFF7C5
:1029E00037FFFEBD100400202C4400080C0400201A
:1029F0008C0200201C4300087C440008F8B572B625
:102A0000134D144F2C6800261EE0238A013B9BB215
:102A10002382ABB9638A0BB123820BE02B689C4203
:102A2000A36808BF2B6004D00BB162685A6062686B
:102A30009360666062B6E0682146FFF717FE01E02A
:102A400062B63E7072B6A468002CDED162B6F8BDE4
:102A50001804002014040020034672B6806848B1B0
:102A60000268598A9A601A8A013A92B291421A828D
:102A700088BF5A8262B6704710B5044618B1084B39
:102A80001B78834203D207484321FFF715FD72B636
:102A900062B6054B013C142202FB0434608A10BD6F
:102AA000900300200445000894030020F7B51F465A
:102AB0000B1E18BF0123032A94BF002303F0010358
:102AC00004468C461BB13B1D9BB2BB4209D81D4836
:102AD00031210092CDF804C0FFF7EEFCDDF804C010
:102AE000009A0423C4F808C0A381012602E004353B
:102AF000A5810136A589BD42F9D3AA4209D2114860
:102B00003F210092CDF804C0FFF7D6FCDDF804C0E9
:102B1000009A0123E381521BA368B60006E09919CD
:102B20001960E389521B0133E3810B46AA42F6D2B6
:102B300000221A60E289C4F800C0228262826360C7
:102B4000FEBD00BF0C45000838B5036804468B4243
:102B50000D4606D84368994203D8028AC3899A422F
:102B600003D906482D21FFF7A7FC72B6A3682B6096
:102B7000238AA5600133238262B638BD1845000858
:102B800038B50023032904460D4643608360C360C3
:102B90000382438203D804483521FFF78DFC0023CC
:102BA0002580A370204638BD2045000870B5044636
:102BB0000D4616466AB10388032B0AD94368D3F140
:102BC000010338BF002300290CBF002303F00103D9
:102BD0001BB908483121FFF76FFC26826460E5606D
:102BE00072B6054B1B68A36003B15C60024B1C60AE
:102BF00062B670BD2C45000818040020014B03602C
:102C0000704700BF40450008034B10B50446036001
:102C1000FFF788FC204610BD40450008F0B587B09E
:102C2000436804469847022803D01C483221FFF726
:102C300043FC1B4E636806AF47F8183D2046194910
:102C40009847002506E0013547F8043F204615491E
:102C5000EDB298476368B342F5D1009E6BB2052B85
:102C6000666003DD0D484921FFF726FC6FB201378E
:102C70006B4603EB8707013D57F8043D20460A49A0
:102C8000EDB2984715F0800FF5D020460749B047C0
:102C90000228CFD0666007B0F0BD00BF48450008ED
:102CA0006D2E00086C450008704500087845000846
:102CB000F0B589B0456804460E466068314601901B
:102CC000019B204698470328F7D0022802BF676877
:102CD0000395029740F0BC8007E020465E49A84774
:102CE00010B920465D49A847656801988542F4D12E
:102CF000BD4209D120465849A84700256EB2013689
:102D000002AB03EB86066DE020465449B847636882
:102D10009D42F2D0009320465049A8476668009B28
:102D20009E42E7D0BE4204D120464B49A847FF252A
:102D3000E4E70393204649499847012516E06F1CB4
:102D4000FFB263687AB208A800EB820141F8183C30
:102D500001998B4206D1052AD0DD41487C21FFF73D
:102D6000ABFBCBE720463D4998473D460328E6D0DC
:102D70006BB2052B03DD3A488721FFF79DFB019BD2
:102D8000204635496FB29847013702AB03EB8707FE
:102D90003A462B4652F8041D03F1FF338E4213D0FE
:102DA000DBB213F0800FF5D020462B49B04710B9A5
:102DB00020462A49B04766683A462B4652F8041D19
:102DC00003F1FF338E4201D1DDB297E7DBB213F09E
:102DD000800FF3D0E8E756F8043D20462149984794
:102DE000013DEDB215F0800FF5D0029D65602AE03F
:102DF000636808AF47F8183D2046184998470026F1
:102E000006E0013647F8043F20461449F6B29847D9
:102E10006368AB42F5D1029D73B2052B656003DD9B
:102E20000F48DB21FFF748FB77B2013702AB03EB1A
:102E30008707013E57F8043D20460A49F6B29847F5
:102E400016F0800FF5D020460749A8470228CFD0BA
:102E5000656009B0F0BD00BF744500086C4500080E
:102E60005845000870450008784500080120704763
:102E700070B50D4D0D4E761BB61006D0002455F8DA
:102E8000043B01349847A642F9D8094D01F0EAFB0A
:102E9000084E761BB61006D0002455F8043B0134CA
:102EA0009847A642F9D870BD7C4600087C460008C9
:102EB0007C4600088846000838B5084D084C641B5D
:102EC000A41007D005EB840555F8043D984714F18C
:102ED000FF34F9D101F0CCFB38BD00BF88460008B3
:102EE0008C460008034B10B504460360FFF786FECE
:102EF000204610BDC0450008034B10B504460360D2
:102F0000FFF77CFE204610BDC045000810B5044602
:102F1000FFF7F2FF2046FFF705FB204610BD00003B
:102F2000054B10B504460360FFF768FE2046FFF727
:102F3000F9FA204610BD00BFC0450008034B10B58C
:102F400004460360FFF75AFE204610BDC045000846
:102F500010B50446FFF7F2FF2046FFF7E3FA2046DC
:102F600010BD000003785BB10378064AD35C013BD7
:102F7000DBB2C0184178505C00EBC300C0B200E087
:102F8000184670471C430008EFF3108072B60649DC
:102F90008A68FF231B041A438A604A681B029A430B
:102FA0004A6080F31088704718ED00E072B6FFF7B2
:102FB000FFFA002803D162B60620C0430047012370
:102FC0001B06054A05490EB484B001B40620C0436F
:102FD000004762B600DF000001260008D32F00087A
:102FE00008B070470A4B10B55A5C0A4B02F1010C4D
:102FF0005FFA8CFC047813F80CC05B5C44EA0C0CA0
:1030000080F800C08018427842EA0303437010BD84
:10301000C0440008384400080C4B10B513F801C038
:103020000B4A00EB0C035C78515C04EA0101597017
:103030005B784BB90CF1010C5FFA8CFC017812F84B
:103040000C3001EA0303037010BD00BFC044000848
:103050007C44000808B5034608461946FFF766FA9F
:1030600008BD00BF00A24A0400A24A0400A24A040C
:103070000051250200A24A042000000020000000A8
:103080002000000020000000800000200800100048
:1030900004000000100000000800000001000020F3
:1030A00000020000000002000100000000000D000E
:1030B00009000000010000200002000006002800B6
:1030C00017000000200000000000020020000000A7
:1030D00040000000000000000000000000000000B0
:1030E00000000000000000000000000000000000E0
:1030F00000000000000000000000000000000000D0
:10310000000000000000800180018001800180013A
:1031100080018001800180018001800180018001A7
:10312000000000008001800100000000000000009D
:103130000000000000000000CC00CC00CC00CC005F
:10314000CC00CC00000000000000000000000000E7
:10315000000000000000000000000000000000006F
:10316000000000000000000000000000000000005F
:10317000600C600C600C30063006FE1FFE1F30062F
:1031800038071803FE1FFE1F180318038C018C015B
:103190008C01000000008000E003F80F9C0E8C1CE6
:1031A0008C188C009800F801E007800E801C8C18A9
:1031B0008C189C18B80CF00FE00380008000000011
:1031C000000000000000000000000E181B0C110C95
:1031D00011061106110311039B018E01C038C06C4A
:1031E00060446044304430441844186C0C3800008B
:1031F000000000000000E001F00338071806180680
:103200003003F001F000F8009C310E33061E061C5E
:10321000061C063FFC73F0210000000000000000C7
:1032200000000000000000000C000C000C000C006E
:103230000C000C0000000000000000000000000076
:10324000000000000000000000000000000000007E
:10325000000000000000000200038001C000C00068
:10326000600060003000300030003000300030007E
:103270003000300060006000C000C000800100032A
:1032800000020000000020006000C00080018001FA
:103290000003000300060006000600060006000604
:1032A000000600060003000380018001C0006000EA
:1032B00020000000000000000000000000000000EE
:1032C000C000C000D806F807E0013003380700004E
:1032D00000000000000000000000000000000000EE
:1032E00000000000000000000000000000000000DE
:1032F00080018001800180018001FC3FFC3F800152
:1033000080018001800180010000000000000000B9
:1033100000000000000000000000000000000000AD
:10332000000000000000000000000000000000009D
:103330000000000000008001800100010001800009
:10334000000000000000000000000000000000007D
:10335000000000000000000000000000E007E0079F
:10336000000000000000000000000000000000005D
:10337000000000000000000000000000000000004D
:10338000000000000000000000000000000000003D
:10339000000000000000C000C000000000000000AD
:1033A000000000000000000C000C000600060006F3
:1033B0000003000300038003800180018001C0003E
:1033C000C000C000600060000000000000000000BD
:1033D000000000000000E003F007380E180C0C1885
:1033E0000C180C180C180C180C180C180C180C18BD
:1033F000180C380EF007E003000000000000000089
:1034000000000000000000018001C001F0019801EF
:10341000880180018001800180018001800180019C
:103420008001800180018001000000000000000098
:10343000000000000000E003F80F180C0C180C1836
:1034400000180018000C000600038001C000600096
:1034500030001800FC1FFC1F0000000000000000EE
:10346000000000000000E001F807180E0C0C0C0C26
:10347000000C0006C003C007000C001800180C1850
:103480000C18180CF807E003000000000000000012
:10349000000000000000000C000E000F000F800D67
:1034A000C00C600C600C300C180C0C0CFC3FFC3F8A
:1034B000000C000C000C000C0000000000000000DC
:1034C000000000000000F80FF80F180018000C00B2
:1034D000EC03FC071C0E001C0018001800180C1848
:1034E0001C0C180EF807E0030000000000000000AC
:1034F000000000000000C007F00F381C181818006A
:103500000C00CC03EC0F3C0E1C1C0C180C180C18F7
:10351000181C380EF007E003000000000000000057
:10352000000000000000FC1FFC1F000C000600064D
:10353000000380038001C001C000E0006000600063
:10354000700030003000300000000000000000007B
:10355000000000000000E003F007380E180C180C03
:10356000180C3806F007F007180C0C180C180C187B
:103570000C18380CF80FE0030000000000000000F9
:10358000000000000000E003F007380E1C0C0C18CF
:103590000C180C181C1C381EF81BE0190018000C25
:1035A000000C1C0EF807F0010000000000000000F5
:1035B000000000000000000000000000000000000B
:1035C00080018001000000000000000000000000F9
:1035D00000000000800180010000000000000000E9
:1035E00000000000000000000000000000000000DB
:1035F00080018001000000000000000000000000C9
:103600000000000080018001000100018000000036
:1036100000000000000000000000000000000000AA
:10362000000000000010001C800FE003F8001800EC
:10363000F800E003800F001C0010000000000000F4
:10364000000000000000000000000000000000007A
:1036500000000000F81F000000000000F81F00003C
:10366000000000000000000000000000000000005A
:10367000000000000000000000000000000000004A
:103680000000000008003800F001C007001F00180B
:10369000001FC007F0013800080000000000000013
:1036A000000000000000E003F80F180C0C180C18C4
:1036B0000018000C000600038001C000C000C0001C
:1036C00000000000C000C00000000000000000007A
:1036D0000000000000000000E00718180420C229C4
:1036E000224A114409440944094409221113E20CF5
:1036F000024004201818E00700000000000000004D
:1037000000000000000080038003C006C006C00661
:10371000600C600C301830183018F83FF83F1C70FF
:103720000C600C6006C006C0000000000000000035
:10373000000000000000FC03FC0F0C0C0C180C181F
:103740000C180C0CFC07FC0F0C180C300C300C3057
:103750000C300C18FC1FFC070000000000000000EB
:10376000000000000000C007F01F38381C300C704B
:103770000660060006000600060006000600066059
:103780000C701C30F01FE00700000000000000007B
:10379000000000000000FE03FE0F060E06180618CB
:1037A0000630063006300630063006300630061881
:1037B0000618060EFE0FFE030000000000000000C9
:1037C000000000000000FC3FFC3F0C000C000C005F
:1037D0000C000C00FC1FFC1F0C000C000C000C006B
:1037E0000C000C00FC3FFC3F00000000000000004B
:1037F000000000000000F83FF83F18001800180013
:1038000018001800F81FF81F1800180018001800FA
:103810001800180018001800000000000000000048
:10382000000000000000E00FF83F3C780E6006E06A
:1038300007C00300030003FE03FE03C007C006C069
:103840000EC03CF0F83FE00F000000000000000058
:103850000000000000000C300C300C300C300C303C
:103860000C300C30FC3FFC3F0C300C300C300C307A
:103870000C300C300C300C30000000000000000058
:1038800000000000000080018001800180018001B3
:103890008001800180018001800180018001800120
:1038A0008001800180018001000000000000000014
:1038B00000000000000000060006000600060006EA
:1038C00000060006000600060006000600061806B0
:1038D00018063807F003E0010000000000000000B7
:1038E00000000000000006300618060C060606035D
:1038F0008601C60066007600DE008E01060306061D
:10390000060C0618063006600000000000000000EB
:10391000000000000000180018001800180018002F
:1039200018001800180018001800180018001800D7
:1039300018001800F81FF81F000000000000000029
:103940000000000000000EE01EF01EF01EF036D851
:1039500036D836D836D866CC66CC66CCC6C6C6C68F
:10396000C6C6C6C686C386C30000000000000000AD
:103970000000000000000C301C303C303C306C304B
:103980006C30CC30CC308C310C330C330C360C36E4
:103990000C3C0C3C0C380C30000000000000000017
:1039A000000000000000E007F81F1C380E700660E1
:1039B00003C003C003C003C003C003C003C006604C
:1039C0000E701C38F81FE007000000000000000027
:1039D000000000000000FC0FFC1F0C380C300C3005
:1039E0000C300C300C18FC1FFC070C000C000C00F9
:1039F0000C000C000C000C00000000000000000097
:103A0000000000000000E007F81F1C380E70066080
:103A100003E003C003C003C003C003C007E00663A4
:103A20000E3F1C3CF83FE0F700C000000000000023
:103A3000000000000000FE0FFE1F063806300630B2
:103A400006300638FE1FFE0706030606060C06189B
:103A50000618063006300660000000000000000076
:103A6000000000000000E003F80F1C0C0C180C18FC
:103A70000C001C00F803E00F001E00380630063072
:103A80000E301C1CF80FE0070000000000000000D2
:103A9000000000000000FE7FFE7F800180018001A9
:103AA000800180018001800180018001800180010E
:103AB0008001800180018001000000000000000002
:103AC0000000000000000C300C300C300C300C30CA
:103AD0000C300C300C300C300C300C300C300C3006
:103AE0000C301818F81FE00700000000000000006C
:103AF00000000000000003600630063006300C189D
:103B00000C180C18180C180C380E300630067007FC
:103B100060036003C001C00100000000000000005D
:103B20000000000000000360C361C361C36166332D
:103B3000663366336633663366336C1B6C1B6C1BF3
:103B40002C1A3C1E380E380E000000000000000049
:103B50000000000000000FE00C7018303018700CEE
:103B6000600EC00780038003C003E006700C301CA9
:103B700018180C300E6007E0000000000000000084
:103B800000000000000003C006600C301C3838182C
:103B9000300C6006E007C0038001800180018001D5
:103BA0008001800180018001000000000000000011
:103BB000000000000000FC7FFC7F00600030001867
:103BC000000C000600038001C000600030001800F7
:103BD0000C000600FE7FFE7F0000000000000000D9
:103BE000000000000000E003E003600060006000EF
:103BF00060006000600060006000600060006000C5
:103C00006000600060006000600060006000E00331
:103C1000E003000000003000300060006000600041
:103C2000C000C000C000C00180018001800100030D
:103C30000003000300060006000000000000000072
:103C4000000000000000E003E003000300030003A5
:103C5000000300030003000300030003000300034C
:103C60000003000300030003000300030003E0035C
:103C7000E003000000000000C001C0016003600319
:103C8000600330063006180C180C0000000000001D
:103C90000000000000000000000000000000000024
:103CA0000000000000000000000000000000000014
:103CB0000000000000000000000000000000000004
:103CC000000000000000FFFFFFFF000000000000F8
:103CD0000000000000000C000C000C000C000C00A8
:103CE0000C000000000000000000000000000000C8
:103CF00000000000000000000000000000000000C4
:103D000000000000000000000000000000000000B3
:103D1000F003F8071C0C0C0C000FF00FF80C0C0C47
:103D20000C0C1C0FF80FF018000000000000000041
:103D3000000000000000180018001800180018000B
:103D4000D803F80F380C181818181818181818185D
:103D50001818380CF80FD80300000000000000000D
:103D60000000000000000000000000000000000053
:103D7000C003F007300E180C1800180018001800C7
:103D8000180C300EF007C003000000000000000017
:103D900000000000000000180018001800180018AB
:103DA000C01BF01F301C18181818181818181818ED
:103DB0001818301CF01FC01B00000000000000009D
:103DC00000000000000000000000000000000000F3
:103DD000C003F00F300C1818F81FF81F1800180057
:103DE0003818301CF00FC007000000000000000071
:103DF000000000000000800FC00FC000C000C00025
:103E0000F007F007C000C000C000C000C000C00044
:103E1000C000C000C000C0000000000000000000A2
:103E20000000000000000000000000000000000092
:103E3000E00DF80F180E0C0C0C0C0C0C0C0C0C0CF0
:103E40000C0C180EF80FE00D000C0C0C1C06F807FB
:103E5000F0010000000018001800180018001800F9
:103E6000D807F80F381C1818181818181818181828
:103E70001818181818181818000000000000000082
:103E8000000000000000C000C000000000000000B2
:103E9000C000C000C000C000C000C000C000C00022
:103EA000C000C000C000C000000000000000000012
:103EB000000000000000C000C00000000000000082
:103EC000C000C000C000C000C000C000C000C000F2
:103ED000C000C000C000C000C000C000C000F800AA
:103EE0007800000000000C000C000C000C000C001E
:103EF0000C0C0C060C038C01CC006C00FC009C012B
:103F00008C030C030C060C0C0000000000000000E9
:103F1000000000000000C000C000C000C000C000E1
:103F2000C000C000C000C000C000C000C000C00091
:103F3000C000C000C000C000000000000000000081
:103F40000000000000000000000000000000000071
:103F50007C3CFF7EC7E383C183C183C183C183C12E
:103F600083C183C183C183C1000000000000000041
:103F70000000000000000000000000000000000041
:103F80009807F80F381C1818181818181818181847
:103F90001818181818181818000000000000000061
:103FA0000000000000000000000000000000000011
:103FB000C003F00F300C1818181818181818181813
:103FC0001818300CF00FC0030000000000000000C3
:103FD00000000000000000000000000000000000E1
:103FE000D803F80F380C18181818181818181818BB
:103FF0001818380CF80FD80318001800180018000B
:104000001800000000000000000000000000000098
:10401000C01BF01F301C181818181818181818187A
:104020001818301CF01FC01B0018001800180018CA
:104030000018000000000000000000000000000068
:10404000B007F00370003000300030003000300066
:1040500030003000300030000000000000000000A0
:104060000000000000000000000000000000000050
:10407000E003F003380E180C3800F003C007000C02
:10408000180C380EF007E0030000000000000000EC
:1040900000000000000000008000C000C000C00060
:1040A000F007F007C000C000C000C000C000C000A2
:1040B000C000C000C0078007000000000000000032
:1040C00000000000000000000000000000000000F0
:1040D0001818181818181818181818181818181860
:1040E0001818381CF01FE019000000000000000044
:1040F00000000000000000000000000000000000C0
:104100000C18180C180C180C30063006300660031A
:1041100060036003C001C001000000000000000057
:10412000000000000000000000000000000000008F
:10413000C141C141C361636363636363363636362D
:1041400036361C1C1C1C1C1C00000000000000005B
:10415000000000000000000000000000000000005F
:104160001C38381C300C6006600360036003600379
:104170006006300C381C1C380000000000000000F5
:10418000000000000000000000000000000000002F
:104190001830301830187018600C600CE00CC00635
:1041A000C00680038003800380018001C001F0000D
:1041B000700000000000000000000000000000008F
:1041C000FC1FFC1F000C000600038001C000600003
:1041D00030001800FC1FFC1F000000000000000061
:1041E00000000000000000038001C000C000C0000B
:1041F000C000C000C00060006000300060004000EF
:10420000C000C000C000C000C000C00080010003AA
:104210000000000000008001800180018001800119
:104220008001800180018001800180018001800186
:104230008001800180018001800180018001800176
:104240008001000000006000C000C001800180010A
:1042500080018001800100030003000600030001CB
:10426000800180018001800180018001C000600028
:10427000000000000000000000000000000000003E
:1042800000000000F010F81F080F00000000000000
:10429000000000000000000000000000000000001E
:1042A000000000007461626C652E63707000000095
:1042B000640100207068696C6F2E637070000000EC
:1042C00088010020B8010020E80100201802002029
:1042D000480200206E6F5F686561702E6370700029
:1042E000342E332E30300000716B000071615F6638
:1042F00069666F0071615F6765745F0071615F730C
:1043000075620000342E332E3030000071665F611C
:104310006374000071665F676300000000010202C1
:10432000030303030404040404040404050505054D
:104330000505050505050505050505050606060629
:10434000060606060606060606060606060606060D
:1043500006060606060606060606060607070707F9
:1043600007070707070707070707070707070707DD
:1043700007070707070707070707070707070707CD
:1043800007070707070707070707070707070707BD
:1043900007070707070707070707070708080808A9
:1043A000080808080808080808080808080808088D
:1043B000080808080808080808080808080808087D
:1043C000080808080808080808080808080808086D
:1043D000080808080808080808080808080808085D
:1043E000080808080808080808080808080808084D
:1043F000080808080808080808080808080808083D
:10440000080808080808080808080808080808082C
:1044100008080808080808080808080871665F6E98
:104420006577000071665F706F6F6C0071665F701A
:104430007370756200000000000102040810204043
:10444000800102040810204080010204081020406E
:10445000800102040810204080010204081020405E
:10446000800102040810204080010204081020404E
:10447000800102040810204080000000FFFEFDFBC8
:10448000F7EFDFBF7FFEFDFBF7EFDFBF7FFEFDFB3A
:10449000F7EFDFBF7FFEFDFBF7EFDFBF7FFEFDFB2A
:1044A000F7EFDFBF7FFEFDFBF7EFDFBF7FFEFDFB1A
:1044B000F7EFDFBF7FFEFDFBF7EFDFBF7F00000000
:1044C00000000000000000000001010101010101E5
:1044D00001020202020202020203030303030303B6
:1044E0000304040404040404040505050505050586
:1044F0000506060606060606060707070707070756
:1045000007000000716D705F67657400716D705F0A
:10451000696E697400000000716D705F70757400E1
:104520007174655F63746F72000000007174655F81
:1045300061726D000000000000000000000000003B
:10454000FD2B0008092C00087168736D5F696E69A6
:1045500000000000000000007168736D5F64697303
:1045600000000000342E332E303000000000000028
:10457000010000000200000003000000737461727B
:104580007475705F73746D3332663130785F636C4D
:10459000002020202020202020202020202020203B
:1045A000202020202000000000000000000000006B
:1045B000F92E00080D2F0008000000000000000088
:1045C000E52E0008212F000868756E67727920209B
:1045D00000656174696E672020007468696E6B699C
:1045E0006E670000000000000000000000000000F6
:1045F0003D2F0008512F00082020205175616E7456
:10460000756D204C656170732020202000202020D3
:104610002020445050206578616D706C652020200A
:1046200020002051502F432B2B2028514B29202094
:10463000202020202020004450503A002020737475
:104640006174652D6D616368696E652E636F6D20A1
:104650000030202C31202C32202C33202C342020F0
:1046600020200000F8B500BFF8BC08BC9E4670478B
:0C467000F8B500BFF8BC08BC9E467047BF
:0C467C00850100082920000865220008C4
:0446880061010008C4
:10468C00000000000014014000140140001401401F
:10469C00001401400008014000100140000C0140D2
:1046AC000014014000440040FFFF00000000000027
:1046BC0001020304010203040607080902040608A8
:0446CC0040000000AA
:04000005080001D11D
:00000001FF
