:020000040800F2
:100000001C080020D1010008B50100080000000014
:10001000B5010008B5010008B5010008B5010008E8
:10002000B5010008B5010008B5010008E93C000869
:10003000B5010008B5010008B53C00081D2C0008FA
:10004000B5010008B5010008B5010008B5010008B8
:10005000B5010008B5010008652C0008B5010008CD
:10006000B5010008B5010008B5010008B501000898
:10007000B5010008B5010008B5010008B501000888
:10008000B5010008B5010008B5010008B501000878
:10009000B5010008B5010008B5010008B501000868
:1000A000B5010008B5010008B5010008B501000858
:1000B000B5010008B5010008B5010008B501000848
:1000C000B5010008B5010008B5010008B501000838
:1000D000B5010008B5010008B5010008B501000828
:1000E000B5010008B5010008B5010008B501000818
:1000F000B5010008B5010008B5010008B501000808
:10010000B5010008B5010008B5010008B5010008F7
:10011000B5010008B5010008B5010008B5010008E7
:10012000B5010008B5010008B5010008B5010008D7
:10013000B5010008B501000800000000B501000885
:10014000B5010008B5010008B5010008B5010008B7
:04015000B5010008ED
:08015400983B000001000000CF
:1001600010B5054C237833B9044B13B10448AFF3F1
:1001700000800123237010BD440000200000000017
:100180005401000808B5064B1BB106480649AFF3F9
:1001900000800648036813B1054B03B1984708BDBA
:1001A0000000000054010008480000204400002026
:1001B00000000000684620F007018D4601B50348A5
:1001C00040F2511102F066FEFEE700BF1452000833
:1001D000684620F007018D4601B51C4B1C4A9A4227
:1001E00011D245F24432C0F6000240F20003C2F2DE
:1001F000000340F24400C2F2000052F8041B43F82E
:10020000041B8342F9D3134B134A9A420DD240F296
:100210004403C2F200034FF0000140F21C42C2F25C
:10022000000243F8041B9342FBD303F0AFFC02F03F
:10023000D5F945F21420C0F600004FF4A67102F083
:1002400029FEBDE801408546704700BF44000020FC
:10025000000000201C0400204400002082B04FF465
:100260008053C4F202031A6842F001021A6059680E
:100270004FF00002CFF2FF0201EA02025A601A6850
:1002800022F0847222F480321A601A6822F48022EA
:100290001A605A6822F4FE025A601A6822F0A052CC
:1002A0001A604FF47F029A60A2F57F02DA6201922F
:1002B00000921A6842F480321A604FF48053C4F2FC
:1002C00002031A6802F400320092019A02F101025C
:1002D0000192009A1AB9019AB2F5A06FF1D14FF4C8
:1002E0008053C4F202031B6813F4003F19BF0123BB
:1002F000009300230093009B012B63D14FF4005324
:10030000C4F202031A6842F010021A601A6822F05E
:1003100003021A601A6842F002021A604FF4805316
:10032000C4F202035A685A605A685A605A6842F422
:1003300080625A60D96A4FF47042CFF6FE7201EAC9
:100340000202DA62DA6A42F4823242F41172DA624A
:100350001A6842F080621A604FF48053C4F20203BC
:100360001A6812F0006FFBD04FF48053C4F20203FE
:100370005A6822F47C125A605A6842F4E8125A60B1
:100380001A6842F080721A604FF48053C4F202037C
:100390001A6812F0007FFBD04FF48053C4F20203BE
:1003A0005A6822F003025A605A6842F002025A6008
:1003B0004FF48053C4F202035A6802F00C02082A78
:1003C000FAD100E0FEE702B0704700BF30B583B05D
:1003D000054643F61054C0F6000454F820004FF0D0
:1003E000010101F0FFFB04EB4504248AADF8044051
:1003F0004FF010038DF807304FF003038DF80630EF
:1004000040F20403C2F2000353F8250001A901F0F1
:10041000D9F803B030BD00BF40F20402C2F20002BE
:1004200052F8202043F61053C0F6000303EB4003BC
:100430001B8A1361704700BF40F20402C2F200023F
:1004400052F8202043F61053C0F6000303EB40039C
:100450001B8A5361704700BF40F20402C2F20002DF
:1004600052F82020D16843F61053C0F6000303EB86
:1004700040031B8A83EA0103D3607047F0B585B05F
:1004800005460F4643F61054C0F600044FEA8006B6
:1004900004EB0603986940F001004FF0010101F000
:1004A000A1FB04EB4504A48CADF80C404FF0040311
:1004B0008DF80F3040F20403C2F200031E4430698D
:1004C00003A901F07FF8012F37D143F61054C0F68D
:1004D000000404EB450494F82C0094F8341001F067
:1004E00059F9A38F01934FF000038DF8083025B11F
:1004F0004FF00C038DF8093003E04FF008038DF83E
:1005000009304FF001048DF80A4001A800F03EFFC9
:1005100043F61053C0F6000303EB4505B5F844302D
:100520008DF800304FF00F038DF801308DF8023058
:100530008DF80340684600F09FFE05B0F0BD00BF97
:1005400008B540F20402C2F2000202EB8002126916
:1005500043F61053C0F6000303EB4003998C10469A
:1005600001F09EF808BD00BFF0B583B004460F4609
:1005700043F61053C0F6000303EB8003D86C40F041
:1005800001004FF0010101F02DFB84B94FF008008C
:100590004FF0010101F0C2F843F61053C0F600031A
:1005A00003EB8403186D4FF0010101F02FFB43F6BC
:1005B0001055C0F6000505EB4405B5F85430ADF80C
:1005C00004304FF018038DF807304FF003038DF817
:1005D000063040F20403C2F2000303EB8404E06936
:1005E00001AE314600F0EEFFB5F85850ADF80450BA
:1005F0004FF004038DF80730E069314600F0E2FF68
:10060000206A394601F024FE206A4FF0010101F012
:10061000A9FE03B0F0BD00BF84B001904FF000030D
:100620000393019A48F2A063C0F2010303FB02F3B3
:100630000393039B33B1039B03F1FF330393039BAA
:10064000002BF8D104B0704782B0ADF80600BDF8B9
:10065000062092B240F26003C2F200031A8002B098
:10066000704700BF82B0ADF80600BDF8062092B218
:1006700040F22803C2F200031A8002B0704700BFA4
:1006800070B506464FF47050C4F200004FEA1621D0
:1006900001F0E2FC4FF47054C4F200044FF0800506
:1006A0002046294601F042FD0028F9D14FF4705050
:1006B000C4F20000F1B201F0CFFC4FF47054C4F268
:1006C00000044FF080052046294601F02FFD002848
:1006D000F9D170BD00B583B04FF008004FF00101B3
:1006E00001F080FA4FF00403ADF804304FF003033B
:1006F0008DF806304FF010038DF807304FF440604E
:10070000C4F2010001A900F05DFF03B000BD00BF0D
:1007100008B500F0DDFF08BD38B504464FF4406071
:10072000C4F201004FF004014FF00002FFF7F0FFA8
:100730004FF47050C4F20000214601F08DFC4FF4DC
:100740007054C4F200044FF080052046294601F0A1
:10075000EDFC0028F9D138BD70B506464FF07000A9
:10076000FFF7DAFF4FF47050C4F200004FF00001C1
:1007700001F072FC4FF47054C4F200044FF0800595
:100780002046294601F0D2FC0028F9D14FF47050E0
:10079000C4F20000314601F05FFC4FF47054C4F223
:1007A00000044FF080052046294601F0BFFC0028D8
:1007B000F9D14FF44060C4F201004FF004014FF052
:1007C0000102FFF7A5FF70BD08B54FF02200FFF74B
:1007D000C3FF4FF07200FFF79FFF08BD70B50E46D4
:1007E000FFF7BAFF4FF07200FFF796FF4FF470501B
:1007F000C4F200004FEA162101F02EFC4FF47054B1
:10080000C4F200044FF080052046294601F08EFC1A
:100810000028F9D14FF47050C4F20000F1B201F099
:100820001BFC4FF47054C4F200044FF080052046C6
:10083000294601F07BFC0028F9D14FF44060C4F256
:1008400001004FF004014FF00102FFF761FF70BD9E
:1008500008B54FF007004FF00001FFF7BFFF08BDDC
:1008600008B54FF0070040F27311FFF7B7FF08BD5E
:1008700008B54FF010004FF00001FFF7AFFF4FF049
:1008800011004FF00001FFF7A9FF4FF012004FF0E9
:100890000001FFF7A3FF4FF013004FF00001FFF737
:1008A0009DFF4FF01400FFF7B7FE4FF0100041F22C
:1008B000B071FFF793FF4FF0110040F23711FFF7CF
:1008C0008DFF4FF00500FFF7A7FE4FF0120040F23A
:1008D0003911FFF783FF4FF00500FFF79DFE4FF042
:1008E00013004FF4E851FFF779FF4FF029004FF064
:1008F0001301FFF773FF4FF00500FFF78DFE4FF078
:10090000070040F27311FFF769FF08BD10B50346F9
:100910000C464FF020001946FFF760FF4FF0210012
:100920002146FFF75BFF10BD70B504460D461E461D
:10093000904209D300F10101C2EB010291B24FF0E4
:100940005000FFF74BFF05E04FF050004FF0000163
:10095000FFF744FF4FF051002146FFF73FFFB5423C
:1009600009D305F10101C6EB0106B1B24FF0520007
:10097000FFF734FF05E04FF052004FF00001FFF7A2
:100980002DFF4FF053002946FFF728FF2046294648
:10099000FFF7BCFF70BD00BF08B54FF0EF0040F29D
:1009A0003F114FF0F0024FF4A073FFF7BDFF4FF07F
:1009B000030041F21801FFF711FF08BD10B504460E
:1009C000FFF702FF2046FFF75BFE4FF44060C4F2E2
:1009D00001004FF004014FF00102FFF799FE10BD36
:1009E0002DE9F04F85B0029003914FEA4203C3F125
:1009F0000303019315460E460F46804682464FF08C
:100A0000000940F26004C2F200041FFA85FB039A59
:100A10000BEB02039BB2009350461946FFF776FF9B
:100A2000208880B2FFF7CAFF039BCBEB030B1FFAB2
:100A30008BFB50465946FFF769FF208880B2FFF7CD
:100A4000BDFF40460099FFF761FF208880B2FFF7A5
:100A5000B5FF40465946FFF759FF208880B2FFF79F
:100A6000ADFFEAB20092029B02EB030B5FFA8BFB35
:100A700058463946FFF74AFF208880B2FFF79EFFAD
:100A800058463146FFF742FF208880B2FFF796FFB5
:100A9000029A009BC3EB020B5FFA8BFB5846394668
:100AA000FFF734FF208880B2FFF788FF58463146B1
:100AB000FFF72CFF208880B2FFF780FF019A002A01
:100AC000BDBF02EB890306330193019AA1BF02F176
:100AD0000A03C5EB090203EB82020192A8BF05F1EC
:100AE000FF3509F101090AF1010A5FFA8AFA08F1F2
:100AF000FF385FFA88F807F10107BFB206F1FF3649
:100B0000B6B24D4581D205B0BDE8F08F2DE9F04178
:100B10004FF47053C4F200031A8822F038024FEAEF
:100B200002424FEA12421A801A8892B242F0080238
:100B30001A80FFF711FE4FF07300FFF7EDFD4FF045
:100B400000074FF47054C4F200044FF0FF084FF058
:100B500080054FF001062046414601F07DFA20460F
:100B6000294601F0E3FA0028F9D12046314601F088
:100B7000DDFA0028F9D0204601F070FA07F10107EC
:100B8000FFB2052FE7D14FF47050C4F200004FF0D0
:100B9000FF0101F061FA4FF47054C4F200044FF009
:100BA00080052046294601F0C1FA0028F9D14FF40A
:100BB0007054C4F200044FF001052046294601F0AC
:100BC000B5FA0028F9D04FF47054C4F2000420465E
:100BD00001F044FA064620464FF0FF0101F03CFACE
:100BE0004FF47054C4F200044FF0800520462946AB
:100BF00001F09CFA0028F9D14FF47054C4F20004BB
:100C00004FF001052046294601F090FA0028F9D05E
:100C10004FF47054C4F20004204601F01FFA40EA79
:100C20000626B6B24FF44060C4F201004FF0040152
:100C30004FF00102FFF76CFD238823F038034FEAE1
:100C400003434FEA13432380B0B2BDE8F08100BFF5
:100C50002DE9F04706464FF0000040F23F11FFF744
:100C600055FEFFF7B1FD4FF00005A9464FF0010713
:100C7000DFF85480DFF854A018E007FA04F2735943
:100C80001A4205D1BAF8000080B2FFF7F9FC04E07F
:100C9000B8F8000080B2FFF7F3FC04F10104202C47
:100CA000EBD105F10405B5F5165F01D04C46E4E73C
:100CB0004FF44060C4F201004FF004014FF0010214
:100CC000FFF726FDBDE8F087600000202800002027
:100CD0002DE9F04104460E4690461D46FFF716FEEC
:100CE00025B14746B8F1000F1FD134E0FFF76CFD86
:100CF0004546B8F1000F0DD04FF0000440F26006F9
:100D0000C2F20006308880B2FFF7BAFC04F1010499
:100D1000AC42F7D34FF44060C4F201004FF004013D
:100D20004FF00102FFF7F4FC15E04FF0000540F230
:100D30006008C2F20008B8F8000080B2FFF73EFE7B
:100D400004F10104E4B220463146FFF7DFFD05F16E
:100D50000105BD42EFD3BDE8F08100BFF8B5044600
:100D60000D4617461E461A464FF00003FFF7B0FF28
:100D700007EB0400C0B2294632464FF00003FFF7EC
:100D8000A7FF204629463A464FF00103FFF7A0FF90
:100D900005F10105C6EB0506B1B220463A464FF013
:100DA0000103FFF795FFF8BD2DE9F84F82468B460A
:100DB0001646FFF7ABFD4FF0000540F26007C2F2A8
:100DC000000740F22808C2F200084FF44069C4F25C
:100DD0000109FFF7F9FC4FF00004735B43FA04F3D9
:100DE00013F0010F05D1B8F8000080B2FFF748FCFE
:100DF00003E0388880B2FFF743FC04F10104102CB3
:100E0000EBD148464FF004014FF00102FFF780FCA0
:100E10000AF1010A5FFA8AFA50465946FFF776FD51
:100E200005F10205302DD4D1BDE8F88F08B5C1F524
:100E30009E7101F1030189B243F66C53C0F60003C1
:100E4000A2F12002D2B202EB420203EB0212FFF740
:100E5000ABFF08BDF8B506460C4615461278B1F54D
:100E6000A07F2CBF00230123002A0CBF002303F026
:100E70000103ABB140F23F1730462146FFF7D6FFE2
:100E800004F11004A4B215F8012FBC428CBF00235A
:100E90000123002A0CBF002303F00103002BEBD138
:100EA000F8BD00BF08B545F22C22C0F600024FF095
:100EB0000001FFF7CFFF08BD38B505464FF0000031
:100EC00040F23F11FFF722FDFFF77EFC4FF00004D8
:100ED0002846FFF7D5FB04F10104B4F5963FF7D19E
:100EE0004FF44060C4F201004FF004014FF00102E2
:100EF000FFF70EFC38BD00BF30B587B04FF01100D2
:100F00004FF0010100F06EFE4FF48050C0F220005F
:100F10004FF0010100F002FC4FF400404FF00101DE
:100F200000F074FE4FF4E052ADF800204FF00303E0
:100F30008DF802304FF018038DF803304FF48050D5
:100F4000C4F20100694600F03DFB4FF47054C4F256
:100F50000004204600F016FF4FF00003ADF8043007
:100F60004FF48272ADF80620ADF808304FF002025F
:100F7000ADF80A204FF00105ADF80C504FF40072A7
:100F8000ADF80E20ADF81030ADF81230204601A9B2
:100F900000F032FF2046294601F01CF807B030BDB2
:100FA00008B5FFF797FBFFF7A7FF4FF00500FFF726
:100FB00033FB4FF0E5004FF40041FFF70FFC4FF01B
:100FC00000004FF00101FFF709FC4FF001004FF462
:100FD0008071FFF703FC4FF002004FF4E061FFF770
:100FE000FDFB4FF0030041F23001FFF7F7FB4FF03C
:100FF00004004FF00001FFF7F1FB4FF0080040F252
:101000000221FFF7EBFB4FF009004FF00001FFF763
:10101000E5FB4FF00A004FF00001FFF7DFFB4FF058
:101020000C004FF00001FFF7D9FB4FF00D004FF01F
:101030000001FFF7D3FB4FF00F004FF00001FFF767
:10104000CDFB4FF010004FF00001FFF7C7FB4FF052
:1010500011004FF00001FFF7C1FB4FF012004FF0FD
:101060000001FFF7BBFB4FF013004FF00001FFF74B
:10107000B5FB4FF01400FFF7CFFA4FF0100041F22C
:10108000B071FFF7ABFB4FF0110040F23711FFF7E3
:10109000A5FB4FF00500FFF7BFFA4FF0120040F23A
:1010A0003911FFF79BFB4FF00500FFF7B5FA4FF042
:1010B00013004FF4E851FFF791FB4FF029004FF078
:1010C0001301FFF78BFB4FF00500FFF7A5FA4FF078
:1010D00020004FF00001FFF781FB4FF021004FF09F
:1010E0000001FFF77BFB4FF030004FF00601FFF7E8
:1010F00075FB4FF0310040F20111FFF76FFB4FF02D
:1011000032004FF00301FFF769FB4FF035004FF459
:101110008371FFF763FB4FF0360040F60231FFF7B3
:101120005DFB4FF0370040F20231FFF757FB4FF005
:10113000380040F20771FFF751FB4FF039004FF0D4
:101140000701FFF74BFB4FF03C004FF4C061FFF786
:1011500045FB4FF03D0040F20B21FFF73FFB4FF006
:1011600050004FF00001FFF739FB4FF051004FF0F6
:10117000EF01FFF733FB4FF052004FF00001FFF794
:101180002DFB4FF0530040F23F11FFF727FB4FF0CC
:1011900060004FF41C51FFF721FB4FF061004FF04E
:1011A0000101FFF71BFB4FF06A004FF00001FFF752
:1011B00015FB4FF080004FF00001FFF70FFB4FF0E1
:1011C00081004FF00001FFF709FB4FF082004FF064
:1011D0000001FFF703FB4FF083004FF00001FFF722
:1011E000FDFA4FF084004FF00001FFF7F7FA4FF0DF
:1011F00085004FF00001FFF7F1FA4FF090004FF03B
:101200001001FFF7EBFA4FF092004FF00001FFF7EB
:10121000E5FA4FF093004FF00301FFF7DFFA4FF0CC
:1012200095004FF48871FFF7D9FA4FF097004FF00F
:101230000001FFF7D3FA4FF098004FF00001FFF7DD
:10124000CDFA4FF0030041F21801FFF7C7FA4FF053
:10125000070040F27311FFF7C1FA08BD08B5FFF7A8
:101260009FFE08BD40F0BE6040F420204FF46D4367
:10127000CEF20003D8607047C37873B34FF46D4368
:10128000CEF20003DB686FEA0303C3F30223C3F16A
:101290000402417801FA02F24FF00F0121FA03F142
:1012A00090F802C001EA0C0141EA020102784FEA1B
:1012B0000111C9B24FF46143CEF200031A4482F81F
:1012C000001302784FEA521102F01F024FF00100A2
:1012D00000FA02F243F8212010E003784FEA53129B
:1012E00003F01F034FF0010101FA03F14FF46143D2
:1012F000CEF2000302F1200243F82210704700BF33
:1013000021F0604121F07F0141EA00004FF46D437C
:10131000CEF200039860704741B14FF46D43CEF2B6
:1013200000031A6940EA0200186107E04FF46D43B8
:10133000CEF200031A6922EA00001861704700BF6C
:10134000042801BF4EF21003CEF200031A6842F0E7
:1013500004020FBF1A604EF21003CEF200031A68A7
:101360001CBF22F004021A60704700BF4FF4806374
:10137000C4F201034FF000021A605A609A60DA600A
:101380004FF6FF72C0F20F025A6170478379002B4B
:101390003ED04FF48063C4F201031A68016822EA68
:1013A00001021A605A68016822EA01025A60027951
:1013B00002F1804202F58232D2F800C001684CEAA4
:1013C000010111609A68016822EA01029A60DA68F4
:1013D000016822EA0102DA604379102B0ED14FF442
:1013E0008063C4F201039968026841EA02029A60CC
:1013F000D968026841EA0202DA6013E003F180432F
:1014000003F582331968026841EA02021A6009E0B2
:10141000037903F1804303F582331A68016822EAF5
:1014200001021A60704700BF4FF0000303600371B0
:101430004FF00C0242718371704700BF4FF480631C
:10144000C4F201031A6940EA02001861704700BF44
:101450004FF48063C4F201035B6918420CBF0020A3
:10146000012070474FF48063C4F201035861704754
:101470004FF48063C4F201031A685B69184208BF25
:10148000002003D010420CBF00200120704700BF95
:101490004FF48063C4F201035861704708B54FF4FC
:1014A0000063C4F2010398420CD14FF004004FF0E6
:1014B000010100F0D3FB4FF004004FF0000100F0F9
:1014C000CDFB70E04FF44063C4F2010398420CD1AD
:1014D0004FF008004FF0010100F0C0FB4FF0080092
:1014E0004FF0000100F0BAFB5DE04FF48053C4F20E
:1014F000010398420CD14FF010004FF0010100F0B1
:10150000ADFB4FF010004FF0000100F0A7FB4AE0E8
:101510004FF4A053C4F2010398420CD14FF02000C5
:101520004FF0010100F09AFB4FF020004FF0000156
:1015300000F094FB37E04FF4C053C4F2010398422B
:101540000CD14FF040004FF0010100F087FB4FF04D
:1015500040004FF0000100F081FB24E04FF4E05325
:10156000C4F2010398420CD14FF080004FF001010A
:1015700000F074FB4FF080004FF0000100F06EFBB4
:1015800011E04FF40053C4F2010398420BD14FF421
:1015900080704FF0010100F061FB4FF480704FF05C
:1015A000000100F05BFB08BD08B54FF001000146EB
:1015B00000F054FB4FF001004FF0000100F04EFB33
:1015C00008BD00BF2DE9F005CB7803F00F0413F040
:1015D000100F1CBF8B781C430B7833B307684FF098
:1015E00000034FF001054FF00F0805FA03F2B1F8C0
:1015F00000C002EA0C0C944512D14FEA830608FAA7
:1016000006FA27EA0A0704FA06F647EA0607CE783A
:10161000282E08BFC0F814C002D0482E08BF0261AF
:1016200003F10103082BE0D107600B88FF2B2AD9B7
:1016300047684FF000034FF001054FF00F0803F12A
:10164000080205FA02F2B1F800C002EA0C0C944557
:1016500014D14FEA830608FA06FA27EA0A0704FAC1
:1016600006F647EA0607CE78282E08BFC0F814C051
:1016700091F803C0BCF1480F08BF026103F10103F8
:10168000082BDCD14760BDE8F00570474FF0FF3311
:1016900003804FF0020383704FF00403C370704760
:1016A000836819420CBF002001207047806880B217
:1016B000704700BFC36819420CBF0020012070476B
:1016C000C06880B2704700BF0161704741617047D8
:1016D0000AB1016100E04161704700BFC16070471D
:1016E00041F48033836181618361836983697047D9
:1016F0004FF00003C4F20103D3F800C04FF680722C
:101700000CEA020241EA001040EA02021A60704745
:101710004FF01C03C4F220231860704710B44FF040
:101720000003C4F201035B681FFA80FC00F440125E
:10173000B2F5401F0AD123F070634FF00002C4F2EB
:101740000102546824F07064546013E010F4801FA8
:101750001FBFC0F30342032404FA02F2934311BFF4
:1017600043F07063420D12010CFA02F204BF93437E
:1017700043F0706339B14FEA50504FEA00100CFA51
:1017800000FC43EA0C034FF00002C4F20102536074
:1017900010BC704710B401F003024FEA82024FEA16
:1017A00091014FF00003C4F2010301F1020153F86B
:1017B00021404FF00F0C0CFA02FC24EA0C0C43F809
:1017C00021C053F821C000FA02F242EA0C0243F8A9
:1017D000212010BC704700BF4FF0DC03C4F220236F
:1017E000186070474FF48053C4F202031A6842F045
:1017F00001021A6059684FF00002CFF2FF0201EABD
:1018000002025A601A6822F0847222F480321A604E
:101810001A6822F480221A605A6822F4FE025A6082
:101820001A6822F0A0521A604FF47F029A604FF0BB
:101830000002DA62704700BF4FF48053C4F2020323
:101840001A6822F480321A601A6822F480221A6020
:10185000B0F5803F03D0B0F5802F11D108E04FF4F0
:101860008053C4F202031A6842F480321A6007E01F
:101870004FF48053C4F202031A6842F4A0221A60A3
:10188000704700BF4FF48053C4F202031A6822F07D
:10189000F80242EAC0001860704700BF4FF0000332
:1018A000C4F24223186070474FF48053C4F202031D
:1018B0005A6822F4741240EA020040EA01005860BB
:1018C000704700BF4FF06003C4F2422318607047B6
:1018D0004FF48053C4F20203DA6A22F4803222F019
:1018E0000F0240EA020040EA0100D862704700BFE0
:1018F0004FF48053C4F20203DA6A22F0F00240EAA5
:101900000200D862704700BF4FF48053C4F2020354
:10191000DA6A22F4706240EA0200D862704700BFBF
:101920004FF06803C4F24223186070474FF48053AD
:10193000C4F20203DA6A22F4704240EA0200D8627A
:10194000704700BF4FF07003C4F242231860704725
:101950004FF48053C4F202035A6822F0030240EAB3
:1019600002005860704700BF4FF48053C4F2020376
:10197000586800F00C0070474FF48053C4F2020323
:101980005A6822F0F00240EA02005860704700BF37
:101990004FF48053C4F202035A6822F4E06240EA32
:1019A00002005860704700BF4FF48053C4F2020336
:1019B0005A6822F4605242EAC0005860704700BF83
:1019C00041B141F20903C4F202031A7840EA02006D
:1019D000187007E041F20903C4F202031A7822EA00
:1019E00000001870704700BF4FF0D803C4F24223C4
:1019F000186070474FF48053C4F202035A6822F40F
:101A0000404240EA02005860704700BF40F2C453B1
:101A1000C4F24223186070474FF4B963C4F2422302
:101A2000186070474FF48153C4F202034FF0000274
:101A30001A701A70012802D004280FD107E04FF461
:101A40008153C4F202034FF001021A7006E04FF412
:101A50008153C4F202034FF005021A70704700BFB1
:101A60004FF49063C4F24223186070474FF48053E0
:101A7000C4F202031A6A40EA02001862704700BF0B
:101A800040F23C43C4F242231860704710B44FF454
:101A90008053C4F202035B6803F00C03042B02BF03
:101AA00047F64003C0F27D13036059D0082B07D0DE
:101AB000002B50D14FF49053C0F27A0303604FE0F3
:101AC0004FF48053C4F2020359685A6802F480321A
:101AD000C1F383430D2B14BF023306233AB94FF4ED
:101AE0001062C0F23D0202FB03F3036038E04FF4E2
:101AF0008052C4F20202D16AD26A02F00F0202F1ED
:101B0000010211F4803F09D147F64001C0F27D1176
:101B1000B1FBF2F202FB03F3036021E04FF48051CA
:101B2000C4F20201CC6AD1F82CC0C4F3031404F14E
:101B3000010447F64001C0F27D11B1FBF4F1CCF392
:101B4000032C0CF1020C0CFB01F1B1FBF2F202FBD5
:101B500003F3036004E04FF49053C0F27A03036090
:101B60004FF48052C4F202025168C1F3031140F2F3
:101B70002C03C2F20003595CD0F800C02CFA01F12A
:101B80004160D2F804C0CCF3022C13F80CC021FA47
:101B90000CFCC0F808C0D2F804C0CCF3C22C13F877
:101BA0000CC021FA0CF1C1605268C2F381321344B7
:101BB0001B7CB1FBF3F1016110BC704741B14FF4E4
:101BC0008053C4F202035A6940EA0200586107E0F8
:101BD0004FF48053C4F202035A6922EA00005861AC
:101BE000704700BF41B14FF48053C4F202039A69B9
:101BF00040EA0200986107E04FF48053C4F2020308
:101C00009A6922EA00009861704700BF41B14FF421
:101C10008053C4F20203DA6940EA0200D86107E0A7
:101C20004FF48053C4F20203DA6922EA0000D8615B
:101C3000704700BF41B14FF48053C4F202039A6A67
:101C400040EA0200986207E04FF48053C4F20203B6
:101C50009A6A22EA00009862704700BF41B14FF4CF
:101C60008053C4F20203DA6840EA0200D86007E059
:101C70004FF48053C4F20203DA6822EA0000D8600D
:101C8000704700BF41B14FF48053C4F202031A6998
:101C900040EA0200186107E04FF48053C4F20203E7
:101CA0001A6922EA00001861704700BF4FF4886388
:101CB000C4F24223186070474FF04C03C4F2422331
:101CC0001860704741F20703C4F2020318707047AE
:101CD0004FEA5013012B05D14FF48053C4F2020395
:101CE0001A680CE0022B03BF4FF48053C4F20203C6
:101CF0001A6A4FF480531CBFC4F202035A6A00F000
:101D00001F004FF0010303FA00F002420CBF002055
:101D10000120704710B582B04FF0000301934FF0DF
:101D200031042046FFF7D4FF019B03F10103019327
:101D3000019BB3F5A06F01D00028F2D04FF0310025
:101D4000FFF7C6FF003818BF012002B010BD00BF6A
:101D50004FF48053C4F202035A6A42F080725A620E
:101D6000704700BF4FF48053C4F202039B681842CF
:101D70000CBF00200120704741F20A03C4F20203A5
:101D80001870704708B54FF44053C4F201039842ED
:101D90000CD14FF480504FF00101FFF75FFF4FF47B
:101DA00080504FF00001FFF759FF24E04FF46053DB
:101DB000C4F2000398420CD14FF480404FF001016F
:101DC000FFF760FF4FF480404FF00001FFF75AFF2C
:101DD00011E04FF47053C4F2000398420BD14FF45A
:101DE00000404FF00101FFF74DFF4FF400404FF06E
:101DF0000001FFF747FF08BD028802F44152B1F825
:101E000002C00B884CEA0303B1F804C043EA0C0398
:101E1000B1F806C043EA0C03B1F808C043EA0C036A
:101E2000B1F80AC043EA0C03B1F80CC043EA0C0352
:101E3000B1F80EC043EA0C0342EA03039BB20380ED
:101E4000838B23F400634FEA03434FEA13438383F6
:101E50000B8A0382704700BFF0B587B005460C4679
:101E6000838B23F47A6323F01F034FEA03434FEA83
:101E7000134383834FF002010184868BB6B223891A
:101E8000022B04BF0022022371D0A788002F14BFA9
:101E9000022701274FF46053C4F20003984214BF95
:101EA0004FF480214FF400314FF48053C4F2020309
:101EB000DA6A114223D04FF48053C4F20203DB6A82
:101EC000C3F30333A3F10602082A98BF023302D9F1
:101ED0000F2B08BF14234FF48052C4F20202D16AC0
:101EE000C1F3031101F1010147F64002C0F27D1276
:101EF000B2FBF1F24FEA420203FB02F303E001A856
:101F0000FFF7C4FD019BE188B1F5007F0CD14FEADA
:101F1000132303EB83034FEA43032289B3FBF2F35A
:101F200003F105039BB20DE04FEA4717B3FBF7F748
:101F300007EB87074FEA47032289B3FBF2F303F16C
:101F400005039BB24CF6CD42CCF6CC42A2FB031368
:101F50004FEAD30303F001024FEA5303A3F1020156
:101F600089B2FD2999BF120292B20022022343EAEC
:101F70000203E28843EA02032B84238846EA030330
:101F800043F40063628843EA0203A28843EA02033F
:101F9000628943EA02039BB2AB8307B0F0BD00BF86
:101FA0004FF00003038043808380C380038143811B
:101FB0008381C3814FF00703038270474FF0000312
:101FC000038043808380C3804FF0020202814381FB
:101FD000704700BF29B103889BB243F040030380E0
:101FE00007E0038823F040034FEA03434FEA13431B
:101FF0000380704729B1838B9BB243F48063838352
:1020000007E0838B23F480634FEA03434FEA1343D3
:10201000838370474FEA11114FF0010303FA01F176
:1020200089B22AB183889BB241EA0301818004E02E
:1020300083889BB223EA0101818070472AB183889B
:102040009BB241EA0301818004E083889BB223EACA
:1020500001018180704700BF81817047808980B213
:10206000704700BF4FF6FF6399421FBF03889BB2C2
:1020700043F48073038001BF038823F480731B043F
:102080001B0C08BF0380704729B183889BB243F0C3
:102090000403838007E0838823F004034FEA0343AB
:1020A0004FEA134383807047038823F400634FEAA9
:1020B00003434FEA1343038003889BB241EA0301C1
:1020C0000180704703889BB243F4805303807047BC
:1020D00029B103889BB243F40053038007E00388CF
:1020E00023F400534FEA03434FEA1343038070473E
:1020F000012919BF008B80B2808A80B2704700BF6F
:10210000008A80B2704700BFB1F5804F01BF0388DD
:102110009BB243F4804303801FBF038823F48043B2
:102120001B041B0C18BF0380704700BF03891942B2
:102130000CBF0020012070476FEA010189B20181C4
:10214000704700BF83881FFA83FC028992B201F0B6
:102150000F034FF0010000FA03F31A4208BF0020FA
:1021600008D04FEA111100FA01F11CEA010F0CBF6F
:1021700000200120704700BF01F00F014FF0010364
:1021800003FA01F36FEA03039BB20381704700BFB8
:1021900008B54FF46053C4F2010398420CD14FF4D8
:1021A00080404FF00101FFF759FD4FF480404FF0A0
:1021B0000001FFF753FD4AE04FF48843C4F20003E7
:1021C00098420CD14FF400304FF00101FFF75AFD57
:1021D0004FF400304FF00001FFF754FD37E04FF4AB
:1021E0009043C4F2000398420CD14FF480204FF08A
:1021F0000101FFF747FD4FF480204FF00001FFF78A
:1022000041FD24E04FF49843C4F2000398420CD1FE
:102210004FF400204FF00101FFF734FD4FF4002090
:102220004FF00001FFF72EFD11E04FF4A043C4F280
:10223000000398420BD14FF480104FF00101FFF7DB
:1022400021FD4FF480104FF00001FFF71BFD08BD8A
:1022500030B587B004460D46038A23F440534FEA55
:1022600003434FEA1343CA8843EA02030382838984
:1022700023F4B05323F00C034FEA03434FEA134314
:102280000989AA8841EA0202698942EA010292B2F6
:1022900042EA03038381838A23F440734FEA0343B2
:1022A0004FEA1343AA8943EA0203838201A8FFF796
:1022B000EDFB4FF46053C4F201039C420CBF049940
:1022C000039901EB810101EB81012B684FEA830344
:1022D000B1FBF3F148F21F53C5F2EB13A3FB01026C
:1022E0004FEA52124FF0640002FB10114FEA011145
:1022F00001F13201A3FB0103C3F3431343EA0212CA
:1023000092B2228107B030BD4FF4165303604FF0F4
:1023100000038380C38003814FF00C0242818381DC
:10232000704700BF038A23F470634FEA03434FEA08
:102330001343B1F802C00A884CEA0202B1F804C0A3
:1023400042EA0C02C98842EA010292B242EA03035D
:10235000038270474FF00003038043808380C38073
:10236000704700BF29B183899BB243F40053838136
:1023700007E0838923F400534FEA03434FEA1343F2
:1023800083817047C1F3421301F01F014FF0010C2C
:102390000CFA01F1634508BF0C3003D0022B0CBFCF
:1023A0001030143022B1036843EA0101016003E0F8
:1023B000036823EA01010160704700BF2AB1838AE4
:1023C0009BB241EA0301818204E0838A9BB223EA43
:1023D00001018182704700BF038A23F00F034FEA97
:1023E00003434FEA13430382038A9BB241EA03018A
:1023F00001827047838923F400634FEA03434FEA65
:102400001343838183899BB241EA03018181704731
:1024100029B183899BB243F00203838107E083895A
:1024200023F002034FEA03434FEA134383817047CB
:10243000038A23F020034FEA03434FEA1343038246
:10244000038A9BB241EA03010182704729B1038AE2
:102450009BB243F48043038207E0038A23F4804362
:102460004FEA03434FEA1343038270474FEAC151D7
:102470004FEAD1518180704780884FEAC0504FEABF
:10248000D050704783899BB243F00103838170472A
:10249000038BDBB20383038B9BB243EA01210183ED
:1024A000704700BF038B03F47F430383038B9BB20E
:1024B00041EA03010183704729B1838A9BB243F04B
:1024C0002003838207E0838A23F020034FEA03433B
:1024D0004FEA13438382704729B1838A9BB243F04A
:1024E0001003838207E0838A23F010034FEA03433B
:1024F0004FEA13438382704729B1838A9BB243F02A
:102500000803838207E0838A23F008034FEA03432A
:102510004FEA134383827047838A23F004034FEA10
:1025200003434FEA13438382838A9BB241EA030148
:102530008182704729B1838A9BB243F00203838270
:1025400007E0838A23F002034FEA03434FEA134371
:1025500083827047038819420CBF00200120704716
:102560006FEA010189B20180704700BFC1F34213D5
:1025700001F01F024FF0010C0CFA02FC012B04D1F8
:10258000828992B20CEA02020AE0022B03BF028A9D
:1025900092B20CEA0202828A1CBF92B20CEA0202D8
:1025A0004FEA11214FF0010303FA01F103889BB2B6
:1025B00019420CBF00230123002A0CBF002003F0A6
:1025C000010070474FEA11214FF0010303FA01F3B4
:1025D0006FEA03039BB20380704700BF2DE9F0450B
:1025E00085B000F077FB00F0A9FC40F26404C2F271
:1025F000000420464FF0070100F084FF04F138008A
:102600004FF050014FF0080200F038FF194F4FF023
:1026100000042546DFF8608026464FF0050A05F1E4
:102620000105EDB257F8040F04EB840208EB8202B7
:102630000096019602962946534600F087FC04F165
:102640000104052DEBD144F64873C0F60003186869
:102650004FF000040094019402944FF00601074AE1
:102660004FF0050300F072FC00F0DAFC204605B0E4
:10267000BDE8F085544F0008EC0000205001002018
:10268000F8B504460B88062B00F0FB80082B03D01E
:10269000052B40F0FB804DE00D79042D03D800EBB5
:1026A0000503DB7F3BB144F63C70C0F600004FF001
:1026B0005E0100F0EDFB45F26821C0F600012846FE
:1026C00000F0ECFB05F1010346F26762C6F26662B8
:1026D00082FB03124FEA620202EB8202C2EB0303A7
:1026E000DBB204EB0302927EEAB904EB0502927EB0
:1026F000CAB904EB05014FF001028A7623449A76A9
:102700004FF006004FF0040100F072FE057100F07A
:1027100001FF45F27421C0F60001284600F0BEFB1F
:102720004FF00000B9E02C444FF00103E3774FF085
:102730000000B2E00D79042D03D800EB0503DB7F28
:102740003BB144F63C70C0F600004FF0710100F060
:102750009FFB45F28021C0F60001284600F09EFB59
:1027600005F1010346F26766C6F2666686FB03263C
:102770004FEA660606EB8606C6EB0306F6B204EBE6
:1027800005039B7E012B04D104EB06039B7E012BEA
:1027900007D044F63C70C0F600004FF0760100F020
:1027A00077FB04EB05024FF00003937604EB06027F
:1027B000937605F1040346F26767C6F2666787FB06
:1027C00003174FEA670707EB8707C7EB0307FFB25B
:1027D00004EB0703DB7FEBB104EB07039B7ECBB974
:1027E00004EB07034FF001029A762544AA764FF0D6
:1027F0000002DA774FF006004FF0040100F0F8FD18
:10280000077100F087FE45F27421C0F600013846DA
:1028100000F044FB04EB0603DB7F4FF00000002BCD
:102820003BD006F1010346F26762C6F2666282FBA4
:1028300003124FEA620202EB8202C2EB0303DBB235
:1028400004EB0302927E4FF0000032BB23444FF0B2
:1028500001029A763444A2764FF00005E5774FF0F6
:1028600006004FF0040100F0C3FD067100F052FEB7
:1028700045F27421C0F60001304600F00FFB2846F7
:102880000BE000F05FFB4FF0000006E043F68533FD
:10289000C0F6000343604FF00300F8BD10B50446D6
:1028A0004FF0050100F0E8FC20464FF0060100F073
:1028B000E3FC42F28163C0F6000363604FF0020064
:1028C00010BD00BF42F69D03C0F600034360094BF4
:1028D00003604FF000038376C377C37680F820301F
:1028E000037780F82130437780F82230837780F8AF
:1028F000233070475052000810B540F26414C2F201
:1029000000042046FFF7DEFF43F61541C0F6000144
:1029100040F20002C2F20002204601F0E7F910BDC9
:1029200038B5064C40F28815C2F2000554F8303D27
:102930001B6820469847AC42F8D138BD7802002089
:1029400038B504460B8803F1FF33082B58D8DFE86D
:1029500003F005115737375757572F004FF0000531
:10296000C58500F11C0021464FF0140200F03AFF2B
:1029700028464CE04FF006004FF0050100F038FD0E
:1029800040F28813C2F20003C3EB04044FEA24149C
:1029900004EB840303EB031303EB032303EB034375
:1029A00004EB4304047100F0B5FD4FF000002EE08D
:1029B00042F61123C0F6000343604FF0020026E008
:1029C00040F28813C2F20003C3EB00044FEA241460
:1029D00004EB840303EB031304EB43040A7904F0D0
:1029E000FF04A24218BF002011D144F64C70C0F67B
:1029F00000004FF0A50100F04BFA4FF0000006E098
:102A000043F68533C0F6000343604FF0030038BD42
:102A100010B503460A8802F1FF32082A3AD8DFE8E7
:102A200002F0053939191939393911004FF000040C
:102A3000DC8503F11C0019464FF0320200F0D2FE93
:102A400020462EE042F6A522C0F600025A604FF062
:102A5000020026E040F28812C2F20002C2EB030339
:102A60004FEA231303EB830202EB021203EB420350
:102A7000097903F0FF03994218BF002011D144F6F1
:102A80004C70C0F600004FF0750100F001FA4FF0F5
:102A9000000006E043F68532C0F600025A604FF0AF
:102AA000030010BD10B504460B88042B27D0052B5E
:102AB00040D0012B5ED14FF006004FF0080100F02E
:102AC00097FC014640F28813C2F20003C3EB0404F2
:102AD0004FEA241404EB840303EB031303EB0323F7
:102AE00003EB034304EB4304047144F64873C0F65C
:102AF0000003186800F0F6FA4FF0000041E040F2E1
:102B00008813C2F20003C3EB00034FEA231303EB65
:102B1000830202EB021203EB4203097903F0FF0385
:102B2000994227D142F64113C0F6000343604FF0AB
:102B3000020026E040F28813C2F20003C3EB000457
:102B40004FEA241404EB840303EB031304EB430464
:102B50000A7904F0FF04A24218BF002011D144F604
:102B60004C70C0F600004FF08C0100F091F94FF06E
:102B7000000006E043F68533C0F6000363604FF0C3
:102B8000030010BD10B5044640F28813C2F20003E2
:102B900093F8F0303BB940F28813C2F200034FF0D3
:102BA000010283F8F02020464FF0040100F064FB9E
:102BB00042F61123C0F6000363604FF0020010BD1F
:102BC00010B5044642F68533C0F600034360044B5B
:102BD00040F81C3B4FF0090100F0EAFD204610BD13
:102BE0009852000838B540F28814C2F2000404F18B
:102BF000F0052046FFF7E4FF04F13004AC42F8D1C1
:102C000042F62111C0F6000140F20002C2F20002B9
:102C10004FF0000001F06AF838BD00BF684620F0B0
:102C200007018D4619B572B640F28524C2F2000440
:102C3000237803F10103DBB2237062B600F0CCFC11
:102C400072B6237803F1FF33DBB223704EF60453E0
:102C5000CEF200034FF080521A6062B6BDE8194010
:102C600085467047684620F007018D4631B572B63B
:102C700040F28524C2F20004237803F10103DBB2A1
:102C8000237062B64FF48063C4F201034FF0010277
:102C90005A6144F64873C0F600031D684FF0040003
:102CA0004FF0070100F0A4FB0146284600F01AFA95
:102CB00072B6237803F1FF33DBB223704EF6045370
:102CC000CEF200034FF080521A6062B6BDE8314088
:102CD0008546704710B582B0FDF7C0FA4FF000008E
:102CE000FDF774FB4FF00100FDF770FB4FF00200A1
:102CF000FDF76CFB4FF00300FDF768FB4FF000049D
:102D00008DF804404FF008038DF805304FF00103B3
:102D100000938DF806306846FEF738FBFEF79EFA02
:102D20004FF6FF70FEF7C8F84FF2DE70FDF79AFC21
:102D30002046FDF789FC45F2A022C0F6000220469D
:102D40002146FEF787F845F2B822C0F600024FF0A0
:102D500018002146FEF77EF845F2D022C0F60002A8
:102D60004FF030002146FEF775F800F0CDFA02462C
:102D70004FF030004FF0E001FEF76CF84FF6FF70B7
:102D8000FDF770FC45F2E822C0F600024FF0780033
:102D90002146FEF75FF82046FDF764FC4FF6E07031
:102DA000FDF752FC45F2F022C0F600024FF0D800C9
:102DB0002146FEF74FF84FF01F00FDF753FC4FF68A
:102DC000FF70FDF741FC45F20832C0F600024FF0FB
:102DD00078004FF04001FEF73DF802B010BD00BF93
:102DE00010B582B043F60053C0F600031A6848F2EB
:102DF0001F53C5F2EB13A3FB02134FEA5313B3F1B6
:102E0000807F16D223F07F4303F1FF324EF210038E
:102E1000CEF200035A604FF46D42CEF200024FF042
:102E2000F00182F823104FF000029A604FF0070281
:102E30001A604FF006038DF804304FF000048DF84F
:102E400005408DF806404FF001038DF8073001A8CA
:102E5000FEF712FA4FF46D43CEF200034FF010026A
:102E600083F823204FF46143CEF2000383F8064336
:102E700002B010BD704700BF08B572B64FF0030036
:102E8000FDF7CAFA4FF00300FDF7D6FA62B608BDA7
:102E900072B6FEE708B5FFF7FBFF08BD08B50B46A5
:102EA00000EB40004FEA001101F150011A784FF099
:102EB0007800FDF7BBFF08BD82B04FF0000301931F
:102EC000019B03F1FF320192002BF9D102B0704750
:102ED00008B544F66C70C0F600004FF02401FFF70F
:102EE000D7FF4FF0000008BD08B544F66C70C0F67F
:102EF00000004FF02901FFF7CBFF08BD08B544F6ED
:102F00006C70C0F600004FF02D01FFF7C1FF4FF0CD
:102F1000000008BD08B5FFF7DBFF08BD08B5FFF7E7
:102F2000E3FF08BD704700BF704700BF704700BF98
:102F300044F67870C0F60000704700BF08B500F096
:102F4000A7FE08BD08B5FFF795FF08BDF8B5044614
:102F50000D4617461E4601F1FF33DBB23E2B04D966
:102F600012484FF07001FFF793FF04F10800F2B22E
:102F7000394600F0BFF92576204600F0CBF9079BD3
:102F8000D3F1010338BF0023069A002A14BF00239F
:102F900003F0010323B905484FF07A01FFF778FFEA
:102FA0002046089900F05CFCF8BD00BF804F000887
:102FB00008B500F0CFF908BD40F27C23C2F200034F
:102FC0001B78002B24D040F27C22C2F20002117840
:102FD00044F6B473C0F60003585C00F1FF30C0B291
:102FE000024452789B5C03EBC000C0B240F2400345
:102FF000C2F200031B78834228BF002007D240F2B0
:103000008823C2F200031B78834228BF0020704748
:1030100040F24003C2F200031B784FF00000F6E7D5
:1030200008B572B64FF00002064B1A70FFF7C4FFE6
:1030300008B100F009F8FFF7D3FE62B6FFF71CFFF6
:10304000FCE700BF400000202DE9F04F83B040F2C4
:103050004003C2F2000393F800905FFA89FB40F24C
:103060008C27C2F20007984640F27C26C2F2000686
:1030700044F6B47AC0F6000A40F28823C2F2000394
:10308000019357F8205088F8000062B6284600F0F7
:1030900083F804462846214600F044FC204600F010
:1030A0007BF972B633789BB133781AF8030000F1DC
:1030B000FF30C0B206EB00035B781AF8033003EB75
:1030C000C000C0B2834503D2019A13788342D8D39B
:1030D00040F24003C2F2000383F8009003B0BDE861
:1030E000F08F00BF38B504460D4672B68B781BB121
:1030F000CB7803F10103CB70A3685BBBA560217E95
:1031000045F25813C0F60003585C40F27C23C2F22B
:1031100000031C7845F2D002C0F6000200F1010C59
:103120005FFA8CFC12F80CC044EA0C0C83F800C067
:1031300003445878525C40EA02025A7040F28523F8
:10314000C2F200031B7823BBFFF736FF08B3FFF77B
:103150007BFF1EE0E37C3BB944F68470C0F60000C0
:103160004FF04B01FFF794FE627CE36843F8225076
:10317000637C0BB9237C6374637C03F1FF3363745A
:10318000E37C03F1FF33DBB2E374227D9A4288BF14
:10319000237562B638BD00BF10B5044672B68368A9
:1031A0003BB944F68C70C0F600004FF03101FFF7D8
:1031B0006FFEA068E37C227C934210D0A17CD4F8FF
:1031C0000CC05CF821C0C4F808C001B9A274A27C8C
:1031D00002F1FF32A27403F10103E3742BE04FF01C
:1031E0000003A360217E45F25813C0F6000313F8D4
:1031F00001C040F27C23C2F2000363445C7845F2D4
:103200001412C0F60002525C04EA02025A705B78A3
:103210008BB940F27C23C2F20003197845F21412F4
:10322000C0F600020CF1010C5FFA8CFC12F80C20C5
:1032300001EA02021A7062B610BD00BF10B5044662
:103240003F2806D840F28C23C2F2000353F8203006
:103250003BB944F68C70C0F600004FF05A01FFF7FE
:1032600017FE72B662B640F28C23C2F2000353F826
:103270002430187D10BD00BF38B50D46047E0329EB
:1032800017D940F21043C2F200031A88231E18BF58
:1032900001238A4294BF002303F001034BB13F2C6A
:1032A00007D840F28C23C2F2000353F82430834243
:1032B00007D044F69470C0F600004FF02F01FFF7DE
:1032C000E7FD72B640F20C43C2F200031B6803EB49
:1032D000C50545F25813C0F600031A5D45F2D00348
:1032E000C0F60003A95C1B5D41EA0303AB5462B660
:1032F00038BD00BF4FF000030360416002724372AB
:103300008372C2720273704744F69C70C0F600006C
:10331000704700BF38B50546047E04F1FF33DBB2C9
:103320003E2B06D840F28C23C2F2000353F824301F
:1033300023B107484FF04101FFF7AAFD72B640F2F2
:103340008C23C2F2000343F8245062B638BD00BF9C
:10335000A44F000810B5047E04F1FF33DBB23E2B0E
:1033600007D840F28C23C2F2000353F82430834282
:1033700004D008484FF05501FFF78AFD72B640F2BD
:103380008C23C2F200034FF0000243F8242062B6FF
:1033900010BD00BFA44F000838B50446857835B38A
:1033A00072B6C378012B04D903F1FF33C37062B640
:1033B0001DE005F1FF35EDB262B640F29033C2F286
:1033C00000031B78AB4207D844F6AC70C0F600008F
:1033D0004FF04701FFF75CFD05EB850540F29433A4
:1033E000C2F2000303EB8500214600F0C1F938BDAD
:1033F0002DE9F047054689464FF0000440F2943627
:10340000C2F2000640F29037C2F2000745F2B4085B
:10341000C0F600084FF02F0A09E004F10104E4B2FD
:103420003B78A34203D840465146FFF731FD04EBF9
:10343000840306EB83039B89AB42EED304EB840049
:1034400040F29433C2F2000303EB800000F0FAF87C
:10345000054638B945F2B400C0F600004FF03B0114
:10346000FFF716FDA5F8009004F10104AC704FF0D1
:103470000003EB702846BDE8F08700BFF8B50646AC
:103480000F46154640F29033C2F200031B78052B1D
:1034900007D945F2BC00C0F600004FF03101FFF73C
:1034A000F7FC40F29033C2F200031B78A3B140F264
:1034B0009032C2F2000203F1FF3303EB830302EB0D
:1034C0008302138AAB4207D345F2BC00C0F600006A
:1034D0004FF03401FFF7DCFC40F29034C2F20004FC
:1034E00004F10402237803EB830302EB83003146EB
:1034F0003A462B4600F0D8F8237803F101032370F5
:10350000F8BD00BF40F20C43C2F20003186099807E
:10351000704700BF2DE9F04F83B0074640F21043DB
:10352000C2F2000302881B889A4207D345F2C40006
:10353000C0F600004FF03001FFF7AAFC72B6BB786E
:103540001BB1FB7803F10103FB7062B64FF0080B6F
:1035500044F6B47AC0F6000A45F21419C0F6000920
:1035600040F28C26C2F200060BF1FF3B5FFA8BFBA8
:103570003A8840F20C43C2F200031B6803EBC2031B
:1035800013F80B40FCB14FEACB085FFA88F845F21C
:10359000C403C0F6000301931AF8045019F805306B
:1035A00004EA03044544EDB256F8253023B90198E6
:1035B0004FF05501FFF76CFC56F825003946FFF730
:1035C00091FD002CE8D1BBF1000FCDD13846FFF7BB
:1035D000E3FE03B0BDE8F08FF8B572B640F21843D1
:1035E000C2F200031C68002C2AD01E464FF00005D2
:1035F00040F21447C2F20007238A03F1FF339BB263
:103600002382BBB9638A0BB123820DE033689C42ED
:1036100002D1A368336006E0A3680BB162685A6008
:103620006368A2689A60656062B6E0682146FFF749
:1036300059FD01E062B63D7072B6A468002CDBD182
:1036400062B6F8BD034672B6806850B102689A60EF
:103650001A8A02F1FF3292B21A82598A914288BFC5
:103660005A8262B6704700BF10B5044630B140F2CE
:103670009033C2F200031B78834207D245F29C10BC
:10368000C0F600004FF04301FFF702FC72B662B6CD
:1036900040F29433C2F2000304F1FF3404EB8404DB
:1036A00003EB8403588A10BD2DE9F0410446884697
:1036B00017461E46032A94BF0023012300290CBF8E
:1036C000002303F0010323B106F104039BB29E42E1
:1036D00007D345F2A410C0F600004FF03101FFF708
:1036E000D7FBC4F808804FF00403A381042E9CBFCD
:1036F000042301250BD94FF004034FF0010503F11A
:1037000004039BB205F101059E42F8D8A3811E4631
:103710009F4207D245F2A410C0F600004FF03F01CF
:10372000FFF7B6FBC6EB07074FF00103E381A26882
:10373000BE429EBFAD007142C6EB070701D90BE048
:103740001A4602EB05031360E28902F10102E281ED
:103750000F44F742F4D300E013464FF000021A6022
:10376000E28922826282C4F800806360BDE8F08151
:1037700038B504460D4603688B4206D84368994223
:1037800003D8028AC3899A4207D945F2B010C0F61D
:1037900000004FF02D01FFF77BFB72B6A3682B6092
:1037A000A560238A03F10103238262B638BD00BFFE
:1037B00038B504460D464FF0000343608360C36094
:1037C00003824382032907D845F2B810C0F60000EF
:1037D0004FF03501FFF75CFB25804FF00003A3702D
:1037E000204638BD70B504460E46154662B10388C2
:1037F000032B09D942680B1E18BF0123002A14BFEE
:10380000002303F001033BB945F2C410C0F60000E9
:103810004FF03101FFF73CFB25826460E66072B631
:1038200040F21843C2F200031B68A36003B15C605E
:1038300040F21843C2F200031C6062B670BD00BFC4
:10384000014B0360704700BFD851000810B5044613
:10385000FFF7F6FF2046FFF761FB204610BD00BFD3
:103860002DE9F04F87B0054643689847022804D0F9
:1038700029484FF03201FFF70BFB43F68536C0F6BF
:10388000000645F20427C0F600074FF00009DFF8F4
:1038900088B0DFF88880DFF888A06B68009328463E
:1038A000394698476B689E4231D04C4604F101047A
:1038B000E4B262B206A901EB820242F8183C284643
:1038C000394698476B689E42F0D1009E6E6063B2A5
:1038D000052B04DD58464FF04901FFF7D9FA63B2D2
:1038E00006AA02EB830353F8183C28464146984742
:1038F00004F1FF34E4B214F0800FF0D028465146B2
:10390000B0470228C9D06E6007B0BDE8F08F009EB6
:103910006E604C46E3E700BFE05100080852000823
:10392000105200082DE9F04F87B005460C46466856
:103930006F6828462146B8470328F9D0022840F08E
:103940000C81D5F804A0CDF800A00196BE420ED09F
:10395000874C45F20428C0F6000828462146B047A7
:1039600010B928464146B0476E68B742F5D1574571
:1039700008D128467E49B847F3E014F0800F00F0E4
:103980009580A3E045F20421C0F600012846D04707
:103990006C68A74200F0E58045F20421C0F6000102
:1039A0002846B847D5F80480A04503D12846704979
:1039B000B847D6E0C24503D128466D49B84785E0EF
:1039C000019445F20421C0F600012846A0470328CF
:1039D00002BF012445F2042AC0F6000A01D027E004
:1039E000344604F10106F6B26B6872B206A901EB27
:1039F000820242F8183C9F420BD176B2052EBCDD04
:103A000045F2F010C0F600004FF07C01FFF740FADD
:103A1000B3E72846514698470328E1D0344676B2AA
:103A2000052E07DD53484FF08701FFF731FA01E01B
:103A30004FF0010428464E49B84723465AB206A91A
:103A400001EB820252F8182C904503D103F1FF33A9
:103A5000DCB292E703F1FF33DBB213F0800FEDD05D
:103A60004FF00109424EDFF810A1274628463146A3
:103A7000C04710B928465146C047D5F804803B4698
:103A80005AB206A901EB820252F8182C424503D122
:103A900003F1FF33DCB270E703F1FF33DBB213F065
:103AA000800FEDD0B9F1000FE0D166E7334E63B27D
:103AB00006AA02EB830353F8183C28463146984780
:103AC00004F1FF34E4B214F0800FF0D0009E6E6079
:103AD000DFF8ACA045F20427C0F600074FF000095C
:103AE00045F2F01BC0F6000BDFF8908030E06B6809
:103AF00000932846394698476B689E4234D04C461E
:103B000004F10104E4B262B206A901EB820242F8B8
:103B1000183C2846394698476B689E42F0D1009E73
:103B20006E6063B2052B04DD58464FF0DB01FFF7F2
:103B3000AFF963B206AA02EB830353F8183C284698
:103B40004146984704F1FF34E4B214F0800FF0D0FE
:103B500028465146B0470228C9D06E6007B0BDE87C
:103B6000F08F4FF00004A1E7009E6E604C46E0E746
:103B70000C520008F05100080452000808520008D6
:103B8000105200084FF00100704700BF70B50D4D96
:103B90000D4E761BB61006D0002455F8043B0134B8
:103BA0009847A642F9D8094D01F0B8FB084E761B9C
:103BB000B61006D0002455F8043B01349847A642BD
:103BC000F9D870BD3453000834530008345300084A
:103BD0004053000838B5084D084C641BA41007D0AA
:103BE00005EB840555F8043D984714F1FF34F9D1ED
:103BF00001F09AFB38BD00BF405300084453000851
:103C000010B50446024B0360FFF71AFE204610BDB4
:103C10006052000810B50446024B0360FFF710FE27
:103C2000204610BD6052000810B50446044B0360E6
:103C3000FFF706FE2046FFF771F9204610BD00BFD2
:103C40006052000810B50446044B0360FFF7F8FD0E
:103C50002046FFF763F9204610BD00BF6052000800
:103C600010B50446024B0360FFF7EAFD204610BD85
:103C70006052000810B50446044B0360FFF7E0FDF6
:103C80002046FFF74BF9204610BD00BF60520008E8
:103C9000EFF3108072B606498A68FF231B041A43AB
:103CA0008A604A681B029A434A6080F31088704712
:103CB00018ED00E072B6FFF77FF9002803D162B675
:103CC0000620C043004701231B06054A05490EB4E0
:103CD00084B001B40620C043004762B600DF000094
:103CE00049300008DB3C000808B0704708B50346BF
:103CF00008461946FFF716F908BD00BF00A24A049E
:103D000000A24A0400A24A040051250200A24A046B
:103D10002000000020000000200000002000000023
:103D200080000020080010000400000010000000C7
:103D30000800000001000020000200000000020056
:103D40000100000000000D0009000000010000203B
:103D500000020000060028001700000020000000FC
:103D600000000200200000004000000000000000F1
:103D70000000000000000000000000000000000043
:103D80000000000000000000000000000000000033
:103D900000000000000000000000000000008001A2
:103DA000800180018001800180018001800180010B
:103DB00080018001800180010000000080018001FD
:103DC00000000000000000000000000000000000F3
:103DD000CC00CC00CC00CC00CC00CC00000000001B
:103DE00000000000000000000000000000000000D3
:103DF00000000000000000000000000000000000C3
:103E00000000000000000000600C600C600C300638
:103E10003006FE1FFE1F300638071803FE1FFE1F68
:103E2000180318038C018C018C0100000000800035
:103E3000E003F80F9C0E8C1C8C188C009800F80185
:103E4000E007800E801C8C188C189C18B80CF00FA2
:103E5000E00380008000000000000000000000007F
:103E600000000E181B0C110C110611061103110392
:103E70009B018E01C038C06C6044604430443044C3
:103E80001844186C0C380000000000000000E0012D
:103E9000F0033807180618063003F001F000F800A8
:103EA0009C310E33061E061C061C063FFC73F021D7
:103EB0000000000000000000000000000000000002
:103EC0000C000C000C000C000C000C0000000000AA
:103ED00000000000000000000000000000000000E2
:103EE00000000000000000000000000000000002D0
:103EF00000038001C000C00060006000300030009E
:103F000030003000300030003000300060006000D1
:103F1000C000C0008001000300020000000020007B
:103F20006000C0008001800100030003000600065D
:103F30000006000600060006000600060003000357
:103F400080018001C000600020000000000000002F
:103F50000000000000000000C000C000D806F80704
:103F6000E0013003380700000000000000000000FE
:103F70000000000000000000000000000000000041
:103F8000000000000000000080018001800180012D
:103F90008001FC3FFC3F80018001800180018001A5
:103FA0000000000000000000000000000000000011
:103FB0000000000000000000000000000000000001
:103FC0000000000000000000000000000000800170
:103FD00080010001000180000000000000000000DE
:103FE00000000000000000000000000000000000D1
:103FF00000000000E007E0070000000000000000F3
:1040000000000000000000000000000000000000B0
:1040100000000000000000000000000000000000A0
:104020000000000000000000000000000000C000D0
:10403000C000000000000000000000000000000CB4
:10404000000C0006000600060003000300038003C6
:10405000800180018001C000C000C00060006000DD
:104060000000000000000000000000000000E0036D
:10407000F007380E180C0C180C180C180C180C182B
:104080000C180C180C180C18180C380EF007E0035C
:10409000000000000000000000000000000000011F
:1040A0008001C001F0019801880180018001800138
:1040B00080018001800180018001800180018001F8
:1040C0000000000000000000000000000000E0030D
:1040D000F80F180C0C180C1800180018000C00062B
:1040E00000038001C000600030001800FC1FFC1FAE
:1040F0000000000000000000000000000000E001DF
:10410000F807180E0C0C0C0C000C0006C003C007BE
:10411000000C001800180C180C18180CF807E00315
:104120000000000000000000000000000000000C83
:10413000000E000F000F800DC00C600C600C300CE6
:10414000180C0C0CFC3FFC3F000C000C000C000C8D
:104150000000000000000000000000000000F80F58
:10416000F80F180018000C00EC03FC071C0E001CD4
:104170000018001800180C181C0C180EF807E003A3
:104180000000000000000000000000000000C00768
:10419000F00F381C181818000C00CC03EC0F3C0E64
:1041A0001C1C0C180C180C18181C380EF007E00317
:1041B0000000000000000000000000000000FC1FE4
:1041C000FC1F000C00060006000380038001C001F4
:1041D000C000E0006000600070003000300030007F
:1041E0000000000000000000000000000000E003EC
:1041F000F007380E180C180C180C3806F007F007EA
:10420000180C0C180C180C180C18380CF80FE003CC
:104210000000000000000000000000000000E003BB
:10422000F007380E1C0C0C180C180C181C1C381E2F
:10423000F81BE0190018000C000C1C0EF807F00128
:10424000000000000000000000000000000000006E
:10425000000000000000000080018001000000005C
:10426000000000000000000000000000800180014C
:10427000000000000000000000000000000000003E
:10428000000000000000000080018001000000002C
:10429000000000000000000000000000800180011C
:1042A000000100018000000000000000000000008C
:1042B0000000000000000000000000000010001CD2
:1042C000800FE003F8001800F800E003800F001CE6
:1042D00000100000000000000000000000000000CE
:1042E000000000000000000000000000F81F0000B7
:1042F00000000000F81F00000000000000000000A7
:1043000000000000000000000000000000000000AD
:10431000000000000000000000000000080038005D
:10432000F001C007001F0018001FC007F00138008F
:104330000800000000000000000000000000E00392
:10434000F80F180C0C180C180018000C00060003CD
:104350008001C000C000C00000000000C000C0001C
:10436000000000000000000000000000000000004D
:10437000E00718180420C229224A114409440944BC
:10438000094409221113E20C024004201818E00726
:10439000000000000000000000000000000080039A
:1043A0008003C006C006C006600C600C30183018D0
:1043B0003018F83FF83F1C700C600C6006C006C057
:1043C0000000000000000000000000000000FC03EE
:1043D000FC0F0C0C0C180C180C180C0CFC07FC0F28
:1043E0000C180C300C300C300C300C18FC1FFC0777
:1043F0000000000000000000000000000000C007F6
:10440000F01F38381C300C700660060006000600ED
:1044100006000600060006600C701C30F01FE00766
:104420000000000000000000000000000000FE038B
:10443000FE0F060E06180618063006300630063047
:1044400006300630063006180618060EFE0FFE036C
:104450000000000000000000000000000000FC3F21
:10446000FC3F0C000C000C000C000C00FC1FFC1F9F
:104470000C000C000C000C000C000C00FC3FFC3F7E
:104480000000000000000000000000000000F83FF5
:10449000F83F18001800180018001800F81FF81F3F
:1044A000180018001800180018001800180018004C
:1044B0000000000000000000000000000000E00F0D
:1044C000F83F3C780E6006E007C00300030003FEDF
:1044D00003FE03C007C006C00EC03CF0F83FE00F6B
:1044E00000000000000000000000000000000C3090
:1044F0000C300C300C300C300C300C30FC3FFC3FDE
:104500000C300C300C300C300C300C300C300C30CB
:10451000000000000000000000000000000080011A
:104520008001800180018001800180018001800183
:104530008001800180018001800180018001800173
:104540000000000000000000000000000000000665
:10455000000600060006000600060006000600062B
:10456000000600060006180618063807F003E001EA
:104570000000000000000000000000000000063005
:104580000618060C060606038601C60066007600BD
:10459000DE008E0106030606060C061806300660CD
:1045A00000000000000000000000000000001800F3
:1045B000180018001800180018001800180018003B
:1045C000180018001800180018001800F81FF81F2D
:1045D00000000000000000000000000000000EE0ED
:1045E0001EF01EF01EF036D836D836D836D866CC37
:1045F00066CC66CCC6C6C6C6C6C6C6C686C386C395
:1046000000000000000000000000000000000C306E
:104610001C303C303C306C306C30CC30CC308C3189
:104620000C330C330C360C360C3C0C3C0C380C3078
:104630000000000000000000000000000000E00793
:10464000F81F1C380E70066003C003C003C003C00F
:1046500003C003C003C006600E701C38F81FE007DB
:104660000000000000000000000000000000FC0F3F
:10467000FC1F0C380C300C300C300C300C18FC1FAC
:10468000FC070C000C000C000C000C000C000C00D3
:104690000000000000000000000000000000E00733
:1046A000F81F1C380E70066003E003C003C003C08F
:1046B00003C003C007E006630E3F1C3CF83FE0F771
:1046C00000C0000000000000000000000000FE0F1D
:1046D000FE1F06380630063006300638FE1FFE077D
:1046E00006030606060C0618061806300630066095
:1046F0000000000000000000000000000000E003D7
:10470000F80F1C0C0C180C180C001C00F803E00F20
:10471000001E0038063006300E301C1CF80FE00773
:104720000000000000000000000000000000FE7F0C
:10473000FE7F800180018001800180018001800175
:104740008001800180018001800180018001800161
:1047500000000000000000000000000000000C301D
:104760000C300C300C300C300C300C300C300C3069
:104770000C300C300C300C300C301818F81FE007DF
:1047800000000000000000000000000000000360C6
:104790000630063006300C180C180C18180C180CC3
:1047A000380E30063006700760036003C001C00198
:1047B0000000000000000000000000000000036096
:1047C000C361C361C3616633663366336633663380
:1047D00066336C1B6C1B6C1B2C1A3C1E380E380E7F
:1047E00000000000000000000000000000000FE0DA
:1047F0000C7018303018700C600EC00780038003F6
:10480000C003E006700C301C18180C300E6007E076
:10481000000000000000000000000000000003C0D5
:1048200006600C301C383818300C6006E007C003F6
:104830008001800180018001800180018001800170
:104840000000000000000000000000000000FC7FED
:10485000FC7F006000300018000C0006000380019F
:10486000C0006000300018000C000600FE7FFE7FD4
:104870000000000000000000000000000000E00355
:10488000E0036000600060006000600060006000A5
:104890006000600060006000600060006000600018
:1048A000600060006000E003E003000000003000F2
:1048B0003000600060006000C000C000C000C001A7
:1048C0008001800180010003000300030006000650
:1048D0000000000000000000000000000000E003F5
:1048E000E0030003000300030003000300030003D0
:1048F00000030003000300030003000300030003A0
:10490000000300030003E003E003000000000000D8
:10491000C001C00160036003600330063006180C5C
:10492000180C000000000000000000000000000063
:104930000000000000000000000000000000000077
:104940000000000000000000000000000000000067
:104950000000000000000000000000000000FFFF59
:10496000FFFF0000000000000000000000000C003D
:104970000C000C000C000C000C00000000000000FB
:104980000000000000000000000000000000000027
:104990000000000000000000000000000000000017
:1049A0000000000000000000F003F8071C0C0C0CD5
:1049B000000FF00FF80C0C0C0C0C1C0FF80FF0187B
:1049C00000000000000000000000000000001800CF
:1049D0001800180018001800D803F80F380C181821
:1049E00018181818181818181818380CF80FD803B1
:1049F00000000000000000000000000000000000B7
:104A00000000000000000000C003F007300E180C8A
:104A10001800180018001800180C300EF007C0031A
:104A2000000000000000000000000000000000186E
:104A30000018001800180018C01BF01F301C1818B0
:104A400018181818181818181818301CF01FC01B40
:104A50000000000000000000000000000000000056
:104A60000000000000000000C003F00F300C181818
:104A7000F81FF81F180018003818301CF00FC00776
:104A80000000000000000000000000000000800F97
:104A9000C00FC000C000C000F007F007C000C00099
:104AA000C000C000C000C000C000C000C000C00006
:104AB00000000000000000000000000000000000F6
:104AC0000000000000000000E00DF80F180E0C0CB4
:104AD0000C0C0C0C0C0C0C0C0C0C180EF80FE00D44
:104AE000000C0C0C1C06F807F00100000000180078
:104AF0001800180018001800D807F80F381C1818EC
:104B00001818181818181818181818181818181825
:104B10000000000000000000000000000000C000D5
:104B2000C000000000000000C000C000C000C000C5
:104B3000C000C000C000C000C000C000C000C00075
:104B40000000000000000000000000000000C000A5
:104B5000C000000000000000C000C000C000C00095
:104B6000C000C000C000C000C000C000C000C00045
:104B7000C000C000C000F8007800000000000C0079
:104B80000C000C000C000C000C0C0C060C038C012F
:104B9000CC006C00FC009C018C030C030C060C0C7C
:104BA0000000000000000000000000000000C00045
:104BB000C000C000C000C000C000C000C000C000F5
:104BC000C000C000C000C000C000C000C000C000E5
:104BD00000000000000000000000000000000000D5
:104BE00000000000000000007C3CFF7EC7E383C1A2
:104BF00083C183C183C183C183C183C183C183C195
:104C000000000000000000000000000000000000A4
:104C100000000000000000009807F80F381C18186A
:104C20001818181818181818181818181818181804
:104C30000000000000000000000000000000000074
:104C40000000000000000000C003F00F300C181836
:104C500018181818181818181818300CF00FC00366
:104C60000000000000000000000000000000000044
:104C70000000000000000000D803F80F380C1818DE
:104C800018181818181818181818380CF80FD8030E
:104C9000180018001800180018000000000000009C
:104CA0000000000000000000C01BF01F301C18189E
:104CB00018181818181818181818301CF01FC01BCE
:104CC000001800180018001800180000000000006C
:104CD0000000000000000000B007F003700030008A
:104CE0003000300030003000300030003000300044
:104CF00000000000000000000000000000000000B4
:104D00000000000000000000E003F003380E180C63
:104D10003800F003C007000C180C380EF007E00351
:104D20000000000000000000000000000000000083
:104D30008000C000C000C000F007F007C000C00045
:104D4000C000C000C000C000C000C000C007800795
:104D50000000000000000000000000000000000053
:104D60000000000000000000181818181818181883
:104D700018181818181818181818381CF01FE019E7
:104D80000000000000000000000000000000000023
:104D900000000000000000000C18180C180C180C83
:104DA000300630063006600360036003C001C001B6
:104DB00000000000000000000000000000000000F3
:104DC0000000000000000000C141C141C3616363F5
:104DD000636363633636363636361C1C1C1C1C1C5B
:104DE00000000000000000000000000000000000C3
:104DF00000000000000000001C38381C300C600669
:104E000060036003600360036006300C381C1C38CC
:104E10000000000000000000000000000000000092
:104E20000000000000000000183030183018701822
:104E3000600C600CE00CC006C00680038003800399
:104E400080018001C001F00070000000000000003F
:104E50000000000000000000FC1FFC1F000C00060A
:104E600000038001C000600030001800FC1FFC1F20
:104E7000000000000000000000000000000000032F
:104E80008001C000C000C000C000C000C0006000C1
:104E90006000300060004000C000C000C000C000E2
:104EA000C000C0008001000300000000000080017D
:104EB00080018001800180018001800180018001EA
:104EC00080018001800180018001800180018001DA
:104ED00080018001800180018001000000006000ED
:104EE000C000C001800180018001800180010003B9
:104EF00000030006000300018001800180018001A1
:104F000080018001C000600000000000000000007F
:104F1000000000000000000000000000F010F81F7A
:104F2000080F00000000000000000000000000006A
:104F30000000000000000000000000007461626CCE
:104F4000652E637070000000640100207068696C59
:104F50006F2E63707000000088010020B8010020EF
:104F6000E801002018020020480200206E6F5F68F0
:104F70006561702E63707000342E332E3030000067
:104F8000716B000071615F6669666F0071615F67D8
:104F900065745F0071615F7375620000342E332E9B
:104FA0003030000071665F616374000071665F6796
:104FB000630000000001020203030303040404046D
:104FC0000404040405050505050505050505050595
:104FD0000505050506060606060606060606060675
:104FE0000606060606060606060606060606060661
:104FF0000606060607070707070707070707070745
:105000000707070707070707070707070707070730
:105010000707070707070707070707070707070720
:105020000707070707070707070707070707070710
:1050300007070707080808080808080808080808F4
:1050400008080808080808080808080808080808E0
:1050500008080808080808080808080808080808D0
:1050600008080808080808080808080808080808C0
:1050700008080808080808080808080808080808B0
:1050800008080808080808080808080808080808A0
:105090000808080808080808080808080808080890
:1050A0000808080808080808080808080808080880
:1050B0000808080871665F6E6577000071665F70AA
:1050C0006F6F6C0071665F70737075620000000036
:1050D0000001020408102040800102040810204052
:1050E00080010204081020408001020408102040C2
:1050F00080010204081020408001020408102040B2
:1051000080010204081020408001020408102040A1
:1051100080000000FFFEFDFBF7EFDFBF7FFEFDFB21
:10512000F7EFDFBF7FFEFDFBF7EFDFBF7FFEFDFB8D
:10513000F7EFDFBF7FFEFDFBF7EFDFBF7FFEFDFB7D
:10514000F7EFDFBF7FFEFDFBF7EFDFBF7FFEFDFB6D
:10515000F7EFDFBF7F00000000000000000000004C
:105160000001010101010101010202020202020229
:1051700002030303030303030304040404040404F9
:1051800004050505050505050506060606060606C9
:10519000060707070707070707000000716D705F24
:1051A00067657400716D705F696E6974000000005E
:1051B000716D705F707574007174655F63746F7288
:1051C000000000007174655F61726D0000000000F6
:1051D0000000000000000000413800084D380008C1
:1051E0007168736D5F696E69000000000000000067
:1051F0007168736D5F64697300000000342E332E94
:10520000303000000000000001000000020000003B
:1052100003000000737461727475705F73746D3392
:1052200032663130785F636C00000000202020205F
:10523000202020202020202020202020202020206E
:10524000000000000000000000000000000000005E
:10525000153C0008453C000800000000000000006C
:10526000013C0008293C000868756E6772792020AF
:1052700000000000656174696E6720200000000076
:105280007468696E6B696E670000000000000000C2
:105290000000000000000000613C0008753C0008B0
:1052A0002020205175616E74756D204C656170739E
:1052B00020202020000000002020202020445050EA
:1052C000206578616D706C65202020200000000052
:1052D0002051502F432B2B2028514B2920202020B8
:1052E00020202020000000004450503A0000000020
:1052F000202073746174652D6D616368696E652E1D
:10530000636F6D200000000030202C31202C3220F3
:105310002C33202C3420202020000000F8B500BFC2
:10532000F8BC08BC9E467047F8B500BFF8BC08BC86
:045330009E467047DE
:0C53340085010008F9280008E52B00089E
:0453400061010008FF
:10534400000000000014014000140140001401405A
:10535400001401400008014000100140000C01400D
:105364000014014000440040FFFF00000000000062
:1053740001020304010203040607080902040608E3
:0453840040000000E5
:04000005080001D11D
:00000001FF
